{
	"data": {
		"bytecode": {
			"linkReferences": {},
			"object": "60c06040526001600b55620186a0600c55662386f26fc10000600f556001601060006101000a81548160ff02191690836003811115620000445762000043620003cf565b5b02179055506000601060016101000a81548160ff02191690836001811115620000725762000071620003cf565b5b02179055503480156200008457600080fd5b506040518060a00160405280606c815260200162004a0a606c9139738c7382f9d8f56b33781fe506e897a4f1e2d1725573326c977e6efc84e512bb9c30f76e30c160ed06fb8173ffffffffffffffffffffffffffffffffffffffff1660a08173ffffffffffffffffffffffffffffffffffffffff1660601b815250508073ffffffffffffffffffffffffffffffffffffffff1660808173ffffffffffffffffffffffffffffffffffffffff1660601b815250505050620001596200014d620001ff60201b60201c565b6200020760201b60201c565b6200016a81620002cd60201b60201c565b507f6e75b569a01ef56d18cab6a8e71e6600d6ce853834d4a5748b720d06f878b3a460001b600d8190555067016345785d8a0000600e81905550733c68ce8504087f89c640d02d133646d98e64ddd9600860006101000a81548173ffffffffffffffffffffffffffffffffffffffff021916908373ffffffffffffffffffffffffffffffffffffffff1602179055506200042d565b600033905090565b6000600160009054906101000a900473ffffffffffffffffffffffffffffffffffffffff16905081600160006101000a81548173ffffffffffffffffffffffffffffffffffffffff021916908373ffffffffffffffffffffffffffffffffffffffff1602179055508173ffffffffffffffffffffffffffffffffffffffff168173ffffffffffffffffffffffffffffffffffffffff167f8be0079c531659141344cd1fd0a4f28419497f9722a3daafe3b4186f6b6457e060405160405180910390a35050565b8060049080519060200190620002e5929190620002e9565b5050565b828054620002f79062000399565b90600052602060002090601f0160209004810192826200031b576000855562000367565b82601f106200033657805160ff191683800117855562000367565b8280016001018555821562000367579182015b828111156200036657825182559160200191906001019062000349565b5b5090506200037691906200037a565b5090565b5b80821115620003955760008160009055506001016200037b565b5090565b60006002820490506001821680620003b257607f821691505b60208210811415620003c957620003c8620003fe565b5b50919050565b7f4e487b7100000000000000000000000000000000000000000000000000000000600052602160045260246000fd5b7f4e487b7100000000000000000000000000000000000000000000000000000000600052602260045260246000fd5b60805160601c60a05160601c6145aa6200046060003960008181610cdd015261232c015260006122f001526145aa6000f3fe60806040526004361061013e5760003560e01c8063715018a6116100b6578063a4af2f0e1161006f578063a4af2f0e14610427578063e43252d714610452578063e97dcb621461047b578063e985e9c514610485578063f242432a146104c2578063f2fde38b146104eb5761013e565b8063715018a61461033f57806389f3beb6146103565780638ab1d681146103815780638da5cb5b146103aa57806394985ddd146103d5578063a22cb465146103fe5761013e565b80634e1273f4116101085780634e1273f41461024e578063604963481461028b57806360b2a56a146102a2578063630a46c3146102be5780636939864b146102e95780636f9fb98a146103145761013e565b8062cbb73b14610143578062fdd58e1461016e57806301ffc9a7146101ab5780630e89341c146101e85780632eb2c2d614610225575b600080fd5b34801561014f57600080fd5b50610158610514565b6040516101659190613a23565b60405180910390f35b34801561017a57600080fd5b5061019560048036038101906101909190612ed6565b6105c6565b6040516101a29190613a23565b60405180910390f35b3480156101b757600080fd5b506101d260048036038101906101cd9190612ffb565b610690565b6040516101df91906136c7565b60405180910390f35b3480156101f457600080fd5b5061020f600480360381019061020a9190613055565b610772565b60405161021c91906137a1565b60405180910390f35b34801561023157600080fd5b5061024c60048036038101906102479190612d30565b610806565b005b34801561025a57600080fd5b5061027560048036038101906102709190612f16565b6108a7565b604051610282919061366e565b60405180910390f35b34801561029757600080fd5b506102a06109c0565b005b6102bc60048036038101906102b79190613055565b610a69565b005b3480156102ca57600080fd5b506102d3610b34565b6040516102e09190613a23565b60405180910390f35b3480156102f557600080fd5b506102fe610b3a565b60405161030b9190613786565b60405180910390f35b34801561032057600080fd5b50610329610b4d565b6040516103369190613a23565b60405180910390f35b34801561034b57600080fd5b50610354610b55565b005b34801561036257600080fd5b5061036b610bdd565b6040516103789190613a23565b60405180910390f35b34801561038d57600080fd5b506103a860048036038101906103a39190612cc3565b610be3565b005b3480156103b657600080fd5b506103bf610cb1565b6040516103cc91906134f3565b60405180910390f35b3480156103e157600080fd5b506103fc60048036038101906103f79190612fbb565b610cdb565b005b34801561040a57600080fd5b5061042560048036038101906104209190612e96565b610d77565b005b34801561043357600080fd5b5061043c610d8d565b604051610449919061376b565b60405180910390f35b34801561045e57600080fd5b5061047960048036038101906104749190612cc3565b610da0565b005b610483610e77565b005b34801561049157600080fd5b506104ac60048036038101906104a79190612cf0565b61125b565b6040516104b991906136c7565b60405180910390f35b3480156104ce57600080fd5b506104e960048036038101906104e49190612dff565b6112ef565b005b3480156104f757600080fd5b50610512600480360381019061050d9190612cc3565b611390565b005b6000600860009054906101000a900473ffffffffffffffffffffffffffffffffffffffff1673ffffffffffffffffffffffffffffffffffffffff166370a08231306040518263ffffffff1660e01b815260040161057191906134f3565b60206040518083038186803b15801561058957600080fd5b505afa15801561059d573d6000803e3d6000fd5b505050506040513d601f19601f820116820180604052508101906105c19190613082565b905090565b60008073ffffffffffffffffffffffffffffffffffffffff168373ffffffffffffffffffffffffffffffffffffffff161415610637576040517f08c379a000000000000000000000000000000000000000000000000000000000815260040161062e90613803565b60405180910390fd5b6002600083815260200190815260200160002060008473ffffffffffffffffffffffffffffffffffffffff1673ffffffffffffffffffffffffffffffffffffffff16815260200190815260200160002054905092915050565b60007fd9b67a26000000000000000000000000000000000000000000000000000000007bffffffffffffffffffffffffffffffffffffffffffffffffffffffff1916827bffffffffffffffffffffffffffffffffffffffffffffffffffffffff1916148061075b57507f0e89341c000000000000000000000000000000000000000000000000000000007bffffffffffffffffffffffffffffffffffffffffffffffffffffffff1916827bffffffffffffffffffffffffffffffffffffffffffffffffffffffff1916145b8061076b575061076a82611488565b5b9050919050565b60606004805461078190613ce6565b80601f01602080910402602001604051908101604052809291908181526020018280546107ad90613ce6565b80156107fa5780601f106107cf576101008083540402835291602001916107fa565b820191906000526020600020905b8154815290600101906020018083116107dd57829003601f168201915b50505050509050919050565b61080e6114f2565b73ffffffffffffffffffffffffffffffffffffffff168573ffffffffffffffffffffffffffffffffffffffff16148061085457506108538561084e6114f2565b61125b565b5b610893576040517f08c379a000000000000000000000000000000000000000000000000000000000815260040161088a90613883565b60405180910390fd5b6108a085858585856114fa565b5050505050565b606081518351146108ed576040517f08c379a00000000000000000000000000000000000000000000000000000000081526004016108e4906139a3565b60405180910390fd5b6000835167ffffffffffffffff81111561090a57610909613ec2565b5b6040519080825280602002602001820160405280156109385781602001602082028036833780820191505090505b50905060005b84518110156109b55761098585828151811061095d5761095c613e93565b5b602002602001015185838151811061097857610977613e93565b5b60200260200101516105c6565b82828151811061099857610997613e93565b5b602002602001018181525050806109ae90613d49565b905061093e565b508091505092915050565b6109c86114f2565b73ffffffffffffffffffffffffffffffffffffffff166109e6610cb1565b73ffffffffffffffffffffffffffffffffffffffff1614610a3c576040517f08c379a0000000000000000000000000000000000000000000000000000000008152600401610a33906138e3565b60405180910390fd5b6000601060006101000a81548160ff02191690836003811115610a6257610a61613e35565b5b0217905550565b610a716114f2565b73ffffffffffffffffffffffffffffffffffffffff16610a8f610cb1565b73ffffffffffffffffffffffffffffffffffffffff1614610ae5576040517f08c379a0000000000000000000000000000000000000000000000000000000008152600401610adc906138e3565b60405180910390fd5b6001610af133836105c6565b14610b31576040517f08c379a0000000000000000000000000000000000000000000000000000000008152600401610b2890613943565b60405180910390fd5b50565b600a5481565b601060009054906101000a900460ff1681565b600047905090565b610b5d6114f2565b73ffffffffffffffffffffffffffffffffffffffff16610b7b610cb1565b73ffffffffffffffffffffffffffffffffffffffff1614610bd1576040517f08c379a0000000000000000000000000000000000000000000000000000000008152600401610bc8906138e3565b60405180910390fd5b610bdb6000611811565b565b60095481565b610beb6114f2565b73ffffffffffffffffffffffffffffffffffffffff16610c09610cb1565b73ffffffffffffffffffffffffffffffffffffffff1614610c5f576040517f08c379a0000000000000000000000000000000000000000000000000000000008152600401610c56906138e3565b60405180910390fd5b600760008273ffffffffffffffffffffffffffffffffffffffff1673ffffffffffffffffffffffffffffffffffffffff16815260200190815260200160002060006101000a81549060ff021916905550565b6000600160009054906101000a900473ffffffffffffffffffffffffffffffffffffffff16905090565b7f000000000000000000000000000000000000000000000000000000000000000073ffffffffffffffffffffffffffffffffffffffff163373ffffffffffffffffffffffffffffffffffffffff1614610d69576040517f08c379a0000000000000000000000000000000000000000000000000000000008152600401610d6090613903565b60405180910390fd5b610d7382826118d7565b5050565b610d89610d826114f2565b8383611a8b565b5050565b601060019054906101000a900460ff1681565b610da86114f2565b73ffffffffffffffffffffffffffffffffffffffff16610dc6610cb1565b73ffffffffffffffffffffffffffffffffffffffff1614610e1c576040517f08c379a0000000000000000000000000000000000000000000000000000000008152600401610e13906138e3565b60405180910390fd5b6001600760008373ffffffffffffffffffffffffffffffffffffffff1673ffffffffffffffffffffffffffffffffffffffff16815260200190815260200160002060006101000a81548160ff02191690831515021790555050565b600280811115610e8a57610e89613e35565b5b600660003373ffffffffffffffffffffffffffffffffffffffff1673ffffffffffffffffffffffffffffffffffffffff16815260200190815260200160002060009054906101000a900460ff166002811115610ee957610ee8613e35565b5b1415610f2a576040517f08c379a0000000000000000000000000000000000000000000000000000000008152600401610f21906138a3565b60405180910390fd5b60016002811115610f3e57610f3d613e35565b5b600660003373ffffffffffffffffffffffffffffffffffffffff1673ffffffffffffffffffffffffffffffffffffffff16815260200190815260200160002060009054906101000a900460ff166002811115610f9d57610f9c613e35565b5b1415610fde576040517f08c379a0000000000000000000000000000000000000000000000000000000008152600401610fd590613923565b60405180910390fd5b60006003811115610ff257610ff1613e35565b5b601060009054906101000a900460ff16600381111561101457611013613e35565b5b14156110ae5760011515600760003373ffffffffffffffffffffffffffffffffffffffff1673ffffffffffffffffffffffffffffffffffffffff16815260200190815260200160002060009054906101000a900460ff161515146110ad576040517f08c379a00000000000000000000000000000000000000000000000000000000081526004016110a490613a03565b60405180910390fd5b5b600f54600860009054906101000a900473ffffffffffffffffffffffffffffffffffffffff1673ffffffffffffffffffffffffffffffffffffffff166370a08231336040518263ffffffff1660e01b815260040161110c91906134f3565b60206040518083038186803b15801561112457600080fd5b505afa158015611138573d6000803e3d6000fd5b505050506040513d601f19601f8201168201806040525081019061115c9190613082565b101561119d576040517f08c379a000000000000000000000000000000000000000000000000000000000815260040161119490613963565b60405180910390fd5b600860009054906101000a900473ffffffffffffffffffffffffffffffffffffffff1673ffffffffffffffffffffffffffffffffffffffff166323b872dd3330600f546040518463ffffffff1660e01b81526004016111fe93929190613576565b602060405180830381600087803b15801561121857600080fd5b505af115801561122c573d6000803e3d6000fd5b505050506040513d601f19601f820116820180604052508101906112509190612f8e565b50611259611bf8565b565b6000600360008473ffffffffffffffffffffffffffffffffffffffff1673ffffffffffffffffffffffffffffffffffffffff16815260200190815260200160002060008373ffffffffffffffffffffffffffffffffffffffff1673ffffffffffffffffffffffffffffffffffffffff16815260200190815260200160002060009054906101000a900460ff16905092915050565b6112f76114f2565b73ffffffffffffffffffffffffffffffffffffffff168573ffffffffffffffffffffffffffffffffffffffff16148061133d575061133c856113376114f2565b61125b565b5b61137c576040517f08c379a000000000000000000000000000000000000000000000000000000000815260040161137390613843565b60405180910390fd5b6113898585858585611d31565b5050505050565b6113986114f2565b73ffffffffffffffffffffffffffffffffffffffff166113b6610cb1565b73ffffffffffffffffffffffffffffffffffffffff161461140c576040517f08c379a0000000000000000000000000000000000000000000000000000000008152600401611403906138e3565b60405180910390fd5b600073ffffffffffffffffffffffffffffffffffffffff168173ffffffffffffffffffffffffffffffffffffffff16141561147c576040517f08c379a000000000000000000000000000000000000000000000000000000000815260040161147390613823565b60405180910390fd5b61148581611811565b50565b60007f01ffc9a7000000000000000000000000000000000000000000000000000000007bffffffffffffffffffffffffffffffffffffffffffffffffffffffff1916827bffffffffffffffffffffffffffffffffffffffffffffffffffffffff1916149050919050565b600033905090565b815183511461153e576040517f08c379a0000000000000000000000000000000000000000000000000000000008152600401611535906139c3565b60405180910390fd5b600073ffffffffffffffffffffffffffffffffffffffff168473ffffffffffffffffffffffffffffffffffffffff1614156115ae576040517f08c379a00000000000000000000000000000000000000000000000000000000081526004016115a590613863565b60405180910390fd5b60006115b86114f2565b90506115c8818787878787611fb6565b60005b845181101561177c5760008582815181106115e9576115e8613e93565b5b60200260200101519050600085838151811061160857611607613e93565b5b6020026020010151905060006002600084815260200190815260200160002060008b73ffffffffffffffffffffffffffffffffffffffff1673ffffffffffffffffffffffffffffffffffffffff168152602001908152602001600020549050818110156116aa576040517f08c379a00000000000000000000000000000000000000000000000000000000081526004016116a1906138c3565b60405180910390fd5b8181036002600085815260200190815260200160002060008c73ffffffffffffffffffffffffffffffffffffffff1673ffffffffffffffffffffffffffffffffffffffff16815260200190815260200160002081905550816002600085815260200190815260200160002060008b73ffffffffffffffffffffffffffffffffffffffff1673ffffffffffffffffffffffffffffffffffffffff16815260200190815260200160002060008282546117619190613b86565b925050819055505050508061177590613d49565b90506115cb565b508473ffffffffffffffffffffffffffffffffffffffff168673ffffffffffffffffffffffffffffffffffffffff168273ffffffffffffffffffffffffffffffffffffffff167f4a39dc06d4c0dbc64b70af90fd698a233a518aa5d07e595d983b8c0526c8f7fb87876040516117f3929190613690565b60405180910390a4611809818787878787611fbe565b505050505050565b6000600160009054906101000a900473ffffffffffffffffffffffffffffffffffffffff16905081600160006101000a81548173ffffffffffffffffffffffffffffffffffffffff021916908373ffffffffffffffffffffffffffffffffffffffff1602179055508173ffffffffffffffffffffffffffffffffffffffff168173ffffffffffffffffffffffffffffffffffffffff167f8be0079c531659141344cd1fd0a4f28419497f9722a3daafe3b4186f6b6457e060405160405180910390a35050565b600160038111156118eb576118ea613e35565b5b601060009054906101000a900460ff16600381111561190d5761190c613e35565b5b148061194c57506000600381111561192857611927613e35565b5b601060009054906101000a900460ff16600381111561194a57611949613e35565b5b145b1561197e57600060016064836119629190613da6565b61196c9190613b86565b905061197881846121a5565b50611a87565b6002600381111561199257611991613e35565b5b601060009054906101000a900460ff1660038111156119b4576119b3613e35565b5b1415611a8657600060018111156119ce576119cd613e35565b5b601060019054906101000a900460ff1660018111156119f0576119ef613e35565b5b1415611a4d576001601060016101000a81548160ff02191690836001811115611a1c57611a1b613e35565b5b021790555060006001606483611a329190613da6565b611a3c9190613b86565b9050611a4781612267565b50611a85565b600180811115611a6057611a5f613e35565b5b601060019054906101000a900460ff166001811115611a8257611a81613e35565b5b50505b5b5b5050565b8173ffffffffffffffffffffffffffffffffffffffff168373ffffffffffffffffffffffffffffffffffffffff161415611afa576040517f08c379a0000000000000000000000000000000000000000000000000000000008152600401611af190613983565b60405180910390fd5b80600360008573ffffffffffffffffffffffffffffffffffffffff1673ffffffffffffffffffffffffffffffffffffffff16815260200190815260200160002060008473ffffffffffffffffffffffffffffffffffffffff1673ffffffffffffffffffffffffffffffffffffffff16815260200190815260200160002060006101000a81548160ff0219169083151502179055508173ffffffffffffffffffffffffffffffffffffffff168373ffffffffffffffffffffffffffffffffffffffff167f17307eab39ab6107e8899845ad3d59bd9653f200f220920489ca2b5937696c3183604051611beb91906136c7565b60405180910390a3505050565b6000611c08600d54600e546122ec565b9050336005600083815260200190815260200160002060006101000a81548173ffffffffffffffffffffffffffffffffffffffff021916908373ffffffffffffffffffffffffffffffffffffffff1602179055506001600660006005600085815260200190815260200160002060009054906101000a900473ffffffffffffffffffffffffffffffffffffffff1673ffffffffffffffffffffffffffffffffffffffff1673ffffffffffffffffffffffffffffffffffffffff16815260200190815260200160002060006101000a81548160ff02191690836002811115611cf257611cf1613e35565b5b02179055507fe5f5b44d72d4143c278eb745c4acc0695c4a5bc616be5beecf46abe29661780e81604051611d2691906136e2565b60405180910390a150565b600073ffffffffffffffffffffffffffffffffffffffff168473ffffffffffffffffffffffffffffffffffffffff161415611da1576040517f08c379a0000000000000000000000000000000000000000000000000000000008152600401611d9890613863565b60405180910390fd5b6000611dab6114f2565b9050611dcb818787611dbc8861244b565b611dc58861244b565b87611fb6565b60006002600086815260200190815260200160002060008873ffffffffffffffffffffffffffffffffffffffff1673ffffffffffffffffffffffffffffffffffffffff16815260200190815260200160002054905083811015611e63576040517f08c379a0000000000000000000000000000000000000000000000000000000008152600401611e5a906138c3565b60405180910390fd5b8381036002600087815260200190815260200160002060008973ffffffffffffffffffffffffffffffffffffffff1673ffffffffffffffffffffffffffffffffffffffff16815260200190815260200160002081905550836002600087815260200190815260200160002060008873ffffffffffffffffffffffffffffffffffffffff1673ffffffffffffffffffffffffffffffffffffffff1681526020019081526020016000206000828254611f1a9190613b86565b925050819055508573ffffffffffffffffffffffffffffffffffffffff168773ffffffffffffffffffffffffffffffffffffffff168373ffffffffffffffffffffffffffffffffffffffff167fc3d58168c5ae7397731d063d5bbf3d657854427343f4c083240f7aacaa2d0f628888604051611f97929190613a3e565b60405180910390a4611fad8288888888886124c5565b50505050505050565b505050505050565b611fdd8473ffffffffffffffffffffffffffffffffffffffff166126ac565b1561219d578373ffffffffffffffffffffffffffffffffffffffff1663bc197c8187878686866040518663ffffffff1660e01b815260040161202395949392919061350e565b602060405180830381600087803b15801561203d57600080fd5b505af192505050801561206e57506040513d601f19601f8201168201806040525081019061206b9190613028565b60015b6121145761207a613ef1565b806308c379a014156120d7575061208f614443565b8061209a57506120d9565b806040517f08c379a00000000000000000000000000000000000000000000000000000000081526004016120ce91906137a1565b60405180910390fd5b505b6040517f08c379a000000000000000000000000000000000000000000000000000000000815260040161210b906137c3565b60405180910390fd5b63bc197c8160e01b7bffffffffffffffffffffffffffffffffffffffffffffffffffffffff1916817bffffffffffffffffffffffffffffffffffffffffffffffffffffffff19161461219b576040517f08c379a0000000000000000000000000000000000000000000000000000000008152600401612192906137e3565b60405180910390fd5b505b505050505050565b6000821180156121b6575060288211155b156121cb576121c66004826126bf565b612263565b6028821180156121dc575060418211155b156121f1576121ec6003826126bf565b612262565b604182118015612202575060558211155b15612217576122126002826126bf565b612261565b6055821180156122285750605f8211155b1561223d576122386001826126bf565b612260565b605f8211801561224e575060648211155b1561225f5761225e6000826126bf565b5b5b5b5b5b5050565b600081118015612278575060288111155b15612282576122e9565b602881118015612293575060418111155b1561229d576122e8565b6041811180156122ae575060558111155b156122b8576122e7565b6055811180156122c95750605f8111155b156122d3576122e6565b605f811180156122e4575060648111155b505b5b5b5b50565b60007f000000000000000000000000000000000000000000000000000000000000000073ffffffffffffffffffffffffffffffffffffffff16634000aea07f0000000000000000000000000000000000000000000000000000000000000000848660006040516020016123609291906136fd565b6040516020818303038152906040526040518463ffffffff1660e01b815260040161238d93929190613630565b602060405180830381600087803b1580156123a757600080fd5b505af11580156123bb573d6000803e3d6000fd5b505050506040513d601f19601f820116820180604052508101906123df9190612f8e565b5060006124018460003060008089815260200190815260200160002054612869565b90506001600080868152602001908152602001600020546124229190613b86565b6000808681526020019081526020016000208190555061244284826128a5565b91505092915050565b60606000600167ffffffffffffffff81111561246a57612469613ec2565b5b6040519080825280602002602001820160405280156124985781602001602082028036833780820191505090505b50905082816000815181106124b0576124af613e93565b5b60200260200101818152505080915050919050565b6124e48473ffffffffffffffffffffffffffffffffffffffff166126ac565b156126a4578373ffffffffffffffffffffffffffffffffffffffff1663f23a6e6187878686866040518663ffffffff1660e01b815260040161252a9594939291906135ad565b602060405180830381600087803b15801561254457600080fd5b505af192505050801561257557506040513d601f19601f820116820180604052508101906125729190613028565b60015b61261b57612581613ef1565b806308c379a014156125de5750612596614443565b806125a157506125e0565b806040517f08c379a00000000000000000000000000000000000000000000000000000000081526004016125d591906137a1565b60405180910390fd5b505b6040517f08c379a0000000000000000000000000000000000000000000000000000000008152600401612612906137c3565b60405180910390fd5b63f23a6e6160e01b7bffffffffffffffffffffffffffffffffffffffffffffffffffffffff1916817bffffffffffffffffffffffffffffffffffffffffffffffffffffffff1916146126a2576040517f08c379a0000000000000000000000000000000000000000000000000000000008152600401612699906137e3565b60405180910390fd5b505b505050505050565b600080823b905060008111915050919050565b61270e6005600083815260200190815260200160002060009054906101000a900473ffffffffffffffffffffffffffffffffffffffff16836001604051806020016040528060008152506128d8565b6002600660006005600085815260200190815260200160002060009054906101000a900473ffffffffffffffffffffffffffffffffffffffff1673ffffffffffffffffffffffffffffffffffffffff1673ffffffffffffffffffffffffffffffffffffffff16815260200190815260200160002060006101000a81548160ff021916908360028111156127a4576127a3613e35565b5b02179055506001600960008282546127bc9190613b86565b925050819055507fa34e6b78e9a990f62e47ba1c3993ff82d0d748e22617d46c5a79c7b86d10e19b6005600083815260200190815260200160002060009054906101000a900473ffffffffffffffffffffffffffffffffffffffff1683604051612827929190613607565b60405180910390a16005600082815260200190815260200160002060006101000a81549073ffffffffffffffffffffffffffffffffffffffff02191690555050565b6000848484846040516020016128829493929190613726565b6040516020818303038152906040528051906020012060001c9050949350505050565b600082826040516020016128ba9291906134c7565b60405160208183030381529060405280519060200120905092915050565b600073ffffffffffffffffffffffffffffffffffffffff168473ffffffffffffffffffffffffffffffffffffffff161415612948576040517f08c379a000000000000000000000000000000000000000000000000000000000815260040161293f906139e3565b60405180910390fd5b60006129526114f2565b9050612973816000876129648861244b565b61296d8861244b565b87611fb6565b826002600086815260200190815260200160002060008773ffffffffffffffffffffffffffffffffffffffff1673ffffffffffffffffffffffffffffffffffffffff16815260200190815260200160002060008282546129d39190613b86565b925050819055508473ffffffffffffffffffffffffffffffffffffffff16600073ffffffffffffffffffffffffffffffffffffffff168273ffffffffffffffffffffffffffffffffffffffff167fc3d58168c5ae7397731d063d5bbf3d657854427343f4c083240f7aacaa2d0f628787604051612a51929190613a3e565b60405180910390a4612a68816000878787876124c5565b5050505050565b6000612a82612a7d84613a8c565b613a67565b90508083825260208201905082856020860282011115612aa557612aa4613f18565b5b60005b85811015612ad55781612abb8882612b91565b845260208401935060208301925050600181019050612aa8565b5050509392505050565b6000612af2612aed84613ab8565b613a67565b90508083825260208201905082856020860282011115612b1557612b14613f18565b5b60005b85811015612b455781612b2b8882612c99565b845260208401935060208301925050600181019050612b18565b5050509392505050565b6000612b62612b5d84613ae4565b613a67565b905082815260208101848484011115612b7e57612b7d613f1d565b5b612b89848285613ca4565b509392505050565b600081359050612ba081614501565b92915050565b600082601f830112612bbb57612bba613f13565b5b8135612bcb848260208601612a6f565b91505092915050565b600082601f830112612be957612be8613f13565b5b8135612bf9848260208601612adf565b91505092915050565b600081359050612c1181614518565b92915050565b600081519050612c2681614518565b92915050565b600081359050612c3b8161452f565b92915050565b600081359050612c5081614546565b92915050565b600081519050612c6581614546565b92915050565b600082601f830112612c8057612c7f613f13565b5b8135612c90848260208601612b4f565b91505092915050565b600081359050612ca88161455d565b92915050565b600081519050612cbd8161455d565b92915050565b600060208284031215612cd957612cd8613f27565b5b6000612ce784828501612b91565b91505092915050565b60008060408385031215612d0757612d06613f27565b5b6000612d1585828601612b91565b9250506020612d2685828601612b91565b9150509250929050565b600080600080600060a08688031215612d4c57612d4b613f27565b5b6000612d5a88828901612b91565b9550506020612d6b88828901612b91565b945050604086013567ffffffffffffffff811115612d8c57612d8b613f22565b5b612d9888828901612bd4565b935050606086013567ffffffffffffffff811115612db957612db8613f22565b5b612dc588828901612bd4565b925050608086013567ffffffffffffffff811115612de657612de5613f22565b5b612df288828901612c6b565b9150509295509295909350565b600080600080600060a08688031215612e1b57612e1a613f27565b5b6000612e2988828901612b91565b9550506020612e3a88828901612b91565b9450506040612e4b88828901612c99565b9350506060612e5c88828901612c99565b925050608086013567ffffffffffffffff811115612e7d57612e7c613f22565b5b612e8988828901612c6b565b9150509295509295909350565b60008060408385031215612ead57612eac613f27565b5b6000612ebb85828601612b91565b9250506020612ecc85828601612c02565b9150509250929050565b60008060408385031215612eed57612eec613f27565b5b6000612efb85828601612b91565b9250506020612f0c85828601612c99565b9150509250929050565b60008060408385031215612f2d57612f2c613f27565b5b600083013567ffffffffffffffff811115612f4b57612f4a613f22565b5b612f5785828601612ba6565b925050602083013567ffffffffffffffff811115612f7857612f77613f22565b5b612f8485828601612bd4565b9150509250929050565b600060208284031215612fa457612fa3613f27565b5b6000612fb284828501612c17565b91505092915050565b60008060408385031215612fd257612fd1613f27565b5b6000612fe085828601612c2c565b9250506020612ff185828601612c99565b9150509250929050565b60006020828403121561301157613010613f27565b5b600061301f84828501612c41565b91505092915050565b60006020828403121561303e5761303d613f27565b5b600061304c84828501612c56565b91505092915050565b60006020828403121561306b5761306a613f27565b5b600061307984828501612c99565b91505092915050565b60006020828403121561309857613097613f27565b5b60006130a684828501612cae565b91505092915050565b60006130bb8383613492565b60208301905092915050565b6130d081613bdc565b82525050565b60006130e182613b25565b6130eb8185613b53565b93506130f683613b15565b8060005b8381101561312757815161310e88826130af565b975061311983613b46565b9250506001810190506130fa565b5085935050505092915050565b61313d81613bee565b82525050565b61314c81613bfa565b82525050565b61316361315e82613bfa565b613d92565b82525050565b600061317482613b30565b61317e8185613b64565b935061318e818560208601613cb3565b61319781613f2c565b840191505092915050565b6131ab81613c80565b82525050565b6131ba81613c92565b82525050565b60006131cb82613b3b565b6131d58185613b75565b93506131e5818560208601613cb3565b6131ee81613f2c565b840191505092915050565b6000613206603483613b75565b915061321182613f4a565b604082019050919050565b6000613229602883613b75565b915061323482613f99565b604082019050919050565b600061324c602b83613b75565b915061325782613fe8565b604082019050919050565b600061326f602683613b75565b915061327a82614037565b604082019050919050565b6000613292602983613b75565b915061329d82614086565b604082019050919050565b60006132b5602583613b75565b91506132c0826140d5565b604082019050919050565b60006132d8603283613b75565b91506132e382614124565b604082019050919050565b60006132fb601c83613b75565b915061330682614173565b602082019050919050565b600061331e602a83613b75565b91506133298261419c565b604082019050919050565b6000613341602083613b75565b915061334c826141eb565b602082019050919050565b6000613364601f83613b75565b915061336f82614214565b602082019050919050565b6000613387601a83613b75565b91506133928261423d565b602082019050919050565b60006133aa602183613b75565b91506133b582614266565b604082019050919050565b60006133cd601883613b75565b91506133d8826142b5565b602082019050919050565b60006133f0602983613b75565b91506133fb826142de565b604082019050919050565b6000613413602983613b75565b915061341e8261432d565b604082019050919050565b6000613436602883613b75565b91506134418261437c565b604082019050919050565b6000613459602183613b75565b9150613464826143cb565b604082019050919050565b600061347c601683613b75565b91506134878261441a565b602082019050919050565b61349b81613c76565b82525050565b6134aa81613c76565b82525050565b6134c16134bc82613c76565b613d9c565b82525050565b60006134d38285613152565b6020820191506134e382846134b0565b6020820191508190509392505050565b600060208201905061350860008301846130c7565b92915050565b600060a08201905061352360008301886130c7565b61353060208301876130c7565b818103604083015261354281866130d6565b9050818103606083015261355681856130d6565b9050818103608083015261356a8184613169565b90509695505050505050565b600060608201905061358b60008301866130c7565b61359860208301856130c7565b6135a560408301846134a1565b949350505050565b600060a0820190506135c260008301886130c7565b6135cf60208301876130c7565b6135dc60408301866134a1565b6135e960608301856134a1565b81810360808301526135fb8184613169565b90509695505050505050565b600060408201905061361c60008301856130c7565b61362960208301846134a1565b9392505050565b600060608201905061364560008301866130c7565b61365260208301856134a1565b81810360408301526136648184613169565b9050949350505050565b6000602082019050818103600083015261368881846130d6565b905092915050565b600060408201905081810360008301526136aa81856130d6565b905081810360208301526136be81846130d6565b90509392505050565b60006020820190506136dc6000830184613134565b92915050565b60006020820190506136f76000830184613143565b92915050565b60006040820190506137126000830185613143565b61371f60208301846134a1565b9392505050565b600060808201905061373b6000830187613143565b61374860208301866134a1565b61375560408301856130c7565b61376260608301846134a1565b95945050505050565b600060208201905061378060008301846131a2565b92915050565b600060208201905061379b60008301846131b1565b92915050565b600060208201905081810360008301526137bb81846131c0565b905092915050565b600060208201905081810360008301526137dc816131f9565b9050919050565b600060208201905081810360008301526137fc8161321c565b9050919050565b6000602082019050818103600083015261381c8161323f565b9050919050565b6000602082019050818103600083015261383c81613262565b9050919050565b6000602082019050818103600083015261385c81613285565b9050919050565b6000602082019050818103600083015261387c816132a8565b9050919050565b6000602082019050818103600083015261389c816132cb565b9050919050565b600060208201905081810360008301526138bc816132ee565b9050919050565b600060208201905081810360008301526138dc81613311565b9050919050565b600060208201905081810360008301526138fc81613334565b9050919050565b6000602082019050818103600083015261391c81613357565b9050919050565b6000602082019050818103600083015261393c8161337a565b9050919050565b6000602082019050818103600083015261395c8161339d565b9050919050565b6000602082019050818103600083015261397c816133c0565b9050919050565b6000602082019050818103600083015261399c816133e3565b9050919050565b600060208201905081810360008301526139bc81613406565b9050919050565b600060208201905081810360008301526139dc81613429565b9050919050565b600060208201905081810360008301526139fc8161344c565b9050919050565b60006020820190508181036000830152613a1c8161346f565b9050919050565b6000602082019050613a3860008301846134a1565b92915050565b6000604082019050613a5360008301856134a1565b613a6060208301846134a1565b9392505050565b6000613a71613a82565b9050613a7d8282613d18565b919050565b6000604051905090565b600067ffffffffffffffff821115613aa757613aa6613ec2565b5b602082029050602081019050919050565b600067ffffffffffffffff821115613ad357613ad2613ec2565b5b602082029050602081019050919050565b600067ffffffffffffffff821115613aff57613afe613ec2565b5b613b0882613f2c565b9050602081019050919050565b6000819050602082019050919050565b600081519050919050565b600081519050919050565b600081519050919050565b6000602082019050919050565b600082825260208201905092915050565b600082825260208201905092915050565b600082825260208201905092915050565b6000613b9182613c76565b9150613b9c83613c76565b9250827fffffffffffffffffffffffffffffffffffffffffffffffffffffffffffffffff03821115613bd157613bd0613dd7565b5b828201905092915050565b6000613be782613c56565b9050919050565b60008115159050919050565b6000819050919050565b60007fffffffff0000000000000000000000000000000000000000000000000000000082169050919050565b6000819050613c3e826144d9565b919050565b6000819050613c51826144ed565b919050565b600073ffffffffffffffffffffffffffffffffffffffff82169050919050565b6000819050919050565b6000613c8b82613c30565b9050919050565b6000613c9d82613c43565b9050919050565b82818337600083830152505050565b60005b83811015613cd1578082015181840152602081019050613cb6565b83811115613ce0576000848401525b50505050565b60006002820490506001821680613cfe57607f821691505b60208210811415613d1257613d11613e64565b5b50919050565b613d2182613f2c565b810181811067ffffffffffffffff82111715613d4057613d3f613ec2565b5b80604052505050565b6000613d5482613c76565b91507fffffffffffffffffffffffffffffffffffffffffffffffffffffffffffffffff821415613d8757613d86613dd7565b5b600182019050919050565b6000819050919050565b6000819050919050565b6000613db182613c76565b9150613dbc83613c76565b925082613dcc57613dcb613e06565b5b828206905092915050565b7f4e487b7100000000000000000000000000000000000000000000000000000000600052601160045260246000fd5b7f4e487b7100000000000000000000000000000000000000000000000000000000600052601260045260246000fd5b7f4e487b7100000000000000000000000000000000000000000000000000000000600052602160045260246000fd5b7f4e487b7100000000000000000000000000000000000000000000000000000000600052602260045260246000fd5b7f4e487b7100000000000000000000000000000000000000000000000000000000600052603260045260246000fd5b7f4e487b7100000000000000000000000000000000000000000000000000000000600052604160045260246000fd5b600060033d1115613f105760046000803e613f0d600051613f3d565b90505b90565b600080fd5b600080fd5b600080fd5b600080fd5b600080fd5b6000601f19601f8301169050919050565b60008160e01c9050919050565b7f455243313135353a207472616e7366657220746f206e6f6e204552433131353560008201527f526563656976657220696d706c656d656e746572000000000000000000000000602082015250565b7f455243313135353a204552433131353552656365697665722072656a6563746560008201527f6420746f6b656e73000000000000000000000000000000000000000000000000602082015250565b7f455243313135353a2062616c616e636520717565727920666f7220746865207a60008201527f65726f2061646472657373000000000000000000000000000000000000000000602082015250565b7f4f776e61626c653a206e6577206f776e657220697320746865207a65726f206160008201527f6464726573730000000000000000000000000000000000000000000000000000602082015250565b7f455243313135353a2063616c6c6572206973206e6f74206f776e6572206e6f7260008201527f20617070726f7665640000000000000000000000000000000000000000000000602082015250565b7f455243313135353a207472616e7366657220746f20746865207a65726f20616460008201527f6472657373000000000000000000000000000000000000000000000000000000602082015250565b7f455243313135353a207472616e736665722063616c6c6572206973206e6f742060008201527f6f776e6572206e6f7220617070726f7665640000000000000000000000000000602082015250565b7f4164647265737320616c7265616479206861732061207469636b657400000000600082015250565b7f455243313135353a20696e73756666696369656e742062616c616e636520666f60008201527f72207472616e7366657200000000000000000000000000000000000000000000602082015250565b7f4f776e61626c653a2063616c6c6572206973206e6f7420746865206f776e6572600082015250565b7f4f6e6c7920565246436f6f7264696e61746f722063616e2066756c66696c6c00600082015250565b7f5469636b65742069732063757272656e746c79206d696e746564000000000000600082015250565b7f4164647265737320646f6573206e6f74206f776e2076616c6964207469636b6560008201527f7400000000000000000000000000000000000000000000000000000000000000602082015250565b7f46756e647320617265206e6f742073756666696369656e740000000000000000600082015250565b7f455243313135353a2073657474696e6720617070726f76616c2073746174757360008201527f20666f722073656c660000000000000000000000000000000000000000000000602082015250565b7f455243313135353a206163636f756e747320616e6420696473206c656e67746860008201527f206d69736d617463680000000000000000000000000000000000000000000000602082015250565b7f455243313135353a2069647320616e6420616d6f756e7473206c656e6774682060008201527f6d69736d61746368000000000000000000000000000000000000000000000000602082015250565b7f455243313135353a206d696e7420746f20746865207a65726f2061646472657360008201527f7300000000000000000000000000000000000000000000000000000000000000602082015250565b7f53656e646572206e6f742077686974656c697374656400000000000000000000600082015250565b600060443d1015614453576144d6565b61445b613a82565b60043d036004823e80513d602482011167ffffffffffffffff821117156144835750506144d6565b808201805167ffffffffffffffff8111156144a157505050506144d6565b80602083010160043d0385018111156144be5750505050506144d6565b6144cd82602001850186613d18565b82955050505050505b90565b600281106144ea576144e9613e35565b5b50565b600481106144fe576144fd613e35565b5b50565b61450a81613bdc565b811461451557600080fd5b50565b61452181613bee565b811461452c57600080fd5b50565b61453881613bfa565b811461454357600080fd5b50565b61454f81613c04565b811461455a57600080fd5b50565b61456681613c76565b811461457157600080fd5b5056fea26469706673582212207c47d6da0efcdab833da4cd468f2b64612ff5e27a93c1cedd3814900a5ecffe064736f6c6343000807003368747470733a2f2f676174657761792e70696e6174612e636c6f75642f697066732f516d544e333271424b59716e7976617471666e5538726136635955474e7870597a69536464436174456d6f704c522f6d657461646174612f6170692f6974656d2f7b69647d2e6a736f6e",
			"opcodes": "PUSH1 0xC0 PUSH1 0x40 MSTORE PUSH1 0x1 PUSH1 0xB SSTORE PUSH3 0x186A0 PUSH1 0xC SSTORE PUSH7 0x2386F26FC10000 PUSH1 0xF SSTORE PUSH1 0x1 PUSH1 0x10 PUSH1 0x0 PUSH2 0x100 EXP DUP2 SLOAD DUP2 PUSH1 0xFF MUL NOT AND SWAP1 DUP4 PUSH1 0x3 DUP2 GT ISZERO PUSH3 0x44 JUMPI PUSH3 0x43 PUSH3 0x3CF JUMP JUMPDEST JUMPDEST MUL OR SWAP1 SSTORE POP PUSH1 0x0 PUSH1 0x10 PUSH1 0x1 PUSH2 0x100 EXP DUP2 SLOAD DUP2 PUSH1 0xFF MUL NOT AND SWAP1 DUP4 PUSH1 0x1 DUP2 GT ISZERO PUSH3 0x72 JUMPI PUSH3 0x71 PUSH3 0x3CF JUMP JUMPDEST JUMPDEST MUL OR SWAP1 SSTORE POP CALLVALUE DUP1 ISZERO PUSH3 0x84 JUMPI PUSH1 0x0 DUP1 REVERT JUMPDEST POP PUSH1 0x40 MLOAD DUP1 PUSH1 0xA0 ADD PUSH1 0x40 MSTORE DUP1 PUSH1 0x6C DUP2 MSTORE PUSH1 0x20 ADD PUSH3 0x4A0A PUSH1 0x6C SWAP2 CODECOPY PUSH20 0x8C7382F9D8F56B33781FE506E897A4F1E2D17255 PUSH20 0x326C977E6EFC84E512BB9C30F76E30C160ED06FB DUP2 PUSH20 0xFFFFFFFFFFFFFFFFFFFFFFFFFFFFFFFFFFFFFFFF AND PUSH1 0xA0 DUP2 PUSH20 0xFFFFFFFFFFFFFFFFFFFFFFFFFFFFFFFFFFFFFFFF AND PUSH1 0x60 SHL DUP2 MSTORE POP POP DUP1 PUSH20 0xFFFFFFFFFFFFFFFFFFFFFFFFFFFFFFFFFFFFFFFF AND PUSH1 0x80 DUP2 PUSH20 0xFFFFFFFFFFFFFFFFFFFFFFFFFFFFFFFFFFFFFFFF AND PUSH1 0x60 SHL DUP2 MSTORE POP POP POP POP PUSH3 0x159 PUSH3 0x14D PUSH3 0x1FF PUSH1 0x20 SHL PUSH1 0x20 SHR JUMP JUMPDEST PUSH3 0x207 PUSH1 0x20 SHL PUSH1 0x20 SHR JUMP JUMPDEST PUSH3 0x16A DUP2 PUSH3 0x2CD PUSH1 0x20 SHL PUSH1 0x20 SHR JUMP JUMPDEST POP PUSH32 0x6E75B569A01EF56D18CAB6A8E71E6600D6CE853834D4A5748B720D06F878B3A4 PUSH1 0x0 SHL PUSH1 0xD DUP2 SWAP1 SSTORE POP PUSH8 0x16345785D8A0000 PUSH1 0xE DUP2 SWAP1 SSTORE POP PUSH20 0x3C68CE8504087F89C640D02D133646D98E64DDD9 PUSH1 0x8 PUSH1 0x0 PUSH2 0x100 EXP DUP2 SLOAD DUP2 PUSH20 0xFFFFFFFFFFFFFFFFFFFFFFFFFFFFFFFFFFFFFFFF MUL NOT AND SWAP1 DUP4 PUSH20 0xFFFFFFFFFFFFFFFFFFFFFFFFFFFFFFFFFFFFFFFF AND MUL OR SWAP1 SSTORE POP PUSH3 0x42D JUMP JUMPDEST PUSH1 0x0 CALLER SWAP1 POP SWAP1 JUMP JUMPDEST PUSH1 0x0 PUSH1 0x1 PUSH1 0x0 SWAP1 SLOAD SWAP1 PUSH2 0x100 EXP SWAP1 DIV PUSH20 0xFFFFFFFFFFFFFFFFFFFFFFFFFFFFFFFFFFFFFFFF AND SWAP1 POP DUP2 PUSH1 0x1 PUSH1 0x0 PUSH2 0x100 EXP DUP2 SLOAD DUP2 PUSH20 0xFFFFFFFFFFFFFFFFFFFFFFFFFFFFFFFFFFFFFFFF MUL NOT AND SWAP1 DUP4 PUSH20 0xFFFFFFFFFFFFFFFFFFFFFFFFFFFFFFFFFFFFFFFF AND MUL OR SWAP1 SSTORE POP DUP2 PUSH20 0xFFFFFFFFFFFFFFFFFFFFFFFFFFFFFFFFFFFFFFFF AND DUP2 PUSH20 0xFFFFFFFFFFFFFFFFFFFFFFFFFFFFFFFFFFFFFFFF AND PUSH32 0x8BE0079C531659141344CD1FD0A4F28419497F9722A3DAAFE3B4186F6B6457E0 PUSH1 0x40 MLOAD PUSH1 0x40 MLOAD DUP1 SWAP2 SUB SWAP1 LOG3 POP POP JUMP JUMPDEST DUP1 PUSH1 0x4 SWAP1 DUP1 MLOAD SWAP1 PUSH1 0x20 ADD SWAP1 PUSH3 0x2E5 SWAP3 SWAP2 SWAP1 PUSH3 0x2E9 JUMP JUMPDEST POP POP JUMP JUMPDEST DUP3 DUP1 SLOAD PUSH3 0x2F7 SWAP1 PUSH3 0x399 JUMP JUMPDEST SWAP1 PUSH1 0x0 MSTORE PUSH1 0x20 PUSH1 0x0 KECCAK256 SWAP1 PUSH1 0x1F ADD PUSH1 0x20 SWAP1 DIV DUP2 ADD SWAP3 DUP3 PUSH3 0x31B JUMPI PUSH1 0x0 DUP6 SSTORE PUSH3 0x367 JUMP JUMPDEST DUP3 PUSH1 0x1F LT PUSH3 0x336 JUMPI DUP1 MLOAD PUSH1 0xFF NOT AND DUP4 DUP1 ADD OR DUP6 SSTORE PUSH3 0x367 JUMP JUMPDEST DUP3 DUP1 ADD PUSH1 0x1 ADD DUP6 SSTORE DUP3 ISZERO PUSH3 0x367 JUMPI SWAP2 DUP3 ADD JUMPDEST DUP3 DUP2 GT ISZERO PUSH3 0x366 JUMPI DUP3 MLOAD DUP3 SSTORE SWAP2 PUSH1 0x20 ADD SWAP2 SWAP1 PUSH1 0x1 ADD SWAP1 PUSH3 0x349 JUMP JUMPDEST JUMPDEST POP SWAP1 POP PUSH3 0x376 SWAP2 SWAP1 PUSH3 0x37A JUMP JUMPDEST POP SWAP1 JUMP JUMPDEST JUMPDEST DUP1 DUP3 GT ISZERO PUSH3 0x395 JUMPI PUSH1 0x0 DUP2 PUSH1 0x0 SWAP1 SSTORE POP PUSH1 0x1 ADD PUSH3 0x37B JUMP JUMPDEST POP SWAP1 JUMP JUMPDEST PUSH1 0x0 PUSH1 0x2 DUP3 DIV SWAP1 POP PUSH1 0x1 DUP3 AND DUP1 PUSH3 0x3B2 JUMPI PUSH1 0x7F DUP3 AND SWAP2 POP JUMPDEST PUSH1 0x20 DUP3 LT DUP2 EQ ISZERO PUSH3 0x3C9 JUMPI PUSH3 0x3C8 PUSH3 0x3FE JUMP JUMPDEST JUMPDEST POP SWAP2 SWAP1 POP JUMP JUMPDEST PUSH32 0x4E487B7100000000000000000000000000000000000000000000000000000000 PUSH1 0x0 MSTORE PUSH1 0x21 PUSH1 0x4 MSTORE PUSH1 0x24 PUSH1 0x0 REVERT JUMPDEST PUSH32 0x4E487B7100000000000000000000000000000000000000000000000000000000 PUSH1 0x0 MSTORE PUSH1 0x22 PUSH1 0x4 MSTORE PUSH1 0x24 PUSH1 0x0 REVERT JUMPDEST PUSH1 0x80 MLOAD PUSH1 0x60 SHR PUSH1 0xA0 MLOAD PUSH1 0x60 SHR PUSH2 0x45AA PUSH3 0x460 PUSH1 0x0 CODECOPY PUSH1 0x0 DUP2 DUP2 PUSH2 0xCDD ADD MSTORE PUSH2 0x232C ADD MSTORE PUSH1 0x0 PUSH2 0x22F0 ADD MSTORE PUSH2 0x45AA PUSH1 0x0 RETURN INVALID PUSH1 0x80 PUSH1 0x40 MSTORE PUSH1 0x4 CALLDATASIZE LT PUSH2 0x13E JUMPI PUSH1 0x0 CALLDATALOAD PUSH1 0xE0 SHR DUP1 PUSH4 0x715018A6 GT PUSH2 0xB6 JUMPI DUP1 PUSH4 0xA4AF2F0E GT PUSH2 0x6F JUMPI DUP1 PUSH4 0xA4AF2F0E EQ PUSH2 0x427 JUMPI DUP1 PUSH4 0xE43252D7 EQ PUSH2 0x452 JUMPI DUP1 PUSH4 0xE97DCB62 EQ PUSH2 0x47B JUMPI DUP1 PUSH4 0xE985E9C5 EQ PUSH2 0x485 JUMPI DUP1 PUSH4 0xF242432A EQ PUSH2 0x4C2 JUMPI DUP1 PUSH4 0xF2FDE38B EQ PUSH2 0x4EB JUMPI PUSH2 0x13E JUMP JUMPDEST DUP1 PUSH4 0x715018A6 EQ PUSH2 0x33F JUMPI DUP1 PUSH4 0x89F3BEB6 EQ PUSH2 0x356 JUMPI DUP1 PUSH4 0x8AB1D681 EQ PUSH2 0x381 JUMPI DUP1 PUSH4 0x8DA5CB5B EQ PUSH2 0x3AA JUMPI DUP1 PUSH4 0x94985DDD EQ PUSH2 0x3D5 JUMPI DUP1 PUSH4 0xA22CB465 EQ PUSH2 0x3FE JUMPI PUSH2 0x13E JUMP JUMPDEST DUP1 PUSH4 0x4E1273F4 GT PUSH2 0x108 JUMPI DUP1 PUSH4 0x4E1273F4 EQ PUSH2 0x24E JUMPI DUP1 PUSH4 0x60496348 EQ PUSH2 0x28B JUMPI DUP1 PUSH4 0x60B2A56A EQ PUSH2 0x2A2 JUMPI DUP1 PUSH4 0x630A46C3 EQ PUSH2 0x2BE JUMPI DUP1 PUSH4 0x6939864B EQ PUSH2 0x2E9 JUMPI DUP1 PUSH4 0x6F9FB98A EQ PUSH2 0x314 JUMPI PUSH2 0x13E JUMP JUMPDEST DUP1 PUSH3 0xCBB73B EQ PUSH2 0x143 JUMPI DUP1 PUSH3 0xFDD58E EQ PUSH2 0x16E JUMPI DUP1 PUSH4 0x1FFC9A7 EQ PUSH2 0x1AB JUMPI DUP1 PUSH4 0xE89341C EQ PUSH2 0x1E8 JUMPI DUP1 PUSH4 0x2EB2C2D6 EQ PUSH2 0x225 JUMPI JUMPDEST PUSH1 0x0 DUP1 REVERT JUMPDEST CALLVALUE DUP1 ISZERO PUSH2 0x14F JUMPI PUSH1 0x0 DUP1 REVERT JUMPDEST POP PUSH2 0x158 PUSH2 0x514 JUMP JUMPDEST PUSH1 0x40 MLOAD PUSH2 0x165 SWAP2 SWAP1 PUSH2 0x3A23 JUMP JUMPDEST PUSH1 0x40 MLOAD DUP1 SWAP2 SUB SWAP1 RETURN JUMPDEST CALLVALUE DUP1 ISZERO PUSH2 0x17A JUMPI PUSH1 0x0 DUP1 REVERT JUMPDEST POP PUSH2 0x195 PUSH1 0x4 DUP1 CALLDATASIZE SUB DUP2 ADD SWAP1 PUSH2 0x190 SWAP2 SWAP1 PUSH2 0x2ED6 JUMP JUMPDEST PUSH2 0x5C6 JUMP JUMPDEST PUSH1 0x40 MLOAD PUSH2 0x1A2 SWAP2 SWAP1 PUSH2 0x3A23 JUMP JUMPDEST PUSH1 0x40 MLOAD DUP1 SWAP2 SUB SWAP1 RETURN JUMPDEST CALLVALUE DUP1 ISZERO PUSH2 0x1B7 JUMPI PUSH1 0x0 DUP1 REVERT JUMPDEST POP PUSH2 0x1D2 PUSH1 0x4 DUP1 CALLDATASIZE SUB DUP2 ADD SWAP1 PUSH2 0x1CD SWAP2 SWAP1 PUSH2 0x2FFB JUMP JUMPDEST PUSH2 0x690 JUMP JUMPDEST PUSH1 0x40 MLOAD PUSH2 0x1DF SWAP2 SWAP1 PUSH2 0x36C7 JUMP JUMPDEST PUSH1 0x40 MLOAD DUP1 SWAP2 SUB SWAP1 RETURN JUMPDEST CALLVALUE DUP1 ISZERO PUSH2 0x1F4 JUMPI PUSH1 0x0 DUP1 REVERT JUMPDEST POP PUSH2 0x20F PUSH1 0x4 DUP1 CALLDATASIZE SUB DUP2 ADD SWAP1 PUSH2 0x20A SWAP2 SWAP1 PUSH2 0x3055 JUMP JUMPDEST PUSH2 0x772 JUMP JUMPDEST PUSH1 0x40 MLOAD PUSH2 0x21C SWAP2 SWAP1 PUSH2 0x37A1 JUMP JUMPDEST PUSH1 0x40 MLOAD DUP1 SWAP2 SUB SWAP1 RETURN JUMPDEST CALLVALUE DUP1 ISZERO PUSH2 0x231 JUMPI PUSH1 0x0 DUP1 REVERT JUMPDEST POP PUSH2 0x24C PUSH1 0x4 DUP1 CALLDATASIZE SUB DUP2 ADD SWAP1 PUSH2 0x247 SWAP2 SWAP1 PUSH2 0x2D30 JUMP JUMPDEST PUSH2 0x806 JUMP JUMPDEST STOP JUMPDEST CALLVALUE DUP1 ISZERO PUSH2 0x25A JUMPI PUSH1 0x0 DUP1 REVERT JUMPDEST POP PUSH2 0x275 PUSH1 0x4 DUP1 CALLDATASIZE SUB DUP2 ADD SWAP1 PUSH2 0x270 SWAP2 SWAP1 PUSH2 0x2F16 JUMP JUMPDEST PUSH2 0x8A7 JUMP JUMPDEST PUSH1 0x40 MLOAD PUSH2 0x282 SWAP2 SWAP1 PUSH2 0x366E JUMP JUMPDEST PUSH1 0x40 MLOAD DUP1 SWAP2 SUB SWAP1 RETURN JUMPDEST CALLVALUE DUP1 ISZERO PUSH2 0x297 JUMPI PUSH1 0x0 DUP1 REVERT JUMPDEST POP PUSH2 0x2A0 PUSH2 0x9C0 JUMP JUMPDEST STOP JUMPDEST PUSH2 0x2BC PUSH1 0x4 DUP1 CALLDATASIZE SUB DUP2 ADD SWAP1 PUSH2 0x2B7 SWAP2 SWAP1 PUSH2 0x3055 JUMP JUMPDEST PUSH2 0xA69 JUMP JUMPDEST STOP JUMPDEST CALLVALUE DUP1 ISZERO PUSH2 0x2CA JUMPI PUSH1 0x0 DUP1 REVERT JUMPDEST POP PUSH2 0x2D3 PUSH2 0xB34 JUMP JUMPDEST PUSH1 0x40 MLOAD PUSH2 0x2E0 SWAP2 SWAP1 PUSH2 0x3A23 JUMP JUMPDEST PUSH1 0x40 MLOAD DUP1 SWAP2 SUB SWAP1 RETURN JUMPDEST CALLVALUE DUP1 ISZERO PUSH2 0x2F5 JUMPI PUSH1 0x0 DUP1 REVERT JUMPDEST POP PUSH2 0x2FE PUSH2 0xB3A JUMP JUMPDEST PUSH1 0x40 MLOAD PUSH2 0x30B SWAP2 SWAP1 PUSH2 0x3786 JUMP JUMPDEST PUSH1 0x40 MLOAD DUP1 SWAP2 SUB SWAP1 RETURN JUMPDEST CALLVALUE DUP1 ISZERO PUSH2 0x320 JUMPI PUSH1 0x0 DUP1 REVERT JUMPDEST POP PUSH2 0x329 PUSH2 0xB4D JUMP JUMPDEST PUSH1 0x40 MLOAD PUSH2 0x336 SWAP2 SWAP1 PUSH2 0x3A23 JUMP JUMPDEST PUSH1 0x40 MLOAD DUP1 SWAP2 SUB SWAP1 RETURN JUMPDEST CALLVALUE DUP1 ISZERO PUSH2 0x34B JUMPI PUSH1 0x0 DUP1 REVERT JUMPDEST POP PUSH2 0x354 PUSH2 0xB55 JUMP JUMPDEST STOP JUMPDEST CALLVALUE DUP1 ISZERO PUSH2 0x362 JUMPI PUSH1 0x0 DUP1 REVERT JUMPDEST POP PUSH2 0x36B PUSH2 0xBDD JUMP JUMPDEST PUSH1 0x40 MLOAD PUSH2 0x378 SWAP2 SWAP1 PUSH2 0x3A23 JUMP JUMPDEST PUSH1 0x40 MLOAD DUP1 SWAP2 SUB SWAP1 RETURN JUMPDEST CALLVALUE DUP1 ISZERO PUSH2 0x38D JUMPI PUSH1 0x0 DUP1 REVERT JUMPDEST POP PUSH2 0x3A8 PUSH1 0x4 DUP1 CALLDATASIZE SUB DUP2 ADD SWAP1 PUSH2 0x3A3 SWAP2 SWAP1 PUSH2 0x2CC3 JUMP JUMPDEST PUSH2 0xBE3 JUMP JUMPDEST STOP JUMPDEST CALLVALUE DUP1 ISZERO PUSH2 0x3B6 JUMPI PUSH1 0x0 DUP1 REVERT JUMPDEST POP PUSH2 0x3BF PUSH2 0xCB1 JUMP JUMPDEST PUSH1 0x40 MLOAD PUSH2 0x3CC SWAP2 SWAP1 PUSH2 0x34F3 JUMP JUMPDEST PUSH1 0x40 MLOAD DUP1 SWAP2 SUB SWAP1 RETURN JUMPDEST CALLVALUE DUP1 ISZERO PUSH2 0x3E1 JUMPI PUSH1 0x0 DUP1 REVERT JUMPDEST POP PUSH2 0x3FC PUSH1 0x4 DUP1 CALLDATASIZE SUB DUP2 ADD SWAP1 PUSH2 0x3F7 SWAP2 SWAP1 PUSH2 0x2FBB JUMP JUMPDEST PUSH2 0xCDB JUMP JUMPDEST STOP JUMPDEST CALLVALUE DUP1 ISZERO PUSH2 0x40A JUMPI PUSH1 0x0 DUP1 REVERT JUMPDEST POP PUSH2 0x425 PUSH1 0x4 DUP1 CALLDATASIZE SUB DUP2 ADD SWAP1 PUSH2 0x420 SWAP2 SWAP1 PUSH2 0x2E96 JUMP JUMPDEST PUSH2 0xD77 JUMP JUMPDEST STOP JUMPDEST CALLVALUE DUP1 ISZERO PUSH2 0x433 JUMPI PUSH1 0x0 DUP1 REVERT JUMPDEST POP PUSH2 0x43C PUSH2 0xD8D JUMP JUMPDEST PUSH1 0x40 MLOAD PUSH2 0x449 SWAP2 SWAP1 PUSH2 0x376B JUMP JUMPDEST PUSH1 0x40 MLOAD DUP1 SWAP2 SUB SWAP1 RETURN JUMPDEST CALLVALUE DUP1 ISZERO PUSH2 0x45E JUMPI PUSH1 0x0 DUP1 REVERT JUMPDEST POP PUSH2 0x479 PUSH1 0x4 DUP1 CALLDATASIZE SUB DUP2 ADD SWAP1 PUSH2 0x474 SWAP2 SWAP1 PUSH2 0x2CC3 JUMP JUMPDEST PUSH2 0xDA0 JUMP JUMPDEST STOP JUMPDEST PUSH2 0x483 PUSH2 0xE77 JUMP JUMPDEST STOP JUMPDEST CALLVALUE DUP1 ISZERO PUSH2 0x491 JUMPI PUSH1 0x0 DUP1 REVERT JUMPDEST POP PUSH2 0x4AC PUSH1 0x4 DUP1 CALLDATASIZE SUB DUP2 ADD SWAP1 PUSH2 0x4A7 SWAP2 SWAP1 PUSH2 0x2CF0 JUMP JUMPDEST PUSH2 0x125B JUMP JUMPDEST PUSH1 0x40 MLOAD PUSH2 0x4B9 SWAP2 SWAP1 PUSH2 0x36C7 JUMP JUMPDEST PUSH1 0x40 MLOAD DUP1 SWAP2 SUB SWAP1 RETURN JUMPDEST CALLVALUE DUP1 ISZERO PUSH2 0x4CE JUMPI PUSH1 0x0 DUP1 REVERT JUMPDEST POP PUSH2 0x4E9 PUSH1 0x4 DUP1 CALLDATASIZE SUB DUP2 ADD SWAP1 PUSH2 0x4E4 SWAP2 SWAP1 PUSH2 0x2DFF JUMP JUMPDEST PUSH2 0x12EF JUMP JUMPDEST STOP JUMPDEST CALLVALUE DUP1 ISZERO PUSH2 0x4F7 JUMPI PUSH1 0x0 DUP1 REVERT JUMPDEST POP PUSH2 0x512 PUSH1 0x4 DUP1 CALLDATASIZE SUB DUP2 ADD SWAP1 PUSH2 0x50D SWAP2 SWAP1 PUSH2 0x2CC3 JUMP JUMPDEST PUSH2 0x1390 JUMP JUMPDEST STOP JUMPDEST PUSH1 0x0 PUSH1 0x8 PUSH1 0x0 SWAP1 SLOAD SWAP1 PUSH2 0x100 EXP SWAP1 DIV PUSH20 0xFFFFFFFFFFFFFFFFFFFFFFFFFFFFFFFFFFFFFFFF AND PUSH20 0xFFFFFFFFFFFFFFFFFFFFFFFFFFFFFFFFFFFFFFFF AND PUSH4 0x70A08231 ADDRESS PUSH1 0x40 MLOAD DUP3 PUSH4 0xFFFFFFFF AND PUSH1 0xE0 SHL DUP2 MSTORE PUSH1 0x4 ADD PUSH2 0x571 SWAP2 SWAP1 PUSH2 0x34F3 JUMP JUMPDEST PUSH1 0x20 PUSH1 0x40 MLOAD DUP1 DUP4 SUB DUP2 DUP7 DUP1 EXTCODESIZE ISZERO DUP1 ISZERO PUSH2 0x589 JUMPI PUSH1 0x0 DUP1 REVERT JUMPDEST POP GAS STATICCALL ISZERO DUP1 ISZERO PUSH2 0x59D JUMPI RETURNDATASIZE PUSH1 0x0 DUP1 RETURNDATACOPY RETURNDATASIZE PUSH1 0x0 REVERT JUMPDEST POP POP POP POP PUSH1 0x40 MLOAD RETURNDATASIZE PUSH1 0x1F NOT PUSH1 0x1F DUP3 ADD AND DUP3 ADD DUP1 PUSH1 0x40 MSTORE POP DUP2 ADD SWAP1 PUSH2 0x5C1 SWAP2 SWAP1 PUSH2 0x3082 JUMP JUMPDEST SWAP1 POP SWAP1 JUMP JUMPDEST PUSH1 0x0 DUP1 PUSH20 0xFFFFFFFFFFFFFFFFFFFFFFFFFFFFFFFFFFFFFFFF AND DUP4 PUSH20 0xFFFFFFFFFFFFFFFFFFFFFFFFFFFFFFFFFFFFFFFF AND EQ ISZERO PUSH2 0x637 JUMPI PUSH1 0x40 MLOAD PUSH32 0x8C379A000000000000000000000000000000000000000000000000000000000 DUP2 MSTORE PUSH1 0x4 ADD PUSH2 0x62E SWAP1 PUSH2 0x3803 JUMP JUMPDEST PUSH1 0x40 MLOAD DUP1 SWAP2 SUB SWAP1 REVERT JUMPDEST PUSH1 0x2 PUSH1 0x0 DUP4 DUP2 MSTORE PUSH1 0x20 ADD SWAP1 DUP2 MSTORE PUSH1 0x20 ADD PUSH1 0x0 KECCAK256 PUSH1 0x0 DUP5 PUSH20 0xFFFFFFFFFFFFFFFFFFFFFFFFFFFFFFFFFFFFFFFF AND PUSH20 0xFFFFFFFFFFFFFFFFFFFFFFFFFFFFFFFFFFFFFFFF AND DUP2 MSTORE PUSH1 0x20 ADD SWAP1 DUP2 MSTORE PUSH1 0x20 ADD PUSH1 0x0 KECCAK256 SLOAD SWAP1 POP SWAP3 SWAP2 POP POP JUMP JUMPDEST PUSH1 0x0 PUSH32 0xD9B67A2600000000000000000000000000000000000000000000000000000000 PUSH28 0xFFFFFFFFFFFFFFFFFFFFFFFFFFFFFFFFFFFFFFFFFFFFFFFFFFFFFFFF NOT AND DUP3 PUSH28 0xFFFFFFFFFFFFFFFFFFFFFFFFFFFFFFFFFFFFFFFFFFFFFFFFFFFFFFFF NOT AND EQ DUP1 PUSH2 0x75B JUMPI POP PUSH32 0xE89341C00000000000000000000000000000000000000000000000000000000 PUSH28 0xFFFFFFFFFFFFFFFFFFFFFFFFFFFFFFFFFFFFFFFFFFFFFFFFFFFFFFFF NOT AND DUP3 PUSH28 0xFFFFFFFFFFFFFFFFFFFFFFFFFFFFFFFFFFFFFFFFFFFFFFFFFFFFFFFF NOT AND EQ JUMPDEST DUP1 PUSH2 0x76B JUMPI POP PUSH2 0x76A DUP3 PUSH2 0x1488 JUMP JUMPDEST JUMPDEST SWAP1 POP SWAP2 SWAP1 POP JUMP JUMPDEST PUSH1 0x60 PUSH1 0x4 DUP1 SLOAD PUSH2 0x781 SWAP1 PUSH2 0x3CE6 JUMP JUMPDEST DUP1 PUSH1 0x1F ADD PUSH1 0x20 DUP1 SWAP2 DIV MUL PUSH1 0x20 ADD PUSH1 0x40 MLOAD SWAP1 DUP2 ADD PUSH1 0x40 MSTORE DUP1 SWAP3 SWAP2 SWAP1 DUP2 DUP2 MSTORE PUSH1 0x20 ADD DUP3 DUP1 SLOAD PUSH2 0x7AD SWAP1 PUSH2 0x3CE6 JUMP JUMPDEST DUP1 ISZERO PUSH2 0x7FA JUMPI DUP1 PUSH1 0x1F LT PUSH2 0x7CF JUMPI PUSH2 0x100 DUP1 DUP4 SLOAD DIV MUL DUP4 MSTORE SWAP2 PUSH1 0x20 ADD SWAP2 PUSH2 0x7FA JUMP JUMPDEST DUP3 ADD SWAP2 SWAP1 PUSH1 0x0 MSTORE PUSH1 0x20 PUSH1 0x0 KECCAK256 SWAP1 JUMPDEST DUP2 SLOAD DUP2 MSTORE SWAP1 PUSH1 0x1 ADD SWAP1 PUSH1 0x20 ADD DUP1 DUP4 GT PUSH2 0x7DD JUMPI DUP3 SWAP1 SUB PUSH1 0x1F AND DUP3 ADD SWAP2 JUMPDEST POP POP POP POP POP SWAP1 POP SWAP2 SWAP1 POP JUMP JUMPDEST PUSH2 0x80E PUSH2 0x14F2 JUMP JUMPDEST PUSH20 0xFFFFFFFFFFFFFFFFFFFFFFFFFFFFFFFFFFFFFFFF AND DUP6 PUSH20 0xFFFFFFFFFFFFFFFFFFFFFFFFFFFFFFFFFFFFFFFF AND EQ DUP1 PUSH2 0x854 JUMPI POP PUSH2 0x853 DUP6 PUSH2 0x84E PUSH2 0x14F2 JUMP JUMPDEST PUSH2 0x125B JUMP JUMPDEST JUMPDEST PUSH2 0x893 JUMPI PUSH1 0x40 MLOAD PUSH32 0x8C379A000000000000000000000000000000000000000000000000000000000 DUP2 MSTORE PUSH1 0x4 ADD PUSH2 0x88A SWAP1 PUSH2 0x3883 JUMP JUMPDEST PUSH1 0x40 MLOAD DUP1 SWAP2 SUB SWAP1 REVERT JUMPDEST PUSH2 0x8A0 DUP6 DUP6 DUP6 DUP6 DUP6 PUSH2 0x14FA JUMP JUMPDEST POP POP POP POP POP JUMP JUMPDEST PUSH1 0x60 DUP2 MLOAD DUP4 MLOAD EQ PUSH2 0x8ED JUMPI PUSH1 0x40 MLOAD PUSH32 0x8C379A000000000000000000000000000000000000000000000000000000000 DUP2 MSTORE PUSH1 0x4 ADD PUSH2 0x8E4 SWAP1 PUSH2 0x39A3 JUMP JUMPDEST PUSH1 0x40 MLOAD DUP1 SWAP2 SUB SWAP1 REVERT JUMPDEST PUSH1 0x0 DUP4 MLOAD PUSH8 0xFFFFFFFFFFFFFFFF DUP2 GT ISZERO PUSH2 0x90A JUMPI PUSH2 0x909 PUSH2 0x3EC2 JUMP JUMPDEST JUMPDEST PUSH1 0x40 MLOAD SWAP1 DUP1 DUP3 MSTORE DUP1 PUSH1 0x20 MUL PUSH1 0x20 ADD DUP3 ADD PUSH1 0x40 MSTORE DUP1 ISZERO PUSH2 0x938 JUMPI DUP2 PUSH1 0x20 ADD PUSH1 0x20 DUP3 MUL DUP1 CALLDATASIZE DUP4 CALLDATACOPY DUP1 DUP3 ADD SWAP2 POP POP SWAP1 POP JUMPDEST POP SWAP1 POP PUSH1 0x0 JUMPDEST DUP5 MLOAD DUP2 LT ISZERO PUSH2 0x9B5 JUMPI PUSH2 0x985 DUP6 DUP3 DUP2 MLOAD DUP2 LT PUSH2 0x95D JUMPI PUSH2 0x95C PUSH2 0x3E93 JUMP JUMPDEST JUMPDEST PUSH1 0x20 MUL PUSH1 0x20 ADD ADD MLOAD DUP6 DUP4 DUP2 MLOAD DUP2 LT PUSH2 0x978 JUMPI PUSH2 0x977 PUSH2 0x3E93 JUMP JUMPDEST JUMPDEST PUSH1 0x20 MUL PUSH1 0x20 ADD ADD MLOAD PUSH2 0x5C6 JUMP JUMPDEST DUP3 DUP3 DUP2 MLOAD DUP2 LT PUSH2 0x998 JUMPI PUSH2 0x997 PUSH2 0x3E93 JUMP JUMPDEST JUMPDEST PUSH1 0x20 MUL PUSH1 0x20 ADD ADD DUP2 DUP2 MSTORE POP POP DUP1 PUSH2 0x9AE SWAP1 PUSH2 0x3D49 JUMP JUMPDEST SWAP1 POP PUSH2 0x93E JUMP JUMPDEST POP DUP1 SWAP2 POP POP SWAP3 SWAP2 POP POP JUMP JUMPDEST PUSH2 0x9C8 PUSH2 0x14F2 JUMP JUMPDEST PUSH20 0xFFFFFFFFFFFFFFFFFFFFFFFFFFFFFFFFFFFFFFFF AND PUSH2 0x9E6 PUSH2 0xCB1 JUMP JUMPDEST PUSH20 0xFFFFFFFFFFFFFFFFFFFFFFFFFFFFFFFFFFFFFFFF AND EQ PUSH2 0xA3C JUMPI PUSH1 0x40 MLOAD PUSH32 0x8C379A000000000000000000000000000000000000000000000000000000000 DUP2 MSTORE PUSH1 0x4 ADD PUSH2 0xA33 SWAP1 PUSH2 0x38E3 JUMP JUMPDEST PUSH1 0x40 MLOAD DUP1 SWAP2 SUB SWAP1 REVERT JUMPDEST PUSH1 0x0 PUSH1 0x10 PUSH1 0x0 PUSH2 0x100 EXP DUP2 SLOAD DUP2 PUSH1 0xFF MUL NOT AND SWAP1 DUP4 PUSH1 0x3 DUP2 GT ISZERO PUSH2 0xA62 JUMPI PUSH2 0xA61 PUSH2 0x3E35 JUMP JUMPDEST JUMPDEST MUL OR SWAP1 SSTORE POP JUMP JUMPDEST PUSH2 0xA71 PUSH2 0x14F2 JUMP JUMPDEST PUSH20 0xFFFFFFFFFFFFFFFFFFFFFFFFFFFFFFFFFFFFFFFF AND PUSH2 0xA8F PUSH2 0xCB1 JUMP JUMPDEST PUSH20 0xFFFFFFFFFFFFFFFFFFFFFFFFFFFFFFFFFFFFFFFF AND EQ PUSH2 0xAE5 JUMPI PUSH1 0x40 MLOAD PUSH32 0x8C379A000000000000000000000000000000000000000000000000000000000 DUP2 MSTORE PUSH1 0x4 ADD PUSH2 0xADC SWAP1 PUSH2 0x38E3 JUMP JUMPDEST PUSH1 0x40 MLOAD DUP1 SWAP2 SUB SWAP1 REVERT JUMPDEST PUSH1 0x1 PUSH2 0xAF1 CALLER DUP4 PUSH2 0x5C6 JUMP JUMPDEST EQ PUSH2 0xB31 JUMPI PUSH1 0x40 MLOAD PUSH32 0x8C379A000000000000000000000000000000000000000000000000000000000 DUP2 MSTORE PUSH1 0x4 ADD PUSH2 0xB28 SWAP1 PUSH2 0x3943 JUMP JUMPDEST PUSH1 0x40 MLOAD DUP1 SWAP2 SUB SWAP1 REVERT JUMPDEST POP JUMP JUMPDEST PUSH1 0xA SLOAD DUP2 JUMP JUMPDEST PUSH1 0x10 PUSH1 0x0 SWAP1 SLOAD SWAP1 PUSH2 0x100 EXP SWAP1 DIV PUSH1 0xFF AND DUP2 JUMP JUMPDEST PUSH1 0x0 SELFBALANCE SWAP1 POP SWAP1 JUMP JUMPDEST PUSH2 0xB5D PUSH2 0x14F2 JUMP JUMPDEST PUSH20 0xFFFFFFFFFFFFFFFFFFFFFFFFFFFFFFFFFFFFFFFF AND PUSH2 0xB7B PUSH2 0xCB1 JUMP JUMPDEST PUSH20 0xFFFFFFFFFFFFFFFFFFFFFFFFFFFFFFFFFFFFFFFF AND EQ PUSH2 0xBD1 JUMPI PUSH1 0x40 MLOAD PUSH32 0x8C379A000000000000000000000000000000000000000000000000000000000 DUP2 MSTORE PUSH1 0x4 ADD PUSH2 0xBC8 SWAP1 PUSH2 0x38E3 JUMP JUMPDEST PUSH1 0x40 MLOAD DUP1 SWAP2 SUB SWAP1 REVERT JUMPDEST PUSH2 0xBDB PUSH1 0x0 PUSH2 0x1811 JUMP JUMPDEST JUMP JUMPDEST PUSH1 0x9 SLOAD DUP2 JUMP JUMPDEST PUSH2 0xBEB PUSH2 0x14F2 JUMP JUMPDEST PUSH20 0xFFFFFFFFFFFFFFFFFFFFFFFFFFFFFFFFFFFFFFFF AND PUSH2 0xC09 PUSH2 0xCB1 JUMP JUMPDEST PUSH20 0xFFFFFFFFFFFFFFFFFFFFFFFFFFFFFFFFFFFFFFFF AND EQ PUSH2 0xC5F JUMPI PUSH1 0x40 MLOAD PUSH32 0x8C379A000000000000000000000000000000000000000000000000000000000 DUP2 MSTORE PUSH1 0x4 ADD PUSH2 0xC56 SWAP1 PUSH2 0x38E3 JUMP JUMPDEST PUSH1 0x40 MLOAD DUP1 SWAP2 SUB SWAP1 REVERT JUMPDEST PUSH1 0x7 PUSH1 0x0 DUP3 PUSH20 0xFFFFFFFFFFFFFFFFFFFFFFFFFFFFFFFFFFFFFFFF AND PUSH20 0xFFFFFFFFFFFFFFFFFFFFFFFFFFFFFFFFFFFFFFFF AND DUP2 MSTORE PUSH1 0x20 ADD SWAP1 DUP2 MSTORE PUSH1 0x20 ADD PUSH1 0x0 KECCAK256 PUSH1 0x0 PUSH2 0x100 EXP DUP2 SLOAD SWAP1 PUSH1 0xFF MUL NOT AND SWAP1 SSTORE POP JUMP JUMPDEST PUSH1 0x0 PUSH1 0x1 PUSH1 0x0 SWAP1 SLOAD SWAP1 PUSH2 0x100 EXP SWAP1 DIV PUSH20 0xFFFFFFFFFFFFFFFFFFFFFFFFFFFFFFFFFFFFFFFF AND SWAP1 POP SWAP1 JUMP JUMPDEST PUSH32 0x0 PUSH20 0xFFFFFFFFFFFFFFFFFFFFFFFFFFFFFFFFFFFFFFFF AND CALLER PUSH20 0xFFFFFFFFFFFFFFFFFFFFFFFFFFFFFFFFFFFFFFFF AND EQ PUSH2 0xD69 JUMPI PUSH1 0x40 MLOAD PUSH32 0x8C379A000000000000000000000000000000000000000000000000000000000 DUP2 MSTORE PUSH1 0x4 ADD PUSH2 0xD60 SWAP1 PUSH2 0x3903 JUMP JUMPDEST PUSH1 0x40 MLOAD DUP1 SWAP2 SUB SWAP1 REVERT JUMPDEST PUSH2 0xD73 DUP3 DUP3 PUSH2 0x18D7 JUMP JUMPDEST POP POP JUMP JUMPDEST PUSH2 0xD89 PUSH2 0xD82 PUSH2 0x14F2 JUMP JUMPDEST DUP4 DUP4 PUSH2 0x1A8B JUMP JUMPDEST POP POP JUMP JUMPDEST PUSH1 0x10 PUSH1 0x1 SWAP1 SLOAD SWAP1 PUSH2 0x100 EXP SWAP1 DIV PUSH1 0xFF AND DUP2 JUMP JUMPDEST PUSH2 0xDA8 PUSH2 0x14F2 JUMP JUMPDEST PUSH20 0xFFFFFFFFFFFFFFFFFFFFFFFFFFFFFFFFFFFFFFFF AND PUSH2 0xDC6 PUSH2 0xCB1 JUMP JUMPDEST PUSH20 0xFFFFFFFFFFFFFFFFFFFFFFFFFFFFFFFFFFFFFFFF AND EQ PUSH2 0xE1C JUMPI PUSH1 0x40 MLOAD PUSH32 0x8C379A000000000000000000000000000000000000000000000000000000000 DUP2 MSTORE PUSH1 0x4 ADD PUSH2 0xE13 SWAP1 PUSH2 0x38E3 JUMP JUMPDEST PUSH1 0x40 MLOAD DUP1 SWAP2 SUB SWAP1 REVERT JUMPDEST PUSH1 0x1 PUSH1 0x7 PUSH1 0x0 DUP4 PUSH20 0xFFFFFFFFFFFFFFFFFFFFFFFFFFFFFFFFFFFFFFFF AND PUSH20 0xFFFFFFFFFFFFFFFFFFFFFFFFFFFFFFFFFFFFFFFF AND DUP2 MSTORE PUSH1 0x20 ADD SWAP1 DUP2 MSTORE PUSH1 0x20 ADD PUSH1 0x0 KECCAK256 PUSH1 0x0 PUSH2 0x100 EXP DUP2 SLOAD DUP2 PUSH1 0xFF MUL NOT AND SWAP1 DUP4 ISZERO ISZERO MUL OR SWAP1 SSTORE POP POP JUMP JUMPDEST PUSH1 0x2 DUP1 DUP2 GT ISZERO PUSH2 0xE8A JUMPI PUSH2 0xE89 PUSH2 0x3E35 JUMP JUMPDEST JUMPDEST PUSH1 0x6 PUSH1 0x0 CALLER PUSH20 0xFFFFFFFFFFFFFFFFFFFFFFFFFFFFFFFFFFFFFFFF AND PUSH20 0xFFFFFFFFFFFFFFFFFFFFFFFFFFFFFFFFFFFFFFFF AND DUP2 MSTORE PUSH1 0x20 ADD SWAP1 DUP2 MSTORE PUSH1 0x20 ADD PUSH1 0x0 KECCAK256 PUSH1 0x0 SWAP1 SLOAD SWAP1 PUSH2 0x100 EXP SWAP1 DIV PUSH1 0xFF AND PUSH1 0x2 DUP2 GT ISZERO PUSH2 0xEE9 JUMPI PUSH2 0xEE8 PUSH2 0x3E35 JUMP JUMPDEST JUMPDEST EQ ISZERO PUSH2 0xF2A JUMPI PUSH1 0x40 MLOAD PUSH32 0x8C379A000000000000000000000000000000000000000000000000000000000 DUP2 MSTORE PUSH1 0x4 ADD PUSH2 0xF21 SWAP1 PUSH2 0x38A3 JUMP JUMPDEST PUSH1 0x40 MLOAD DUP1 SWAP2 SUB SWAP1 REVERT JUMPDEST PUSH1 0x1 PUSH1 0x2 DUP2 GT ISZERO PUSH2 0xF3E JUMPI PUSH2 0xF3D PUSH2 0x3E35 JUMP JUMPDEST JUMPDEST PUSH1 0x6 PUSH1 0x0 CALLER PUSH20 0xFFFFFFFFFFFFFFFFFFFFFFFFFFFFFFFFFFFFFFFF AND PUSH20 0xFFFFFFFFFFFFFFFFFFFFFFFFFFFFFFFFFFFFFFFF AND DUP2 MSTORE PUSH1 0x20 ADD SWAP1 DUP2 MSTORE PUSH1 0x20 ADD PUSH1 0x0 KECCAK256 PUSH1 0x0 SWAP1 SLOAD SWAP1 PUSH2 0x100 EXP SWAP1 DIV PUSH1 0xFF AND PUSH1 0x2 DUP2 GT ISZERO PUSH2 0xF9D JUMPI PUSH2 0xF9C PUSH2 0x3E35 JUMP JUMPDEST JUMPDEST EQ ISZERO PUSH2 0xFDE JUMPI PUSH1 0x40 MLOAD PUSH32 0x8C379A000000000000000000000000000000000000000000000000000000000 DUP2 MSTORE PUSH1 0x4 ADD PUSH2 0xFD5 SWAP1 PUSH2 0x3923 JUMP JUMPDEST PUSH1 0x40 MLOAD DUP1 SWAP2 SUB SWAP1 REVERT JUMPDEST PUSH1 0x0 PUSH1 0x3 DUP2 GT ISZERO PUSH2 0xFF2 JUMPI PUSH2 0xFF1 PUSH2 0x3E35 JUMP JUMPDEST JUMPDEST PUSH1 0x10 PUSH1 0x0 SWAP1 SLOAD SWAP1 PUSH2 0x100 EXP SWAP1 DIV PUSH1 0xFF AND PUSH1 0x3 DUP2 GT ISZERO PUSH2 0x1014 JUMPI PUSH2 0x1013 PUSH2 0x3E35 JUMP JUMPDEST JUMPDEST EQ ISZERO PUSH2 0x10AE JUMPI PUSH1 0x1 ISZERO ISZERO PUSH1 0x7 PUSH1 0x0 CALLER PUSH20 0xFFFFFFFFFFFFFFFFFFFFFFFFFFFFFFFFFFFFFFFF AND PUSH20 0xFFFFFFFFFFFFFFFFFFFFFFFFFFFFFFFFFFFFFFFF AND DUP2 MSTORE PUSH1 0x20 ADD SWAP1 DUP2 MSTORE PUSH1 0x20 ADD PUSH1 0x0 KECCAK256 PUSH1 0x0 SWAP1 SLOAD SWAP1 PUSH2 0x100 EXP SWAP1 DIV PUSH1 0xFF AND ISZERO ISZERO EQ PUSH2 0x10AD JUMPI PUSH1 0x40 MLOAD PUSH32 0x8C379A000000000000000000000000000000000000000000000000000000000 DUP2 MSTORE PUSH1 0x4 ADD PUSH2 0x10A4 SWAP1 PUSH2 0x3A03 JUMP JUMPDEST PUSH1 0x40 MLOAD DUP1 SWAP2 SUB SWAP1 REVERT JUMPDEST JUMPDEST PUSH1 0xF SLOAD PUSH1 0x8 PUSH1 0x0 SWAP1 SLOAD SWAP1 PUSH2 0x100 EXP SWAP1 DIV PUSH20 0xFFFFFFFFFFFFFFFFFFFFFFFFFFFFFFFFFFFFFFFF AND PUSH20 0xFFFFFFFFFFFFFFFFFFFFFFFFFFFFFFFFFFFFFFFF AND PUSH4 0x70A08231 CALLER PUSH1 0x40 MLOAD DUP3 PUSH4 0xFFFFFFFF AND PUSH1 0xE0 SHL DUP2 MSTORE PUSH1 0x4 ADD PUSH2 0x110C SWAP2 SWAP1 PUSH2 0x34F3 JUMP JUMPDEST PUSH1 0x20 PUSH1 0x40 MLOAD DUP1 DUP4 SUB DUP2 DUP7 DUP1 EXTCODESIZE ISZERO DUP1 ISZERO PUSH2 0x1124 JUMPI PUSH1 0x0 DUP1 REVERT JUMPDEST POP GAS STATICCALL ISZERO DUP1 ISZERO PUSH2 0x1138 JUMPI RETURNDATASIZE PUSH1 0x0 DUP1 RETURNDATACOPY RETURNDATASIZE PUSH1 0x0 REVERT JUMPDEST POP POP POP POP PUSH1 0x40 MLOAD RETURNDATASIZE PUSH1 0x1F NOT PUSH1 0x1F DUP3 ADD AND DUP3 ADD DUP1 PUSH1 0x40 MSTORE POP DUP2 ADD SWAP1 PUSH2 0x115C SWAP2 SWAP1 PUSH2 0x3082 JUMP JUMPDEST LT ISZERO PUSH2 0x119D JUMPI PUSH1 0x40 MLOAD PUSH32 0x8C379A000000000000000000000000000000000000000000000000000000000 DUP2 MSTORE PUSH1 0x4 ADD PUSH2 0x1194 SWAP1 PUSH2 0x3963 JUMP JUMPDEST PUSH1 0x40 MLOAD DUP1 SWAP2 SUB SWAP1 REVERT JUMPDEST PUSH1 0x8 PUSH1 0x0 SWAP1 SLOAD SWAP1 PUSH2 0x100 EXP SWAP1 DIV PUSH20 0xFFFFFFFFFFFFFFFFFFFFFFFFFFFFFFFFFFFFFFFF AND PUSH20 0xFFFFFFFFFFFFFFFFFFFFFFFFFFFFFFFFFFFFFFFF AND PUSH4 0x23B872DD CALLER ADDRESS PUSH1 0xF SLOAD PUSH1 0x40 MLOAD DUP5 PUSH4 0xFFFFFFFF AND PUSH1 0xE0 SHL DUP2 MSTORE PUSH1 0x4 ADD PUSH2 0x11FE SWAP4 SWAP3 SWAP2 SWAP1 PUSH2 0x3576 JUMP JUMPDEST PUSH1 0x20 PUSH1 0x40 MLOAD DUP1 DUP4 SUB DUP2 PUSH1 0x0 DUP8 DUP1 EXTCODESIZE ISZERO DUP1 ISZERO PUSH2 0x1218 JUMPI PUSH1 0x0 DUP1 REVERT JUMPDEST POP GAS CALL ISZERO DUP1 ISZERO PUSH2 0x122C JUMPI RETURNDATASIZE PUSH1 0x0 DUP1 RETURNDATACOPY RETURNDATASIZE PUSH1 0x0 REVERT JUMPDEST POP POP POP POP PUSH1 0x40 MLOAD RETURNDATASIZE PUSH1 0x1F NOT PUSH1 0x1F DUP3 ADD AND DUP3 ADD DUP1 PUSH1 0x40 MSTORE POP DUP2 ADD SWAP1 PUSH2 0x1250 SWAP2 SWAP1 PUSH2 0x2F8E JUMP JUMPDEST POP PUSH2 0x1259 PUSH2 0x1BF8 JUMP JUMPDEST JUMP JUMPDEST PUSH1 0x0 PUSH1 0x3 PUSH1 0x0 DUP5 PUSH20 0xFFFFFFFFFFFFFFFFFFFFFFFFFFFFFFFFFFFFFFFF AND PUSH20 0xFFFFFFFFFFFFFFFFFFFFFFFFFFFFFFFFFFFFFFFF AND DUP2 MSTORE PUSH1 0x20 ADD SWAP1 DUP2 MSTORE PUSH1 0x20 ADD PUSH1 0x0 KECCAK256 PUSH1 0x0 DUP4 PUSH20 0xFFFFFFFFFFFFFFFFFFFFFFFFFFFFFFFFFFFFFFFF AND PUSH20 0xFFFFFFFFFFFFFFFFFFFFFFFFFFFFFFFFFFFFFFFF AND DUP2 MSTORE PUSH1 0x20 ADD SWAP1 DUP2 MSTORE PUSH1 0x20 ADD PUSH1 0x0 KECCAK256 PUSH1 0x0 SWAP1 SLOAD SWAP1 PUSH2 0x100 EXP SWAP1 DIV PUSH1 0xFF AND SWAP1 POP SWAP3 SWAP2 POP POP JUMP JUMPDEST PUSH2 0x12F7 PUSH2 0x14F2 JUMP JUMPDEST PUSH20 0xFFFFFFFFFFFFFFFFFFFFFFFFFFFFFFFFFFFFFFFF AND DUP6 PUSH20 0xFFFFFFFFFFFFFFFFFFFFFFFFFFFFFFFFFFFFFFFF AND EQ DUP1 PUSH2 0x133D JUMPI POP PUSH2 0x133C DUP6 PUSH2 0x1337 PUSH2 0x14F2 JUMP JUMPDEST PUSH2 0x125B JUMP JUMPDEST JUMPDEST PUSH2 0x137C JUMPI PUSH1 0x40 MLOAD PUSH32 0x8C379A000000000000000000000000000000000000000000000000000000000 DUP2 MSTORE PUSH1 0x4 ADD PUSH2 0x1373 SWAP1 PUSH2 0x3843 JUMP JUMPDEST PUSH1 0x40 MLOAD DUP1 SWAP2 SUB SWAP1 REVERT JUMPDEST PUSH2 0x1389 DUP6 DUP6 DUP6 DUP6 DUP6 PUSH2 0x1D31 JUMP JUMPDEST POP POP POP POP POP JUMP JUMPDEST PUSH2 0x1398 PUSH2 0x14F2 JUMP JUMPDEST PUSH20 0xFFFFFFFFFFFFFFFFFFFFFFFFFFFFFFFFFFFFFFFF AND PUSH2 0x13B6 PUSH2 0xCB1 JUMP JUMPDEST PUSH20 0xFFFFFFFFFFFFFFFFFFFFFFFFFFFFFFFFFFFFFFFF AND EQ PUSH2 0x140C JUMPI PUSH1 0x40 MLOAD PUSH32 0x8C379A000000000000000000000000000000000000000000000000000000000 DUP2 MSTORE PUSH1 0x4 ADD PUSH2 0x1403 SWAP1 PUSH2 0x38E3 JUMP JUMPDEST PUSH1 0x40 MLOAD DUP1 SWAP2 SUB SWAP1 REVERT JUMPDEST PUSH1 0x0 PUSH20 0xFFFFFFFFFFFFFFFFFFFFFFFFFFFFFFFFFFFFFFFF AND DUP2 PUSH20 0xFFFFFFFFFFFFFFFFFFFFFFFFFFFFFFFFFFFFFFFF AND EQ ISZERO PUSH2 0x147C JUMPI PUSH1 0x40 MLOAD PUSH32 0x8C379A000000000000000000000000000000000000000000000000000000000 DUP2 MSTORE PUSH1 0x4 ADD PUSH2 0x1473 SWAP1 PUSH2 0x3823 JUMP JUMPDEST PUSH1 0x40 MLOAD DUP1 SWAP2 SUB SWAP1 REVERT JUMPDEST PUSH2 0x1485 DUP2 PUSH2 0x1811 JUMP JUMPDEST POP JUMP JUMPDEST PUSH1 0x0 PUSH32 0x1FFC9A700000000000000000000000000000000000000000000000000000000 PUSH28 0xFFFFFFFFFFFFFFFFFFFFFFFFFFFFFFFFFFFFFFFFFFFFFFFFFFFFFFFF NOT AND DUP3 PUSH28 0xFFFFFFFFFFFFFFFFFFFFFFFFFFFFFFFFFFFFFFFFFFFFFFFFFFFFFFFF NOT AND EQ SWAP1 POP SWAP2 SWAP1 POP JUMP JUMPDEST PUSH1 0x0 CALLER SWAP1 POP SWAP1 JUMP JUMPDEST DUP2 MLOAD DUP4 MLOAD EQ PUSH2 0x153E JUMPI PUSH1 0x40 MLOAD PUSH32 0x8C379A000000000000000000000000000000000000000000000000000000000 DUP2 MSTORE PUSH1 0x4 ADD PUSH2 0x1535 SWAP1 PUSH2 0x39C3 JUMP JUMPDEST PUSH1 0x40 MLOAD DUP1 SWAP2 SUB SWAP1 REVERT JUMPDEST PUSH1 0x0 PUSH20 0xFFFFFFFFFFFFFFFFFFFFFFFFFFFFFFFFFFFFFFFF AND DUP5 PUSH20 0xFFFFFFFFFFFFFFFFFFFFFFFFFFFFFFFFFFFFFFFF AND EQ ISZERO PUSH2 0x15AE JUMPI PUSH1 0x40 MLOAD PUSH32 0x8C379A000000000000000000000000000000000000000000000000000000000 DUP2 MSTORE PUSH1 0x4 ADD PUSH2 0x15A5 SWAP1 PUSH2 0x3863 JUMP JUMPDEST PUSH1 0x40 MLOAD DUP1 SWAP2 SUB SWAP1 REVERT JUMPDEST PUSH1 0x0 PUSH2 0x15B8 PUSH2 0x14F2 JUMP JUMPDEST SWAP1 POP PUSH2 0x15C8 DUP2 DUP8 DUP8 DUP8 DUP8 DUP8 PUSH2 0x1FB6 JUMP JUMPDEST PUSH1 0x0 JUMPDEST DUP5 MLOAD DUP2 LT ISZERO PUSH2 0x177C JUMPI PUSH1 0x0 DUP6 DUP3 DUP2 MLOAD DUP2 LT PUSH2 0x15E9 JUMPI PUSH2 0x15E8 PUSH2 0x3E93 JUMP JUMPDEST JUMPDEST PUSH1 0x20 MUL PUSH1 0x20 ADD ADD MLOAD SWAP1 POP PUSH1 0x0 DUP6 DUP4 DUP2 MLOAD DUP2 LT PUSH2 0x1608 JUMPI PUSH2 0x1607 PUSH2 0x3E93 JUMP JUMPDEST JUMPDEST PUSH1 0x20 MUL PUSH1 0x20 ADD ADD MLOAD SWAP1 POP PUSH1 0x0 PUSH1 0x2 PUSH1 0x0 DUP5 DUP2 MSTORE PUSH1 0x20 ADD SWAP1 DUP2 MSTORE PUSH1 0x20 ADD PUSH1 0x0 KECCAK256 PUSH1 0x0 DUP12 PUSH20 0xFFFFFFFFFFFFFFFFFFFFFFFFFFFFFFFFFFFFFFFF AND PUSH20 0xFFFFFFFFFFFFFFFFFFFFFFFFFFFFFFFFFFFFFFFF AND DUP2 MSTORE PUSH1 0x20 ADD SWAP1 DUP2 MSTORE PUSH1 0x20 ADD PUSH1 0x0 KECCAK256 SLOAD SWAP1 POP DUP2 DUP2 LT ISZERO PUSH2 0x16AA JUMPI PUSH1 0x40 MLOAD PUSH32 0x8C379A000000000000000000000000000000000000000000000000000000000 DUP2 MSTORE PUSH1 0x4 ADD PUSH2 0x16A1 SWAP1 PUSH2 0x38C3 JUMP JUMPDEST PUSH1 0x40 MLOAD DUP1 SWAP2 SUB SWAP1 REVERT JUMPDEST DUP2 DUP2 SUB PUSH1 0x2 PUSH1 0x0 DUP6 DUP2 MSTORE PUSH1 0x20 ADD SWAP1 DUP2 MSTORE PUSH1 0x20 ADD PUSH1 0x0 KECCAK256 PUSH1 0x0 DUP13 PUSH20 0xFFFFFFFFFFFFFFFFFFFFFFFFFFFFFFFFFFFFFFFF AND PUSH20 0xFFFFFFFFFFFFFFFFFFFFFFFFFFFFFFFFFFFFFFFF AND DUP2 MSTORE PUSH1 0x20 ADD SWAP1 DUP2 MSTORE PUSH1 0x20 ADD PUSH1 0x0 KECCAK256 DUP2 SWAP1 SSTORE POP DUP2 PUSH1 0x2 PUSH1 0x0 DUP6 DUP2 MSTORE PUSH1 0x20 ADD SWAP1 DUP2 MSTORE PUSH1 0x20 ADD PUSH1 0x0 KECCAK256 PUSH1 0x0 DUP12 PUSH20 0xFFFFFFFFFFFFFFFFFFFFFFFFFFFFFFFFFFFFFFFF AND PUSH20 0xFFFFFFFFFFFFFFFFFFFFFFFFFFFFFFFFFFFFFFFF AND DUP2 MSTORE PUSH1 0x20 ADD SWAP1 DUP2 MSTORE PUSH1 0x20 ADD PUSH1 0x0 KECCAK256 PUSH1 0x0 DUP3 DUP3 SLOAD PUSH2 0x1761 SWAP2 SWAP1 PUSH2 0x3B86 JUMP JUMPDEST SWAP3 POP POP DUP2 SWAP1 SSTORE POP POP POP POP DUP1 PUSH2 0x1775 SWAP1 PUSH2 0x3D49 JUMP JUMPDEST SWAP1 POP PUSH2 0x15CB JUMP JUMPDEST POP DUP5 PUSH20 0xFFFFFFFFFFFFFFFFFFFFFFFFFFFFFFFFFFFFFFFF AND DUP7 PUSH20 0xFFFFFFFFFFFFFFFFFFFFFFFFFFFFFFFFFFFFFFFF AND DUP3 PUSH20 0xFFFFFFFFFFFFFFFFFFFFFFFFFFFFFFFFFFFFFFFF AND PUSH32 0x4A39DC06D4C0DBC64B70AF90FD698A233A518AA5D07E595D983B8C0526C8F7FB DUP8 DUP8 PUSH1 0x40 MLOAD PUSH2 0x17F3 SWAP3 SWAP2 SWAP1 PUSH2 0x3690 JUMP JUMPDEST PUSH1 0x40 MLOAD DUP1 SWAP2 SUB SWAP1 LOG4 PUSH2 0x1809 DUP2 DUP8 DUP8 DUP8 DUP8 DUP8 PUSH2 0x1FBE JUMP JUMPDEST POP POP POP POP POP POP JUMP JUMPDEST PUSH1 0x0 PUSH1 0x1 PUSH1 0x0 SWAP1 SLOAD SWAP1 PUSH2 0x100 EXP SWAP1 DIV PUSH20 0xFFFFFFFFFFFFFFFFFFFFFFFFFFFFFFFFFFFFFFFF AND SWAP1 POP DUP2 PUSH1 0x1 PUSH1 0x0 PUSH2 0x100 EXP DUP2 SLOAD DUP2 PUSH20 0xFFFFFFFFFFFFFFFFFFFFFFFFFFFFFFFFFFFFFFFF MUL NOT AND SWAP1 DUP4 PUSH20 0xFFFFFFFFFFFFFFFFFFFFFFFFFFFFFFFFFFFFFFFF AND MUL OR SWAP1 SSTORE POP DUP2 PUSH20 0xFFFFFFFFFFFFFFFFFFFFFFFFFFFFFFFFFFFFFFFF AND DUP2 PUSH20 0xFFFFFFFFFFFFFFFFFFFFFFFFFFFFFFFFFFFFFFFF AND PUSH32 0x8BE0079C531659141344CD1FD0A4F28419497F9722A3DAAFE3B4186F6B6457E0 PUSH1 0x40 MLOAD PUSH1 0x40 MLOAD DUP1 SWAP2 SUB SWAP1 LOG3 POP POP JUMP JUMPDEST PUSH1 0x1 PUSH1 0x3 DUP2 GT ISZERO PUSH2 0x18EB JUMPI PUSH2 0x18EA PUSH2 0x3E35 JUMP JUMPDEST JUMPDEST PUSH1 0x10 PUSH1 0x0 SWAP1 SLOAD SWAP1 PUSH2 0x100 EXP SWAP1 DIV PUSH1 0xFF AND PUSH1 0x3 DUP2 GT ISZERO PUSH2 0x190D JUMPI PUSH2 0x190C PUSH2 0x3E35 JUMP JUMPDEST JUMPDEST EQ DUP1 PUSH2 0x194C JUMPI POP PUSH1 0x0 PUSH1 0x3 DUP2 GT ISZERO PUSH2 0x1928 JUMPI PUSH2 0x1927 PUSH2 0x3E35 JUMP JUMPDEST JUMPDEST PUSH1 0x10 PUSH1 0x0 SWAP1 SLOAD SWAP1 PUSH2 0x100 EXP SWAP1 DIV PUSH1 0xFF AND PUSH1 0x3 DUP2 GT ISZERO PUSH2 0x194A JUMPI PUSH2 0x1949 PUSH2 0x3E35 JUMP JUMPDEST JUMPDEST EQ JUMPDEST ISZERO PUSH2 0x197E JUMPI PUSH1 0x0 PUSH1 0x1 PUSH1 0x64 DUP4 PUSH2 0x1962 SWAP2 SWAP1 PUSH2 0x3DA6 JUMP JUMPDEST PUSH2 0x196C SWAP2 SWAP1 PUSH2 0x3B86 JUMP JUMPDEST SWAP1 POP PUSH2 0x1978 DUP2 DUP5 PUSH2 0x21A5 JUMP JUMPDEST POP PUSH2 0x1A87 JUMP JUMPDEST PUSH1 0x2 PUSH1 0x3 DUP2 GT ISZERO PUSH2 0x1992 JUMPI PUSH2 0x1991 PUSH2 0x3E35 JUMP JUMPDEST JUMPDEST PUSH1 0x10 PUSH1 0x0 SWAP1 SLOAD SWAP1 PUSH2 0x100 EXP SWAP1 DIV PUSH1 0xFF AND PUSH1 0x3 DUP2 GT ISZERO PUSH2 0x19B4 JUMPI PUSH2 0x19B3 PUSH2 0x3E35 JUMP JUMPDEST JUMPDEST EQ ISZERO PUSH2 0x1A86 JUMPI PUSH1 0x0 PUSH1 0x1 DUP2 GT ISZERO PUSH2 0x19CE JUMPI PUSH2 0x19CD PUSH2 0x3E35 JUMP JUMPDEST JUMPDEST PUSH1 0x10 PUSH1 0x1 SWAP1 SLOAD SWAP1 PUSH2 0x100 EXP SWAP1 DIV PUSH1 0xFF AND PUSH1 0x1 DUP2 GT ISZERO PUSH2 0x19F0 JUMPI PUSH2 0x19EF PUSH2 0x3E35 JUMP JUMPDEST JUMPDEST EQ ISZERO PUSH2 0x1A4D JUMPI PUSH1 0x1 PUSH1 0x10 PUSH1 0x1 PUSH2 0x100 EXP DUP2 SLOAD DUP2 PUSH1 0xFF MUL NOT AND SWAP1 DUP4 PUSH1 0x1 DUP2 GT ISZERO PUSH2 0x1A1C JUMPI PUSH2 0x1A1B PUSH2 0x3E35 JUMP JUMPDEST JUMPDEST MUL OR SWAP1 SSTORE POP PUSH1 0x0 PUSH1 0x1 PUSH1 0x64 DUP4 PUSH2 0x1A32 SWAP2 SWAP1 PUSH2 0x3DA6 JUMP JUMPDEST PUSH2 0x1A3C SWAP2 SWAP1 PUSH2 0x3B86 JUMP JUMPDEST SWAP1 POP PUSH2 0x1A47 DUP2 PUSH2 0x2267 JUMP JUMPDEST POP PUSH2 0x1A85 JUMP JUMPDEST PUSH1 0x1 DUP1 DUP2 GT ISZERO PUSH2 0x1A60 JUMPI PUSH2 0x1A5F PUSH2 0x3E35 JUMP JUMPDEST JUMPDEST PUSH1 0x10 PUSH1 0x1 SWAP1 SLOAD SWAP1 PUSH2 0x100 EXP SWAP1 DIV PUSH1 0xFF AND PUSH1 0x1 DUP2 GT ISZERO PUSH2 0x1A82 JUMPI PUSH2 0x1A81 PUSH2 0x3E35 JUMP JUMPDEST JUMPDEST POP POP JUMPDEST JUMPDEST JUMPDEST POP POP JUMP JUMPDEST DUP2 PUSH20 0xFFFFFFFFFFFFFFFFFFFFFFFFFFFFFFFFFFFFFFFF AND DUP4 PUSH20 0xFFFFFFFFFFFFFFFFFFFFFFFFFFFFFFFFFFFFFFFF AND EQ ISZERO PUSH2 0x1AFA JUMPI PUSH1 0x40 MLOAD PUSH32 0x8C379A000000000000000000000000000000000000000000000000000000000 DUP2 MSTORE PUSH1 0x4 ADD PUSH2 0x1AF1 SWAP1 PUSH2 0x3983 JUMP JUMPDEST PUSH1 0x40 MLOAD DUP1 SWAP2 SUB SWAP1 REVERT JUMPDEST DUP1 PUSH1 0x3 PUSH1 0x0 DUP6 PUSH20 0xFFFFFFFFFFFFFFFFFFFFFFFFFFFFFFFFFFFFFFFF AND PUSH20 0xFFFFFFFFFFFFFFFFFFFFFFFFFFFFFFFFFFFFFFFF AND DUP2 MSTORE PUSH1 0x20 ADD SWAP1 DUP2 MSTORE PUSH1 0x20 ADD PUSH1 0x0 KECCAK256 PUSH1 0x0 DUP5 PUSH20 0xFFFFFFFFFFFFFFFFFFFFFFFFFFFFFFFFFFFFFFFF AND PUSH20 0xFFFFFFFFFFFFFFFFFFFFFFFFFFFFFFFFFFFFFFFF AND DUP2 MSTORE PUSH1 0x20 ADD SWAP1 DUP2 MSTORE PUSH1 0x20 ADD PUSH1 0x0 KECCAK256 PUSH1 0x0 PUSH2 0x100 EXP DUP2 SLOAD DUP2 PUSH1 0xFF MUL NOT AND SWAP1 DUP4 ISZERO ISZERO MUL OR SWAP1 SSTORE POP DUP2 PUSH20 0xFFFFFFFFFFFFFFFFFFFFFFFFFFFFFFFFFFFFFFFF AND DUP4 PUSH20 0xFFFFFFFFFFFFFFFFFFFFFFFFFFFFFFFFFFFFFFFF AND PUSH32 0x17307EAB39AB6107E8899845AD3D59BD9653F200F220920489CA2B5937696C31 DUP4 PUSH1 0x40 MLOAD PUSH2 0x1BEB SWAP2 SWAP1 PUSH2 0x36C7 JUMP JUMPDEST PUSH1 0x40 MLOAD DUP1 SWAP2 SUB SWAP1 LOG3 POP POP POP JUMP JUMPDEST PUSH1 0x0 PUSH2 0x1C08 PUSH1 0xD SLOAD PUSH1 0xE SLOAD PUSH2 0x22EC JUMP JUMPDEST SWAP1 POP CALLER PUSH1 0x5 PUSH1 0x0 DUP4 DUP2 MSTORE PUSH1 0x20 ADD SWAP1 DUP2 MSTORE PUSH1 0x20 ADD PUSH1 0x0 KECCAK256 PUSH1 0x0 PUSH2 0x100 EXP DUP2 SLOAD DUP2 PUSH20 0xFFFFFFFFFFFFFFFFFFFFFFFFFFFFFFFFFFFFFFFF MUL NOT AND SWAP1 DUP4 PUSH20 0xFFFFFFFFFFFFFFFFFFFFFFFFFFFFFFFFFFFFFFFF AND MUL OR SWAP1 SSTORE POP PUSH1 0x1 PUSH1 0x6 PUSH1 0x0 PUSH1 0x5 PUSH1 0x0 DUP6 DUP2 MSTORE PUSH1 0x20 ADD SWAP1 DUP2 MSTORE PUSH1 0x20 ADD PUSH1 0x0 KECCAK256 PUSH1 0x0 SWAP1 SLOAD SWAP1 PUSH2 0x100 EXP SWAP1 DIV PUSH20 0xFFFFFFFFFFFFFFFFFFFFFFFFFFFFFFFFFFFFFFFF AND PUSH20 0xFFFFFFFFFFFFFFFFFFFFFFFFFFFFFFFFFFFFFFFF AND PUSH20 0xFFFFFFFFFFFFFFFFFFFFFFFFFFFFFFFFFFFFFFFF AND DUP2 MSTORE PUSH1 0x20 ADD SWAP1 DUP2 MSTORE PUSH1 0x20 ADD PUSH1 0x0 KECCAK256 PUSH1 0x0 PUSH2 0x100 EXP DUP2 SLOAD DUP2 PUSH1 0xFF MUL NOT AND SWAP1 DUP4 PUSH1 0x2 DUP2 GT ISZERO PUSH2 0x1CF2 JUMPI PUSH2 0x1CF1 PUSH2 0x3E35 JUMP JUMPDEST JUMPDEST MUL OR SWAP1 SSTORE POP PUSH32 0xE5F5B44D72D4143C278EB745C4ACC0695C4A5BC616BE5BEECF46ABE29661780E DUP2 PUSH1 0x40 MLOAD PUSH2 0x1D26 SWAP2 SWAP1 PUSH2 0x36E2 JUMP JUMPDEST PUSH1 0x40 MLOAD DUP1 SWAP2 SUB SWAP1 LOG1 POP JUMP JUMPDEST PUSH1 0x0 PUSH20 0xFFFFFFFFFFFFFFFFFFFFFFFFFFFFFFFFFFFFFFFF AND DUP5 PUSH20 0xFFFFFFFFFFFFFFFFFFFFFFFFFFFFFFFFFFFFFFFF AND EQ ISZERO PUSH2 0x1DA1 JUMPI PUSH1 0x40 MLOAD PUSH32 0x8C379A000000000000000000000000000000000000000000000000000000000 DUP2 MSTORE PUSH1 0x4 ADD PUSH2 0x1D98 SWAP1 PUSH2 0x3863 JUMP JUMPDEST PUSH1 0x40 MLOAD DUP1 SWAP2 SUB SWAP1 REVERT JUMPDEST PUSH1 0x0 PUSH2 0x1DAB PUSH2 0x14F2 JUMP JUMPDEST SWAP1 POP PUSH2 0x1DCB DUP2 DUP8 DUP8 PUSH2 0x1DBC DUP9 PUSH2 0x244B JUMP JUMPDEST PUSH2 0x1DC5 DUP9 PUSH2 0x244B JUMP JUMPDEST DUP8 PUSH2 0x1FB6 JUMP JUMPDEST PUSH1 0x0 PUSH1 0x2 PUSH1 0x0 DUP7 DUP2 MSTORE PUSH1 0x20 ADD SWAP1 DUP2 MSTORE PUSH1 0x20 ADD PUSH1 0x0 KECCAK256 PUSH1 0x0 DUP9 PUSH20 0xFFFFFFFFFFFFFFFFFFFFFFFFFFFFFFFFFFFFFFFF AND PUSH20 0xFFFFFFFFFFFFFFFFFFFFFFFFFFFFFFFFFFFFFFFF AND DUP2 MSTORE PUSH1 0x20 ADD SWAP1 DUP2 MSTORE PUSH1 0x20 ADD PUSH1 0x0 KECCAK256 SLOAD SWAP1 POP DUP4 DUP2 LT ISZERO PUSH2 0x1E63 JUMPI PUSH1 0x40 MLOAD PUSH32 0x8C379A000000000000000000000000000000000000000000000000000000000 DUP2 MSTORE PUSH1 0x4 ADD PUSH2 0x1E5A SWAP1 PUSH2 0x38C3 JUMP JUMPDEST PUSH1 0x40 MLOAD DUP1 SWAP2 SUB SWAP1 REVERT JUMPDEST DUP4 DUP2 SUB PUSH1 0x2 PUSH1 0x0 DUP8 DUP2 MSTORE PUSH1 0x20 ADD SWAP1 DUP2 MSTORE PUSH1 0x20 ADD PUSH1 0x0 KECCAK256 PUSH1 0x0 DUP10 PUSH20 0xFFFFFFFFFFFFFFFFFFFFFFFFFFFFFFFFFFFFFFFF AND PUSH20 0xFFFFFFFFFFFFFFFFFFFFFFFFFFFFFFFFFFFFFFFF AND DUP2 MSTORE PUSH1 0x20 ADD SWAP1 DUP2 MSTORE PUSH1 0x20 ADD PUSH1 0x0 KECCAK256 DUP2 SWAP1 SSTORE POP DUP4 PUSH1 0x2 PUSH1 0x0 DUP8 DUP2 MSTORE PUSH1 0x20 ADD SWAP1 DUP2 MSTORE PUSH1 0x20 ADD PUSH1 0x0 KECCAK256 PUSH1 0x0 DUP9 PUSH20 0xFFFFFFFFFFFFFFFFFFFFFFFFFFFFFFFFFFFFFFFF AND PUSH20 0xFFFFFFFFFFFFFFFFFFFFFFFFFFFFFFFFFFFFFFFF AND DUP2 MSTORE PUSH1 0x20 ADD SWAP1 DUP2 MSTORE PUSH1 0x20 ADD PUSH1 0x0 KECCAK256 PUSH1 0x0 DUP3 DUP3 SLOAD PUSH2 0x1F1A SWAP2 SWAP1 PUSH2 0x3B86 JUMP JUMPDEST SWAP3 POP POP DUP2 SWAP1 SSTORE POP DUP6 PUSH20 0xFFFFFFFFFFFFFFFFFFFFFFFFFFFFFFFFFFFFFFFF AND DUP8 PUSH20 0xFFFFFFFFFFFFFFFFFFFFFFFFFFFFFFFFFFFFFFFF AND DUP4 PUSH20 0xFFFFFFFFFFFFFFFFFFFFFFFFFFFFFFFFFFFFFFFF AND PUSH32 0xC3D58168C5AE7397731D063D5BBF3D657854427343F4C083240F7AACAA2D0F62 DUP9 DUP9 PUSH1 0x40 MLOAD PUSH2 0x1F97 SWAP3 SWAP2 SWAP1 PUSH2 0x3A3E JUMP JUMPDEST PUSH1 0x40 MLOAD DUP1 SWAP2 SUB SWAP1 LOG4 PUSH2 0x1FAD DUP3 DUP9 DUP9 DUP9 DUP9 DUP9 PUSH2 0x24C5 JUMP JUMPDEST POP POP POP POP POP POP POP JUMP JUMPDEST POP POP POP POP POP POP JUMP JUMPDEST PUSH2 0x1FDD DUP5 PUSH20 0xFFFFFFFFFFFFFFFFFFFFFFFFFFFFFFFFFFFFFFFF AND PUSH2 0x26AC JUMP JUMPDEST ISZERO PUSH2 0x219D JUMPI DUP4 PUSH20 0xFFFFFFFFFFFFFFFFFFFFFFFFFFFFFFFFFFFFFFFF AND PUSH4 0xBC197C81 DUP8 DUP8 DUP7 DUP7 DUP7 PUSH1 0x40 MLOAD DUP7 PUSH4 0xFFFFFFFF AND PUSH1 0xE0 SHL DUP2 MSTORE PUSH1 0x4 ADD PUSH2 0x2023 SWAP6 SWAP5 SWAP4 SWAP3 SWAP2 SWAP1 PUSH2 0x350E JUMP JUMPDEST PUSH1 0x20 PUSH1 0x40 MLOAD DUP1 DUP4 SUB DUP2 PUSH1 0x0 DUP8 DUP1 EXTCODESIZE ISZERO DUP1 ISZERO PUSH2 0x203D JUMPI PUSH1 0x0 DUP1 REVERT JUMPDEST POP GAS CALL SWAP3 POP POP POP DUP1 ISZERO PUSH2 0x206E JUMPI POP PUSH1 0x40 MLOAD RETURNDATASIZE PUSH1 0x1F NOT PUSH1 0x1F DUP3 ADD AND DUP3 ADD DUP1 PUSH1 0x40 MSTORE POP DUP2 ADD SWAP1 PUSH2 0x206B SWAP2 SWAP1 PUSH2 0x3028 JUMP JUMPDEST PUSH1 0x1 JUMPDEST PUSH2 0x2114 JUMPI PUSH2 0x207A PUSH2 0x3EF1 JUMP JUMPDEST DUP1 PUSH4 0x8C379A0 EQ ISZERO PUSH2 0x20D7 JUMPI POP PUSH2 0x208F PUSH2 0x4443 JUMP JUMPDEST DUP1 PUSH2 0x209A JUMPI POP PUSH2 0x20D9 JUMP JUMPDEST DUP1 PUSH1 0x40 MLOAD PUSH32 0x8C379A000000000000000000000000000000000000000000000000000000000 DUP2 MSTORE PUSH1 0x4 ADD PUSH2 0x20CE SWAP2 SWAP1 PUSH2 0x37A1 JUMP JUMPDEST PUSH1 0x40 MLOAD DUP1 SWAP2 SUB SWAP1 REVERT JUMPDEST POP JUMPDEST PUSH1 0x40 MLOAD PUSH32 0x8C379A000000000000000000000000000000000000000000000000000000000 DUP2 MSTORE PUSH1 0x4 ADD PUSH2 0x210B SWAP1 PUSH2 0x37C3 JUMP JUMPDEST PUSH1 0x40 MLOAD DUP1 SWAP2 SUB SWAP1 REVERT JUMPDEST PUSH4 0xBC197C81 PUSH1 0xE0 SHL PUSH28 0xFFFFFFFFFFFFFFFFFFFFFFFFFFFFFFFFFFFFFFFFFFFFFFFFFFFFFFFF NOT AND DUP2 PUSH28 0xFFFFFFFFFFFFFFFFFFFFFFFFFFFFFFFFFFFFFFFFFFFFFFFFFFFFFFFF NOT AND EQ PUSH2 0x219B JUMPI PUSH1 0x40 MLOAD PUSH32 0x8C379A000000000000000000000000000000000000000000000000000000000 DUP2 MSTORE PUSH1 0x4 ADD PUSH2 0x2192 SWAP1 PUSH2 0x37E3 JUMP JUMPDEST PUSH1 0x40 MLOAD DUP1 SWAP2 SUB SWAP1 REVERT JUMPDEST POP JUMPDEST POP POP POP POP POP POP JUMP JUMPDEST PUSH1 0x0 DUP3 GT DUP1 ISZERO PUSH2 0x21B6 JUMPI POP PUSH1 0x28 DUP3 GT ISZERO JUMPDEST ISZERO PUSH2 0x21CB JUMPI PUSH2 0x21C6 PUSH1 0x4 DUP3 PUSH2 0x26BF JUMP JUMPDEST PUSH2 0x2263 JUMP JUMPDEST PUSH1 0x28 DUP3 GT DUP1 ISZERO PUSH2 0x21DC JUMPI POP PUSH1 0x41 DUP3 GT ISZERO JUMPDEST ISZERO PUSH2 0x21F1 JUMPI PUSH2 0x21EC PUSH1 0x3 DUP3 PUSH2 0x26BF JUMP JUMPDEST PUSH2 0x2262 JUMP JUMPDEST PUSH1 0x41 DUP3 GT DUP1 ISZERO PUSH2 0x2202 JUMPI POP PUSH1 0x55 DUP3 GT ISZERO JUMPDEST ISZERO PUSH2 0x2217 JUMPI PUSH2 0x2212 PUSH1 0x2 DUP3 PUSH2 0x26BF JUMP JUMPDEST PUSH2 0x2261 JUMP JUMPDEST PUSH1 0x55 DUP3 GT DUP1 ISZERO PUSH2 0x2228 JUMPI POP PUSH1 0x5F DUP3 GT ISZERO JUMPDEST ISZERO PUSH2 0x223D JUMPI PUSH2 0x2238 PUSH1 0x1 DUP3 PUSH2 0x26BF JUMP JUMPDEST PUSH2 0x2260 JUMP JUMPDEST PUSH1 0x5F DUP3 GT DUP1 ISZERO PUSH2 0x224E JUMPI POP PUSH1 0x64 DUP3 GT ISZERO JUMPDEST ISZERO PUSH2 0x225F JUMPI PUSH2 0x225E PUSH1 0x0 DUP3 PUSH2 0x26BF JUMP JUMPDEST JUMPDEST JUMPDEST JUMPDEST JUMPDEST JUMPDEST POP POP JUMP JUMPDEST PUSH1 0x0 DUP2 GT DUP1 ISZERO PUSH2 0x2278 JUMPI POP PUSH1 0x28 DUP2 GT ISZERO JUMPDEST ISZERO PUSH2 0x2282 JUMPI PUSH2 0x22E9 JUMP JUMPDEST PUSH1 0x28 DUP2 GT DUP1 ISZERO PUSH2 0x2293 JUMPI POP PUSH1 0x41 DUP2 GT ISZERO JUMPDEST ISZERO PUSH2 0x229D JUMPI PUSH2 0x22E8 JUMP JUMPDEST PUSH1 0x41 DUP2 GT DUP1 ISZERO PUSH2 0x22AE JUMPI POP PUSH1 0x55 DUP2 GT ISZERO JUMPDEST ISZERO PUSH2 0x22B8 JUMPI PUSH2 0x22E7 JUMP JUMPDEST PUSH1 0x55 DUP2 GT DUP1 ISZERO PUSH2 0x22C9 JUMPI POP PUSH1 0x5F DUP2 GT ISZERO JUMPDEST ISZERO PUSH2 0x22D3 JUMPI PUSH2 0x22E6 JUMP JUMPDEST PUSH1 0x5F DUP2 GT DUP1 ISZERO PUSH2 0x22E4 JUMPI POP PUSH1 0x64 DUP2 GT ISZERO JUMPDEST POP JUMPDEST JUMPDEST JUMPDEST JUMPDEST POP JUMP JUMPDEST PUSH1 0x0 PUSH32 0x0 PUSH20 0xFFFFFFFFFFFFFFFFFFFFFFFFFFFFFFFFFFFFFFFF AND PUSH4 0x4000AEA0 PUSH32 0x0 DUP5 DUP7 PUSH1 0x0 PUSH1 0x40 MLOAD PUSH1 0x20 ADD PUSH2 0x2360 SWAP3 SWAP2 SWAP1 PUSH2 0x36FD JUMP JUMPDEST PUSH1 0x40 MLOAD PUSH1 0x20 DUP2 DUP4 SUB SUB DUP2 MSTORE SWAP1 PUSH1 0x40 MSTORE PUSH1 0x40 MLOAD DUP5 PUSH4 0xFFFFFFFF AND PUSH1 0xE0 SHL DUP2 MSTORE PUSH1 0x4 ADD PUSH2 0x238D SWAP4 SWAP3 SWAP2 SWAP1 PUSH2 0x3630 JUMP JUMPDEST PUSH1 0x20 PUSH1 0x40 MLOAD DUP1 DUP4 SUB DUP2 PUSH1 0x0 DUP8 DUP1 EXTCODESIZE ISZERO DUP1 ISZERO PUSH2 0x23A7 JUMPI PUSH1 0x0 DUP1 REVERT JUMPDEST POP GAS CALL ISZERO DUP1 ISZERO PUSH2 0x23BB JUMPI RETURNDATASIZE PUSH1 0x0 DUP1 RETURNDATACOPY RETURNDATASIZE PUSH1 0x0 REVERT JUMPDEST POP POP POP POP PUSH1 0x40 MLOAD RETURNDATASIZE PUSH1 0x1F NOT PUSH1 0x1F DUP3 ADD AND DUP3 ADD DUP1 PUSH1 0x40 MSTORE POP DUP2 ADD SWAP1 PUSH2 0x23DF SWAP2 SWAP1 PUSH2 0x2F8E JUMP JUMPDEST POP PUSH1 0x0 PUSH2 0x2401 DUP5 PUSH1 0x0 ADDRESS PUSH1 0x0 DUP1 DUP10 DUP2 MSTORE PUSH1 0x20 ADD SWAP1 DUP2 MSTORE PUSH1 0x20 ADD PUSH1 0x0 KECCAK256 SLOAD PUSH2 0x2869 JUMP JUMPDEST SWAP1 POP PUSH1 0x1 PUSH1 0x0 DUP1 DUP7 DUP2 MSTORE PUSH1 0x20 ADD SWAP1 DUP2 MSTORE PUSH1 0x20 ADD PUSH1 0x0 KECCAK256 SLOAD PUSH2 0x2422 SWAP2 SWAP1 PUSH2 0x3B86 JUMP JUMPDEST PUSH1 0x0 DUP1 DUP7 DUP2 MSTORE PUSH1 0x20 ADD SWAP1 DUP2 MSTORE PUSH1 0x20 ADD PUSH1 0x0 KECCAK256 DUP2 SWAP1 SSTORE POP PUSH2 0x2442 DUP5 DUP3 PUSH2 0x28A5 JUMP JUMPDEST SWAP2 POP POP SWAP3 SWAP2 POP POP JUMP JUMPDEST PUSH1 0x60 PUSH1 0x0 PUSH1 0x1 PUSH8 0xFFFFFFFFFFFFFFFF DUP2 GT ISZERO PUSH2 0x246A JUMPI PUSH2 0x2469 PUSH2 0x3EC2 JUMP JUMPDEST JUMPDEST PUSH1 0x40 MLOAD SWAP1 DUP1 DUP3 MSTORE DUP1 PUSH1 0x20 MUL PUSH1 0x20 ADD DUP3 ADD PUSH1 0x40 MSTORE DUP1 ISZERO PUSH2 0x2498 JUMPI DUP2 PUSH1 0x20 ADD PUSH1 0x20 DUP3 MUL DUP1 CALLDATASIZE DUP4 CALLDATACOPY DUP1 DUP3 ADD SWAP2 POP POP SWAP1 POP JUMPDEST POP SWAP1 POP DUP3 DUP2 PUSH1 0x0 DUP2 MLOAD DUP2 LT PUSH2 0x24B0 JUMPI PUSH2 0x24AF PUSH2 0x3E93 JUMP JUMPDEST JUMPDEST PUSH1 0x20 MUL PUSH1 0x20 ADD ADD DUP2 DUP2 MSTORE POP POP DUP1 SWAP2 POP POP SWAP2 SWAP1 POP JUMP JUMPDEST PUSH2 0x24E4 DUP5 PUSH20 0xFFFFFFFFFFFFFFFFFFFFFFFFFFFFFFFFFFFFFFFF AND PUSH2 0x26AC JUMP JUMPDEST ISZERO PUSH2 0x26A4 JUMPI DUP4 PUSH20 0xFFFFFFFFFFFFFFFFFFFFFFFFFFFFFFFFFFFFFFFF AND PUSH4 0xF23A6E61 DUP8 DUP8 DUP7 DUP7 DUP7 PUSH1 0x40 MLOAD DUP7 PUSH4 0xFFFFFFFF AND PUSH1 0xE0 SHL DUP2 MSTORE PUSH1 0x4 ADD PUSH2 0x252A SWAP6 SWAP5 SWAP4 SWAP3 SWAP2 SWAP1 PUSH2 0x35AD JUMP JUMPDEST PUSH1 0x20 PUSH1 0x40 MLOAD DUP1 DUP4 SUB DUP2 PUSH1 0x0 DUP8 DUP1 EXTCODESIZE ISZERO DUP1 ISZERO PUSH2 0x2544 JUMPI PUSH1 0x0 DUP1 REVERT JUMPDEST POP GAS CALL SWAP3 POP POP POP DUP1 ISZERO PUSH2 0x2575 JUMPI POP PUSH1 0x40 MLOAD RETURNDATASIZE PUSH1 0x1F NOT PUSH1 0x1F DUP3 ADD AND DUP3 ADD DUP1 PUSH1 0x40 MSTORE POP DUP2 ADD SWAP1 PUSH2 0x2572 SWAP2 SWAP1 PUSH2 0x3028 JUMP JUMPDEST PUSH1 0x1 JUMPDEST PUSH2 0x261B JUMPI PUSH2 0x2581 PUSH2 0x3EF1 JUMP JUMPDEST DUP1 PUSH4 0x8C379A0 EQ ISZERO PUSH2 0x25DE JUMPI POP PUSH2 0x2596 PUSH2 0x4443 JUMP JUMPDEST DUP1 PUSH2 0x25A1 JUMPI POP PUSH2 0x25E0 JUMP JUMPDEST DUP1 PUSH1 0x40 MLOAD PUSH32 0x8C379A000000000000000000000000000000000000000000000000000000000 DUP2 MSTORE PUSH1 0x4 ADD PUSH2 0x25D5 SWAP2 SWAP1 PUSH2 0x37A1 JUMP JUMPDEST PUSH1 0x40 MLOAD DUP1 SWAP2 SUB SWAP1 REVERT JUMPDEST POP JUMPDEST PUSH1 0x40 MLOAD PUSH32 0x8C379A000000000000000000000000000000000000000000000000000000000 DUP2 MSTORE PUSH1 0x4 ADD PUSH2 0x2612 SWAP1 PUSH2 0x37C3 JUMP JUMPDEST PUSH1 0x40 MLOAD DUP1 SWAP2 SUB SWAP1 REVERT JUMPDEST PUSH4 0xF23A6E61 PUSH1 0xE0 SHL PUSH28 0xFFFFFFFFFFFFFFFFFFFFFFFFFFFFFFFFFFFFFFFFFFFFFFFFFFFFFFFF NOT AND DUP2 PUSH28 0xFFFFFFFFFFFFFFFFFFFFFFFFFFFFFFFFFFFFFFFFFFFFFFFFFFFFFFFF NOT AND EQ PUSH2 0x26A2 JUMPI PUSH1 0x40 MLOAD PUSH32 0x8C379A000000000000000000000000000000000000000000000000000000000 DUP2 MSTORE PUSH1 0x4 ADD PUSH2 0x2699 SWAP1 PUSH2 0x37E3 JUMP JUMPDEST PUSH1 0x40 MLOAD DUP1 SWAP2 SUB SWAP1 REVERT JUMPDEST POP JUMPDEST POP POP POP POP POP POP JUMP JUMPDEST PUSH1 0x0 DUP1 DUP3 EXTCODESIZE SWAP1 POP PUSH1 0x0 DUP2 GT SWAP2 POP POP SWAP2 SWAP1 POP JUMP JUMPDEST PUSH2 0x270E PUSH1 0x5 PUSH1 0x0 DUP4 DUP2 MSTORE PUSH1 0x20 ADD SWAP1 DUP2 MSTORE PUSH1 0x20 ADD PUSH1 0x0 KECCAK256 PUSH1 0x0 SWAP1 SLOAD SWAP1 PUSH2 0x100 EXP SWAP1 DIV PUSH20 0xFFFFFFFFFFFFFFFFFFFFFFFFFFFFFFFFFFFFFFFF AND DUP4 PUSH1 0x1 PUSH1 0x40 MLOAD DUP1 PUSH1 0x20 ADD PUSH1 0x40 MSTORE DUP1 PUSH1 0x0 DUP2 MSTORE POP PUSH2 0x28D8 JUMP JUMPDEST PUSH1 0x2 PUSH1 0x6 PUSH1 0x0 PUSH1 0x5 PUSH1 0x0 DUP6 DUP2 MSTORE PUSH1 0x20 ADD SWAP1 DUP2 MSTORE PUSH1 0x20 ADD PUSH1 0x0 KECCAK256 PUSH1 0x0 SWAP1 SLOAD SWAP1 PUSH2 0x100 EXP SWAP1 DIV PUSH20 0xFFFFFFFFFFFFFFFFFFFFFFFFFFFFFFFFFFFFFFFF AND PUSH20 0xFFFFFFFFFFFFFFFFFFFFFFFFFFFFFFFFFFFFFFFF AND PUSH20 0xFFFFFFFFFFFFFFFFFFFFFFFFFFFFFFFFFFFFFFFF AND DUP2 MSTORE PUSH1 0x20 ADD SWAP1 DUP2 MSTORE PUSH1 0x20 ADD PUSH1 0x0 KECCAK256 PUSH1 0x0 PUSH2 0x100 EXP DUP2 SLOAD DUP2 PUSH1 0xFF MUL NOT AND SWAP1 DUP4 PUSH1 0x2 DUP2 GT ISZERO PUSH2 0x27A4 JUMPI PUSH2 0x27A3 PUSH2 0x3E35 JUMP JUMPDEST JUMPDEST MUL OR SWAP1 SSTORE POP PUSH1 0x1 PUSH1 0x9 PUSH1 0x0 DUP3 DUP3 SLOAD PUSH2 0x27BC SWAP2 SWAP1 PUSH2 0x3B86 JUMP JUMPDEST SWAP3 POP POP DUP2 SWAP1 SSTORE POP PUSH32 0xA34E6B78E9A990F62E47BA1C3993FF82D0D748E22617D46C5A79C7B86D10E19B PUSH1 0x5 PUSH1 0x0 DUP4 DUP2 MSTORE PUSH1 0x20 ADD SWAP1 DUP2 MSTORE PUSH1 0x20 ADD PUSH1 0x0 KECCAK256 PUSH1 0x0 SWAP1 SLOAD SWAP1 PUSH2 0x100 EXP SWAP1 DIV PUSH20 0xFFFFFFFFFFFFFFFFFFFFFFFFFFFFFFFFFFFFFFFF AND DUP4 PUSH1 0x40 MLOAD PUSH2 0x2827 SWAP3 SWAP2 SWAP1 PUSH2 0x3607 JUMP JUMPDEST PUSH1 0x40 MLOAD DUP1 SWAP2 SUB SWAP1 LOG1 PUSH1 0x5 PUSH1 0x0 DUP3 DUP2 MSTORE PUSH1 0x20 ADD SWAP1 DUP2 MSTORE PUSH1 0x20 ADD PUSH1 0x0 KECCAK256 PUSH1 0x0 PUSH2 0x100 EXP DUP2 SLOAD SWAP1 PUSH20 0xFFFFFFFFFFFFFFFFFFFFFFFFFFFFFFFFFFFFFFFF MUL NOT AND SWAP1 SSTORE POP POP JUMP JUMPDEST PUSH1 0x0 DUP5 DUP5 DUP5 DUP5 PUSH1 0x40 MLOAD PUSH1 0x20 ADD PUSH2 0x2882 SWAP5 SWAP4 SWAP3 SWAP2 SWAP1 PUSH2 0x3726 JUMP JUMPDEST PUSH1 0x40 MLOAD PUSH1 0x20 DUP2 DUP4 SUB SUB DUP2 MSTORE SWAP1 PUSH1 0x40 MSTORE DUP1 MLOAD SWAP1 PUSH1 0x20 ADD KECCAK256 PUSH1 0x0 SHR SWAP1 POP SWAP5 SWAP4 POP POP POP POP JUMP JUMPDEST PUSH1 0x0 DUP3 DUP3 PUSH1 0x40 MLOAD PUSH1 0x20 ADD PUSH2 0x28BA SWAP3 SWAP2 SWAP1 PUSH2 0x34C7 JUMP JUMPDEST PUSH1 0x40 MLOAD PUSH1 0x20 DUP2 DUP4 SUB SUB DUP2 MSTORE SWAP1 PUSH1 0x40 MSTORE DUP1 MLOAD SWAP1 PUSH1 0x20 ADD KECCAK256 SWAP1 POP SWAP3 SWAP2 POP POP JUMP JUMPDEST PUSH1 0x0 PUSH20 0xFFFFFFFFFFFFFFFFFFFFFFFFFFFFFFFFFFFFFFFF AND DUP5 PUSH20 0xFFFFFFFFFFFFFFFFFFFFFFFFFFFFFFFFFFFFFFFF AND EQ ISZERO PUSH2 0x2948 JUMPI PUSH1 0x40 MLOAD PUSH32 0x8C379A000000000000000000000000000000000000000000000000000000000 DUP2 MSTORE PUSH1 0x4 ADD PUSH2 0x293F SWAP1 PUSH2 0x39E3 JUMP JUMPDEST PUSH1 0x40 MLOAD DUP1 SWAP2 SUB SWAP1 REVERT JUMPDEST PUSH1 0x0 PUSH2 0x2952 PUSH2 0x14F2 JUMP JUMPDEST SWAP1 POP PUSH2 0x2973 DUP2 PUSH1 0x0 DUP8 PUSH2 0x2964 DUP9 PUSH2 0x244B JUMP JUMPDEST PUSH2 0x296D DUP9 PUSH2 0x244B JUMP JUMPDEST DUP8 PUSH2 0x1FB6 JUMP JUMPDEST DUP3 PUSH1 0x2 PUSH1 0x0 DUP7 DUP2 MSTORE PUSH1 0x20 ADD SWAP1 DUP2 MSTORE PUSH1 0x20 ADD PUSH1 0x0 KECCAK256 PUSH1 0x0 DUP8 PUSH20 0xFFFFFFFFFFFFFFFFFFFFFFFFFFFFFFFFFFFFFFFF AND PUSH20 0xFFFFFFFFFFFFFFFFFFFFFFFFFFFFFFFFFFFFFFFF AND DUP2 MSTORE PUSH1 0x20 ADD SWAP1 DUP2 MSTORE PUSH1 0x20 ADD PUSH1 0x0 KECCAK256 PUSH1 0x0 DUP3 DUP3 SLOAD PUSH2 0x29D3 SWAP2 SWAP1 PUSH2 0x3B86 JUMP JUMPDEST SWAP3 POP POP DUP2 SWAP1 SSTORE POP DUP5 PUSH20 0xFFFFFFFFFFFFFFFFFFFFFFFFFFFFFFFFFFFFFFFF AND PUSH1 0x0 PUSH20 0xFFFFFFFFFFFFFFFFFFFFFFFFFFFFFFFFFFFFFFFF AND DUP3 PUSH20 0xFFFFFFFFFFFFFFFFFFFFFFFFFFFFFFFFFFFFFFFF AND PUSH32 0xC3D58168C5AE7397731D063D5BBF3D657854427343F4C083240F7AACAA2D0F62 DUP8 DUP8 PUSH1 0x40 MLOAD PUSH2 0x2A51 SWAP3 SWAP2 SWAP1 PUSH2 0x3A3E JUMP JUMPDEST PUSH1 0x40 MLOAD DUP1 SWAP2 SUB SWAP1 LOG4 PUSH2 0x2A68 DUP2 PUSH1 0x0 DUP8 DUP8 DUP8 DUP8 PUSH2 0x24C5 JUMP JUMPDEST POP POP POP POP POP JUMP JUMPDEST PUSH1 0x0 PUSH2 0x2A82 PUSH2 0x2A7D DUP5 PUSH2 0x3A8C JUMP JUMPDEST PUSH2 0x3A67 JUMP JUMPDEST SWAP1 POP DUP1 DUP4 DUP3 MSTORE PUSH1 0x20 DUP3 ADD SWAP1 POP DUP3 DUP6 PUSH1 0x20 DUP7 MUL DUP3 ADD GT ISZERO PUSH2 0x2AA5 JUMPI PUSH2 0x2AA4 PUSH2 0x3F18 JUMP JUMPDEST JUMPDEST PUSH1 0x0 JUMPDEST DUP6 DUP2 LT ISZERO PUSH2 0x2AD5 JUMPI DUP2 PUSH2 0x2ABB DUP9 DUP3 PUSH2 0x2B91 JUMP JUMPDEST DUP5 MSTORE PUSH1 0x20 DUP5 ADD SWAP4 POP PUSH1 0x20 DUP4 ADD SWAP3 POP POP PUSH1 0x1 DUP2 ADD SWAP1 POP PUSH2 0x2AA8 JUMP JUMPDEST POP POP POP SWAP4 SWAP3 POP POP POP JUMP JUMPDEST PUSH1 0x0 PUSH2 0x2AF2 PUSH2 0x2AED DUP5 PUSH2 0x3AB8 JUMP JUMPDEST PUSH2 0x3A67 JUMP JUMPDEST SWAP1 POP DUP1 DUP4 DUP3 MSTORE PUSH1 0x20 DUP3 ADD SWAP1 POP DUP3 DUP6 PUSH1 0x20 DUP7 MUL DUP3 ADD GT ISZERO PUSH2 0x2B15 JUMPI PUSH2 0x2B14 PUSH2 0x3F18 JUMP JUMPDEST JUMPDEST PUSH1 0x0 JUMPDEST DUP6 DUP2 LT ISZERO PUSH2 0x2B45 JUMPI DUP2 PUSH2 0x2B2B DUP9 DUP3 PUSH2 0x2C99 JUMP JUMPDEST DUP5 MSTORE PUSH1 0x20 DUP5 ADD SWAP4 POP PUSH1 0x20 DUP4 ADD SWAP3 POP POP PUSH1 0x1 DUP2 ADD SWAP1 POP PUSH2 0x2B18 JUMP JUMPDEST POP POP POP SWAP4 SWAP3 POP POP POP JUMP JUMPDEST PUSH1 0x0 PUSH2 0x2B62 PUSH2 0x2B5D DUP5 PUSH2 0x3AE4 JUMP JUMPDEST PUSH2 0x3A67 JUMP JUMPDEST SWAP1 POP DUP3 DUP2 MSTORE PUSH1 0x20 DUP2 ADD DUP5 DUP5 DUP5 ADD GT ISZERO PUSH2 0x2B7E JUMPI PUSH2 0x2B7D PUSH2 0x3F1D JUMP JUMPDEST JUMPDEST PUSH2 0x2B89 DUP5 DUP3 DUP6 PUSH2 0x3CA4 JUMP JUMPDEST POP SWAP4 SWAP3 POP POP POP JUMP JUMPDEST PUSH1 0x0 DUP2 CALLDATALOAD SWAP1 POP PUSH2 0x2BA0 DUP2 PUSH2 0x4501 JUMP JUMPDEST SWAP3 SWAP2 POP POP JUMP JUMPDEST PUSH1 0x0 DUP3 PUSH1 0x1F DUP4 ADD SLT PUSH2 0x2BBB JUMPI PUSH2 0x2BBA PUSH2 0x3F13 JUMP JUMPDEST JUMPDEST DUP2 CALLDATALOAD PUSH2 0x2BCB DUP5 DUP3 PUSH1 0x20 DUP7 ADD PUSH2 0x2A6F JUMP JUMPDEST SWAP2 POP POP SWAP3 SWAP2 POP POP JUMP JUMPDEST PUSH1 0x0 DUP3 PUSH1 0x1F DUP4 ADD SLT PUSH2 0x2BE9 JUMPI PUSH2 0x2BE8 PUSH2 0x3F13 JUMP JUMPDEST JUMPDEST DUP2 CALLDATALOAD PUSH2 0x2BF9 DUP5 DUP3 PUSH1 0x20 DUP7 ADD PUSH2 0x2ADF JUMP JUMPDEST SWAP2 POP POP SWAP3 SWAP2 POP POP JUMP JUMPDEST PUSH1 0x0 DUP2 CALLDATALOAD SWAP1 POP PUSH2 0x2C11 DUP2 PUSH2 0x4518 JUMP JUMPDEST SWAP3 SWAP2 POP POP JUMP JUMPDEST PUSH1 0x0 DUP2 MLOAD SWAP1 POP PUSH2 0x2C26 DUP2 PUSH2 0x4518 JUMP JUMPDEST SWAP3 SWAP2 POP POP JUMP JUMPDEST PUSH1 0x0 DUP2 CALLDATALOAD SWAP1 POP PUSH2 0x2C3B DUP2 PUSH2 0x452F JUMP JUMPDEST SWAP3 SWAP2 POP POP JUMP JUMPDEST PUSH1 0x0 DUP2 CALLDATALOAD SWAP1 POP PUSH2 0x2C50 DUP2 PUSH2 0x4546 JUMP JUMPDEST SWAP3 SWAP2 POP POP JUMP JUMPDEST PUSH1 0x0 DUP2 MLOAD SWAP1 POP PUSH2 0x2C65 DUP2 PUSH2 0x4546 JUMP JUMPDEST SWAP3 SWAP2 POP POP JUMP JUMPDEST PUSH1 0x0 DUP3 PUSH1 0x1F DUP4 ADD SLT PUSH2 0x2C80 JUMPI PUSH2 0x2C7F PUSH2 0x3F13 JUMP JUMPDEST JUMPDEST DUP2 CALLDATALOAD PUSH2 0x2C90 DUP5 DUP3 PUSH1 0x20 DUP7 ADD PUSH2 0x2B4F JUMP JUMPDEST SWAP2 POP POP SWAP3 SWAP2 POP POP JUMP JUMPDEST PUSH1 0x0 DUP2 CALLDATALOAD SWAP1 POP PUSH2 0x2CA8 DUP2 PUSH2 0x455D JUMP JUMPDEST SWAP3 SWAP2 POP POP JUMP JUMPDEST PUSH1 0x0 DUP2 MLOAD SWAP1 POP PUSH2 0x2CBD DUP2 PUSH2 0x455D JUMP JUMPDEST SWAP3 SWAP2 POP POP JUMP JUMPDEST PUSH1 0x0 PUSH1 0x20 DUP3 DUP5 SUB SLT ISZERO PUSH2 0x2CD9 JUMPI PUSH2 0x2CD8 PUSH2 0x3F27 JUMP JUMPDEST JUMPDEST PUSH1 0x0 PUSH2 0x2CE7 DUP5 DUP3 DUP6 ADD PUSH2 0x2B91 JUMP JUMPDEST SWAP2 POP POP SWAP3 SWAP2 POP POP JUMP JUMPDEST PUSH1 0x0 DUP1 PUSH1 0x40 DUP4 DUP6 SUB SLT ISZERO PUSH2 0x2D07 JUMPI PUSH2 0x2D06 PUSH2 0x3F27 JUMP JUMPDEST JUMPDEST PUSH1 0x0 PUSH2 0x2D15 DUP6 DUP3 DUP7 ADD PUSH2 0x2B91 JUMP JUMPDEST SWAP3 POP POP PUSH1 0x20 PUSH2 0x2D26 DUP6 DUP3 DUP7 ADD PUSH2 0x2B91 JUMP JUMPDEST SWAP2 POP POP SWAP3 POP SWAP3 SWAP1 POP JUMP JUMPDEST PUSH1 0x0 DUP1 PUSH1 0x0 DUP1 PUSH1 0x0 PUSH1 0xA0 DUP7 DUP9 SUB SLT ISZERO PUSH2 0x2D4C JUMPI PUSH2 0x2D4B PUSH2 0x3F27 JUMP JUMPDEST JUMPDEST PUSH1 0x0 PUSH2 0x2D5A DUP9 DUP3 DUP10 ADD PUSH2 0x2B91 JUMP JUMPDEST SWAP6 POP POP PUSH1 0x20 PUSH2 0x2D6B DUP9 DUP3 DUP10 ADD PUSH2 0x2B91 JUMP JUMPDEST SWAP5 POP POP PUSH1 0x40 DUP7 ADD CALLDATALOAD PUSH8 0xFFFFFFFFFFFFFFFF DUP2 GT ISZERO PUSH2 0x2D8C JUMPI PUSH2 0x2D8B PUSH2 0x3F22 JUMP JUMPDEST JUMPDEST PUSH2 0x2D98 DUP9 DUP3 DUP10 ADD PUSH2 0x2BD4 JUMP JUMPDEST SWAP4 POP POP PUSH1 0x60 DUP7 ADD CALLDATALOAD PUSH8 0xFFFFFFFFFFFFFFFF DUP2 GT ISZERO PUSH2 0x2DB9 JUMPI PUSH2 0x2DB8 PUSH2 0x3F22 JUMP JUMPDEST JUMPDEST PUSH2 0x2DC5 DUP9 DUP3 DUP10 ADD PUSH2 0x2BD4 JUMP JUMPDEST SWAP3 POP POP PUSH1 0x80 DUP7 ADD CALLDATALOAD PUSH8 0xFFFFFFFFFFFFFFFF DUP2 GT ISZERO PUSH2 0x2DE6 JUMPI PUSH2 0x2DE5 PUSH2 0x3F22 JUMP JUMPDEST JUMPDEST PUSH2 0x2DF2 DUP9 DUP3 DUP10 ADD PUSH2 0x2C6B JUMP JUMPDEST SWAP2 POP POP SWAP3 SWAP6 POP SWAP3 SWAP6 SWAP1 SWAP4 POP JUMP JUMPDEST PUSH1 0x0 DUP1 PUSH1 0x0 DUP1 PUSH1 0x0 PUSH1 0xA0 DUP7 DUP9 SUB SLT ISZERO PUSH2 0x2E1B JUMPI PUSH2 0x2E1A PUSH2 0x3F27 JUMP JUMPDEST JUMPDEST PUSH1 0x0 PUSH2 0x2E29 DUP9 DUP3 DUP10 ADD PUSH2 0x2B91 JUMP JUMPDEST SWAP6 POP POP PUSH1 0x20 PUSH2 0x2E3A DUP9 DUP3 DUP10 ADD PUSH2 0x2B91 JUMP JUMPDEST SWAP5 POP POP PUSH1 0x40 PUSH2 0x2E4B DUP9 DUP3 DUP10 ADD PUSH2 0x2C99 JUMP JUMPDEST SWAP4 POP POP PUSH1 0x60 PUSH2 0x2E5C DUP9 DUP3 DUP10 ADD PUSH2 0x2C99 JUMP JUMPDEST SWAP3 POP POP PUSH1 0x80 DUP7 ADD CALLDATALOAD PUSH8 0xFFFFFFFFFFFFFFFF DUP2 GT ISZERO PUSH2 0x2E7D JUMPI PUSH2 0x2E7C PUSH2 0x3F22 JUMP JUMPDEST JUMPDEST PUSH2 0x2E89 DUP9 DUP3 DUP10 ADD PUSH2 0x2C6B JUMP JUMPDEST SWAP2 POP POP SWAP3 SWAP6 POP SWAP3 SWAP6 SWAP1 SWAP4 POP JUMP JUMPDEST PUSH1 0x0 DUP1 PUSH1 0x40 DUP4 DUP6 SUB SLT ISZERO PUSH2 0x2EAD JUMPI PUSH2 0x2EAC PUSH2 0x3F27 JUMP JUMPDEST JUMPDEST PUSH1 0x0 PUSH2 0x2EBB DUP6 DUP3 DUP7 ADD PUSH2 0x2B91 JUMP JUMPDEST SWAP3 POP POP PUSH1 0x20 PUSH2 0x2ECC DUP6 DUP3 DUP7 ADD PUSH2 0x2C02 JUMP JUMPDEST SWAP2 POP POP SWAP3 POP SWAP3 SWAP1 POP JUMP JUMPDEST PUSH1 0x0 DUP1 PUSH1 0x40 DUP4 DUP6 SUB SLT ISZERO PUSH2 0x2EED JUMPI PUSH2 0x2EEC PUSH2 0x3F27 JUMP JUMPDEST JUMPDEST PUSH1 0x0 PUSH2 0x2EFB DUP6 DUP3 DUP7 ADD PUSH2 0x2B91 JUMP JUMPDEST SWAP3 POP POP PUSH1 0x20 PUSH2 0x2F0C DUP6 DUP3 DUP7 ADD PUSH2 0x2C99 JUMP JUMPDEST SWAP2 POP POP SWAP3 POP SWAP3 SWAP1 POP JUMP JUMPDEST PUSH1 0x0 DUP1 PUSH1 0x40 DUP4 DUP6 SUB SLT ISZERO PUSH2 0x2F2D JUMPI PUSH2 0x2F2C PUSH2 0x3F27 JUMP JUMPDEST JUMPDEST PUSH1 0x0 DUP4 ADD CALLDATALOAD PUSH8 0xFFFFFFFFFFFFFFFF DUP2 GT ISZERO PUSH2 0x2F4B JUMPI PUSH2 0x2F4A PUSH2 0x3F22 JUMP JUMPDEST JUMPDEST PUSH2 0x2F57 DUP6 DUP3 DUP7 ADD PUSH2 0x2BA6 JUMP JUMPDEST SWAP3 POP POP PUSH1 0x20 DUP4 ADD CALLDATALOAD PUSH8 0xFFFFFFFFFFFFFFFF DUP2 GT ISZERO PUSH2 0x2F78 JUMPI PUSH2 0x2F77 PUSH2 0x3F22 JUMP JUMPDEST JUMPDEST PUSH2 0x2F84 DUP6 DUP3 DUP7 ADD PUSH2 0x2BD4 JUMP JUMPDEST SWAP2 POP POP SWAP3 POP SWAP3 SWAP1 POP JUMP JUMPDEST PUSH1 0x0 PUSH1 0x20 DUP3 DUP5 SUB SLT ISZERO PUSH2 0x2FA4 JUMPI PUSH2 0x2FA3 PUSH2 0x3F27 JUMP JUMPDEST JUMPDEST PUSH1 0x0 PUSH2 0x2FB2 DUP5 DUP3 DUP6 ADD PUSH2 0x2C17 JUMP JUMPDEST SWAP2 POP POP SWAP3 SWAP2 POP POP JUMP JUMPDEST PUSH1 0x0 DUP1 PUSH1 0x40 DUP4 DUP6 SUB SLT ISZERO PUSH2 0x2FD2 JUMPI PUSH2 0x2FD1 PUSH2 0x3F27 JUMP JUMPDEST JUMPDEST PUSH1 0x0 PUSH2 0x2FE0 DUP6 DUP3 DUP7 ADD PUSH2 0x2C2C JUMP JUMPDEST SWAP3 POP POP PUSH1 0x20 PUSH2 0x2FF1 DUP6 DUP3 DUP7 ADD PUSH2 0x2C99 JUMP JUMPDEST SWAP2 POP POP SWAP3 POP SWAP3 SWAP1 POP JUMP JUMPDEST PUSH1 0x0 PUSH1 0x20 DUP3 DUP5 SUB SLT ISZERO PUSH2 0x3011 JUMPI PUSH2 0x3010 PUSH2 0x3F27 JUMP JUMPDEST JUMPDEST PUSH1 0x0 PUSH2 0x301F DUP5 DUP3 DUP6 ADD PUSH2 0x2C41 JUMP JUMPDEST SWAP2 POP POP SWAP3 SWAP2 POP POP JUMP JUMPDEST PUSH1 0x0 PUSH1 0x20 DUP3 DUP5 SUB SLT ISZERO PUSH2 0x303E JUMPI PUSH2 0x303D PUSH2 0x3F27 JUMP JUMPDEST JUMPDEST PUSH1 0x0 PUSH2 0x304C DUP5 DUP3 DUP6 ADD PUSH2 0x2C56 JUMP JUMPDEST SWAP2 POP POP SWAP3 SWAP2 POP POP JUMP JUMPDEST PUSH1 0x0 PUSH1 0x20 DUP3 DUP5 SUB SLT ISZERO PUSH2 0x306B JUMPI PUSH2 0x306A PUSH2 0x3F27 JUMP JUMPDEST JUMPDEST PUSH1 0x0 PUSH2 0x3079 DUP5 DUP3 DUP6 ADD PUSH2 0x2C99 JUMP JUMPDEST SWAP2 POP POP SWAP3 SWAP2 POP POP JUMP JUMPDEST PUSH1 0x0 PUSH1 0x20 DUP3 DUP5 SUB SLT ISZERO PUSH2 0x3098 JUMPI PUSH2 0x3097 PUSH2 0x3F27 JUMP JUMPDEST JUMPDEST PUSH1 0x0 PUSH2 0x30A6 DUP5 DUP3 DUP6 ADD PUSH2 0x2CAE JUMP JUMPDEST SWAP2 POP POP SWAP3 SWAP2 POP POP JUMP JUMPDEST PUSH1 0x0 PUSH2 0x30BB DUP4 DUP4 PUSH2 0x3492 JUMP JUMPDEST PUSH1 0x20 DUP4 ADD SWAP1 POP SWAP3 SWAP2 POP POP JUMP JUMPDEST PUSH2 0x30D0 DUP2 PUSH2 0x3BDC JUMP JUMPDEST DUP3 MSTORE POP POP JUMP JUMPDEST PUSH1 0x0 PUSH2 0x30E1 DUP3 PUSH2 0x3B25 JUMP JUMPDEST PUSH2 0x30EB DUP2 DUP6 PUSH2 0x3B53 JUMP JUMPDEST SWAP4 POP PUSH2 0x30F6 DUP4 PUSH2 0x3B15 JUMP JUMPDEST DUP1 PUSH1 0x0 JUMPDEST DUP4 DUP2 LT ISZERO PUSH2 0x3127 JUMPI DUP2 MLOAD PUSH2 0x310E DUP9 DUP3 PUSH2 0x30AF JUMP JUMPDEST SWAP8 POP PUSH2 0x3119 DUP4 PUSH2 0x3B46 JUMP JUMPDEST SWAP3 POP POP PUSH1 0x1 DUP2 ADD SWAP1 POP PUSH2 0x30FA JUMP JUMPDEST POP DUP6 SWAP4 POP POP POP POP SWAP3 SWAP2 POP POP JUMP JUMPDEST PUSH2 0x313D DUP2 PUSH2 0x3BEE JUMP JUMPDEST DUP3 MSTORE POP POP JUMP JUMPDEST PUSH2 0x314C DUP2 PUSH2 0x3BFA JUMP JUMPDEST DUP3 MSTORE POP POP JUMP JUMPDEST PUSH2 0x3163 PUSH2 0x315E DUP3 PUSH2 0x3BFA JUMP JUMPDEST PUSH2 0x3D92 JUMP JUMPDEST DUP3 MSTORE POP POP JUMP JUMPDEST PUSH1 0x0 PUSH2 0x3174 DUP3 PUSH2 0x3B30 JUMP JUMPDEST PUSH2 0x317E DUP2 DUP6 PUSH2 0x3B64 JUMP JUMPDEST SWAP4 POP PUSH2 0x318E DUP2 DUP6 PUSH1 0x20 DUP7 ADD PUSH2 0x3CB3 JUMP JUMPDEST PUSH2 0x3197 DUP2 PUSH2 0x3F2C JUMP JUMPDEST DUP5 ADD SWAP2 POP POP SWAP3 SWAP2 POP POP JUMP JUMPDEST PUSH2 0x31AB DUP2 PUSH2 0x3C80 JUMP JUMPDEST DUP3 MSTORE POP POP JUMP JUMPDEST PUSH2 0x31BA DUP2 PUSH2 0x3C92 JUMP JUMPDEST DUP3 MSTORE POP POP JUMP JUMPDEST PUSH1 0x0 PUSH2 0x31CB DUP3 PUSH2 0x3B3B JUMP JUMPDEST PUSH2 0x31D5 DUP2 DUP6 PUSH2 0x3B75 JUMP JUMPDEST SWAP4 POP PUSH2 0x31E5 DUP2 DUP6 PUSH1 0x20 DUP7 ADD PUSH2 0x3CB3 JUMP JUMPDEST PUSH2 0x31EE DUP2 PUSH2 0x3F2C JUMP JUMPDEST DUP5 ADD SWAP2 POP POP SWAP3 SWAP2 POP POP JUMP JUMPDEST PUSH1 0x0 PUSH2 0x3206 PUSH1 0x34 DUP4 PUSH2 0x3B75 JUMP JUMPDEST SWAP2 POP PUSH2 0x3211 DUP3 PUSH2 0x3F4A JUMP JUMPDEST PUSH1 0x40 DUP3 ADD SWAP1 POP SWAP2 SWAP1 POP JUMP JUMPDEST PUSH1 0x0 PUSH2 0x3229 PUSH1 0x28 DUP4 PUSH2 0x3B75 JUMP JUMPDEST SWAP2 POP PUSH2 0x3234 DUP3 PUSH2 0x3F99 JUMP JUMPDEST PUSH1 0x40 DUP3 ADD SWAP1 POP SWAP2 SWAP1 POP JUMP JUMPDEST PUSH1 0x0 PUSH2 0x324C PUSH1 0x2B DUP4 PUSH2 0x3B75 JUMP JUMPDEST SWAP2 POP PUSH2 0x3257 DUP3 PUSH2 0x3FE8 JUMP JUMPDEST PUSH1 0x40 DUP3 ADD SWAP1 POP SWAP2 SWAP1 POP JUMP JUMPDEST PUSH1 0x0 PUSH2 0x326F PUSH1 0x26 DUP4 PUSH2 0x3B75 JUMP JUMPDEST SWAP2 POP PUSH2 0x327A DUP3 PUSH2 0x4037 JUMP JUMPDEST PUSH1 0x40 DUP3 ADD SWAP1 POP SWAP2 SWAP1 POP JUMP JUMPDEST PUSH1 0x0 PUSH2 0x3292 PUSH1 0x29 DUP4 PUSH2 0x3B75 JUMP JUMPDEST SWAP2 POP PUSH2 0x329D DUP3 PUSH2 0x4086 JUMP JUMPDEST PUSH1 0x40 DUP3 ADD SWAP1 POP SWAP2 SWAP1 POP JUMP JUMPDEST PUSH1 0x0 PUSH2 0x32B5 PUSH1 0x25 DUP4 PUSH2 0x3B75 JUMP JUMPDEST SWAP2 POP PUSH2 0x32C0 DUP3 PUSH2 0x40D5 JUMP JUMPDEST PUSH1 0x40 DUP3 ADD SWAP1 POP SWAP2 SWAP1 POP JUMP JUMPDEST PUSH1 0x0 PUSH2 0x32D8 PUSH1 0x32 DUP4 PUSH2 0x3B75 JUMP JUMPDEST SWAP2 POP PUSH2 0x32E3 DUP3 PUSH2 0x4124 JUMP JUMPDEST PUSH1 0x40 DUP3 ADD SWAP1 POP SWAP2 SWAP1 POP JUMP JUMPDEST PUSH1 0x0 PUSH2 0x32FB PUSH1 0x1C DUP4 PUSH2 0x3B75 JUMP JUMPDEST SWAP2 POP PUSH2 0x3306 DUP3 PUSH2 0x4173 JUMP JUMPDEST PUSH1 0x20 DUP3 ADD SWAP1 POP SWAP2 SWAP1 POP JUMP JUMPDEST PUSH1 0x0 PUSH2 0x331E PUSH1 0x2A DUP4 PUSH2 0x3B75 JUMP JUMPDEST SWAP2 POP PUSH2 0x3329 DUP3 PUSH2 0x419C JUMP JUMPDEST PUSH1 0x40 DUP3 ADD SWAP1 POP SWAP2 SWAP1 POP JUMP JUMPDEST PUSH1 0x0 PUSH2 0x3341 PUSH1 0x20 DUP4 PUSH2 0x3B75 JUMP JUMPDEST SWAP2 POP PUSH2 0x334C DUP3 PUSH2 0x41EB JUMP JUMPDEST PUSH1 0x20 DUP3 ADD SWAP1 POP SWAP2 SWAP1 POP JUMP JUMPDEST PUSH1 0x0 PUSH2 0x3364 PUSH1 0x1F DUP4 PUSH2 0x3B75 JUMP JUMPDEST SWAP2 POP PUSH2 0x336F DUP3 PUSH2 0x4214 JUMP JUMPDEST PUSH1 0x20 DUP3 ADD SWAP1 POP SWAP2 SWAP1 POP JUMP JUMPDEST PUSH1 0x0 PUSH2 0x3387 PUSH1 0x1A DUP4 PUSH2 0x3B75 JUMP JUMPDEST SWAP2 POP PUSH2 0x3392 DUP3 PUSH2 0x423D JUMP JUMPDEST PUSH1 0x20 DUP3 ADD SWAP1 POP SWAP2 SWAP1 POP JUMP JUMPDEST PUSH1 0x0 PUSH2 0x33AA PUSH1 0x21 DUP4 PUSH2 0x3B75 JUMP JUMPDEST SWAP2 POP PUSH2 0x33B5 DUP3 PUSH2 0x4266 JUMP JUMPDEST PUSH1 0x40 DUP3 ADD SWAP1 POP SWAP2 SWAP1 POP JUMP JUMPDEST PUSH1 0x0 PUSH2 0x33CD PUSH1 0x18 DUP4 PUSH2 0x3B75 JUMP JUMPDEST SWAP2 POP PUSH2 0x33D8 DUP3 PUSH2 0x42B5 JUMP JUMPDEST PUSH1 0x20 DUP3 ADD SWAP1 POP SWAP2 SWAP1 POP JUMP JUMPDEST PUSH1 0x0 PUSH2 0x33F0 PUSH1 0x29 DUP4 PUSH2 0x3B75 JUMP JUMPDEST SWAP2 POP PUSH2 0x33FB DUP3 PUSH2 0x42DE JUMP JUMPDEST PUSH1 0x40 DUP3 ADD SWAP1 POP SWAP2 SWAP1 POP JUMP JUMPDEST PUSH1 0x0 PUSH2 0x3413 PUSH1 0x29 DUP4 PUSH2 0x3B75 JUMP JUMPDEST SWAP2 POP PUSH2 0x341E DUP3 PUSH2 0x432D JUMP JUMPDEST PUSH1 0x40 DUP3 ADD SWAP1 POP SWAP2 SWAP1 POP JUMP JUMPDEST PUSH1 0x0 PUSH2 0x3436 PUSH1 0x28 DUP4 PUSH2 0x3B75 JUMP JUMPDEST SWAP2 POP PUSH2 0x3441 DUP3 PUSH2 0x437C JUMP JUMPDEST PUSH1 0x40 DUP3 ADD SWAP1 POP SWAP2 SWAP1 POP JUMP JUMPDEST PUSH1 0x0 PUSH2 0x3459 PUSH1 0x21 DUP4 PUSH2 0x3B75 JUMP JUMPDEST SWAP2 POP PUSH2 0x3464 DUP3 PUSH2 0x43CB JUMP JUMPDEST PUSH1 0x40 DUP3 ADD SWAP1 POP SWAP2 SWAP1 POP JUMP JUMPDEST PUSH1 0x0 PUSH2 0x347C PUSH1 0x16 DUP4 PUSH2 0x3B75 JUMP JUMPDEST SWAP2 POP PUSH2 0x3487 DUP3 PUSH2 0x441A JUMP JUMPDEST PUSH1 0x20 DUP3 ADD SWAP1 POP SWAP2 SWAP1 POP JUMP JUMPDEST PUSH2 0x349B DUP2 PUSH2 0x3C76 JUMP JUMPDEST DUP3 MSTORE POP POP JUMP JUMPDEST PUSH2 0x34AA DUP2 PUSH2 0x3C76 JUMP JUMPDEST DUP3 MSTORE POP POP JUMP JUMPDEST PUSH2 0x34C1 PUSH2 0x34BC DUP3 PUSH2 0x3C76 JUMP JUMPDEST PUSH2 0x3D9C JUMP JUMPDEST DUP3 MSTORE POP POP JUMP JUMPDEST PUSH1 0x0 PUSH2 0x34D3 DUP3 DUP6 PUSH2 0x3152 JUMP JUMPDEST PUSH1 0x20 DUP3 ADD SWAP2 POP PUSH2 0x34E3 DUP3 DUP5 PUSH2 0x34B0 JUMP JUMPDEST PUSH1 0x20 DUP3 ADD SWAP2 POP DUP2 SWAP1 POP SWAP4 SWAP3 POP POP POP JUMP JUMPDEST PUSH1 0x0 PUSH1 0x20 DUP3 ADD SWAP1 POP PUSH2 0x3508 PUSH1 0x0 DUP4 ADD DUP5 PUSH2 0x30C7 JUMP JUMPDEST SWAP3 SWAP2 POP POP JUMP JUMPDEST PUSH1 0x0 PUSH1 0xA0 DUP3 ADD SWAP1 POP PUSH2 0x3523 PUSH1 0x0 DUP4 ADD DUP9 PUSH2 0x30C7 JUMP JUMPDEST PUSH2 0x3530 PUSH1 0x20 DUP4 ADD DUP8 PUSH2 0x30C7 JUMP JUMPDEST DUP2 DUP2 SUB PUSH1 0x40 DUP4 ADD MSTORE PUSH2 0x3542 DUP2 DUP7 PUSH2 0x30D6 JUMP JUMPDEST SWAP1 POP DUP2 DUP2 SUB PUSH1 0x60 DUP4 ADD MSTORE PUSH2 0x3556 DUP2 DUP6 PUSH2 0x30D6 JUMP JUMPDEST SWAP1 POP DUP2 DUP2 SUB PUSH1 0x80 DUP4 ADD MSTORE PUSH2 0x356A DUP2 DUP5 PUSH2 0x3169 JUMP JUMPDEST SWAP1 POP SWAP7 SWAP6 POP POP POP POP POP POP JUMP JUMPDEST PUSH1 0x0 PUSH1 0x60 DUP3 ADD SWAP1 POP PUSH2 0x358B PUSH1 0x0 DUP4 ADD DUP7 PUSH2 0x30C7 JUMP JUMPDEST PUSH2 0x3598 PUSH1 0x20 DUP4 ADD DUP6 PUSH2 0x30C7 JUMP JUMPDEST PUSH2 0x35A5 PUSH1 0x40 DUP4 ADD DUP5 PUSH2 0x34A1 JUMP JUMPDEST SWAP5 SWAP4 POP POP POP POP JUMP JUMPDEST PUSH1 0x0 PUSH1 0xA0 DUP3 ADD SWAP1 POP PUSH2 0x35C2 PUSH1 0x0 DUP4 ADD DUP9 PUSH2 0x30C7 JUMP JUMPDEST PUSH2 0x35CF PUSH1 0x20 DUP4 ADD DUP8 PUSH2 0x30C7 JUMP JUMPDEST PUSH2 0x35DC PUSH1 0x40 DUP4 ADD DUP7 PUSH2 0x34A1 JUMP JUMPDEST PUSH2 0x35E9 PUSH1 0x60 DUP4 ADD DUP6 PUSH2 0x34A1 JUMP JUMPDEST DUP2 DUP2 SUB PUSH1 0x80 DUP4 ADD MSTORE PUSH2 0x35FB DUP2 DUP5 PUSH2 0x3169 JUMP JUMPDEST SWAP1 POP SWAP7 SWAP6 POP POP POP POP POP POP JUMP JUMPDEST PUSH1 0x0 PUSH1 0x40 DUP3 ADD SWAP1 POP PUSH2 0x361C PUSH1 0x0 DUP4 ADD DUP6 PUSH2 0x30C7 JUMP JUMPDEST PUSH2 0x3629 PUSH1 0x20 DUP4 ADD DUP5 PUSH2 0x34A1 JUMP JUMPDEST SWAP4 SWAP3 POP POP POP JUMP JUMPDEST PUSH1 0x0 PUSH1 0x60 DUP3 ADD SWAP1 POP PUSH2 0x3645 PUSH1 0x0 DUP4 ADD DUP7 PUSH2 0x30C7 JUMP JUMPDEST PUSH2 0x3652 PUSH1 0x20 DUP4 ADD DUP6 PUSH2 0x34A1 JUMP JUMPDEST DUP2 DUP2 SUB PUSH1 0x40 DUP4 ADD MSTORE PUSH2 0x3664 DUP2 DUP5 PUSH2 0x3169 JUMP JUMPDEST SWAP1 POP SWAP5 SWAP4 POP POP POP POP JUMP JUMPDEST PUSH1 0x0 PUSH1 0x20 DUP3 ADD SWAP1 POP DUP2 DUP2 SUB PUSH1 0x0 DUP4 ADD MSTORE PUSH2 0x3688 DUP2 DUP5 PUSH2 0x30D6 JUMP JUMPDEST SWAP1 POP SWAP3 SWAP2 POP POP JUMP JUMPDEST PUSH1 0x0 PUSH1 0x40 DUP3 ADD SWAP1 POP DUP2 DUP2 SUB PUSH1 0x0 DUP4 ADD MSTORE PUSH2 0x36AA DUP2 DUP6 PUSH2 0x30D6 JUMP JUMPDEST SWAP1 POP DUP2 DUP2 SUB PUSH1 0x20 DUP4 ADD MSTORE PUSH2 0x36BE DUP2 DUP5 PUSH2 0x30D6 JUMP JUMPDEST SWAP1 POP SWAP4 SWAP3 POP POP POP JUMP JUMPDEST PUSH1 0x0 PUSH1 0x20 DUP3 ADD SWAP1 POP PUSH2 0x36DC PUSH1 0x0 DUP4 ADD DUP5 PUSH2 0x3134 JUMP JUMPDEST SWAP3 SWAP2 POP POP JUMP JUMPDEST PUSH1 0x0 PUSH1 0x20 DUP3 ADD SWAP1 POP PUSH2 0x36F7 PUSH1 0x0 DUP4 ADD DUP5 PUSH2 0x3143 JUMP JUMPDEST SWAP3 SWAP2 POP POP JUMP JUMPDEST PUSH1 0x0 PUSH1 0x40 DUP3 ADD SWAP1 POP PUSH2 0x3712 PUSH1 0x0 DUP4 ADD DUP6 PUSH2 0x3143 JUMP JUMPDEST PUSH2 0x371F PUSH1 0x20 DUP4 ADD DUP5 PUSH2 0x34A1 JUMP JUMPDEST SWAP4 SWAP3 POP POP POP JUMP JUMPDEST PUSH1 0x0 PUSH1 0x80 DUP3 ADD SWAP1 POP PUSH2 0x373B PUSH1 0x0 DUP4 ADD DUP8 PUSH2 0x3143 JUMP JUMPDEST PUSH2 0x3748 PUSH1 0x20 DUP4 ADD DUP7 PUSH2 0x34A1 JUMP JUMPDEST PUSH2 0x3755 PUSH1 0x40 DUP4 ADD DUP6 PUSH2 0x30C7 JUMP JUMPDEST PUSH2 0x3762 PUSH1 0x60 DUP4 ADD DUP5 PUSH2 0x34A1 JUMP JUMPDEST SWAP6 SWAP5 POP POP POP POP POP JUMP JUMPDEST PUSH1 0x0 PUSH1 0x20 DUP3 ADD SWAP1 POP PUSH2 0x3780 PUSH1 0x0 DUP4 ADD DUP5 PUSH2 0x31A2 JUMP JUMPDEST SWAP3 SWAP2 POP POP JUMP JUMPDEST PUSH1 0x0 PUSH1 0x20 DUP3 ADD SWAP1 POP PUSH2 0x379B PUSH1 0x0 DUP4 ADD DUP5 PUSH2 0x31B1 JUMP JUMPDEST SWAP3 SWAP2 POP POP JUMP JUMPDEST PUSH1 0x0 PUSH1 0x20 DUP3 ADD SWAP1 POP DUP2 DUP2 SUB PUSH1 0x0 DUP4 ADD MSTORE PUSH2 0x37BB DUP2 DUP5 PUSH2 0x31C0 JUMP JUMPDEST SWAP1 POP SWAP3 SWAP2 POP POP JUMP JUMPDEST PUSH1 0x0 PUSH1 0x20 DUP3 ADD SWAP1 POP DUP2 DUP2 SUB PUSH1 0x0 DUP4 ADD MSTORE PUSH2 0x37DC DUP2 PUSH2 0x31F9 JUMP JUMPDEST SWAP1 POP SWAP2 SWAP1 POP JUMP JUMPDEST PUSH1 0x0 PUSH1 0x20 DUP3 ADD SWAP1 POP DUP2 DUP2 SUB PUSH1 0x0 DUP4 ADD MSTORE PUSH2 0x37FC DUP2 PUSH2 0x321C JUMP JUMPDEST SWAP1 POP SWAP2 SWAP1 POP JUMP JUMPDEST PUSH1 0x0 PUSH1 0x20 DUP3 ADD SWAP1 POP DUP2 DUP2 SUB PUSH1 0x0 DUP4 ADD MSTORE PUSH2 0x381C DUP2 PUSH2 0x323F JUMP JUMPDEST SWAP1 POP SWAP2 SWAP1 POP JUMP JUMPDEST PUSH1 0x0 PUSH1 0x20 DUP3 ADD SWAP1 POP DUP2 DUP2 SUB PUSH1 0x0 DUP4 ADD MSTORE PUSH2 0x383C DUP2 PUSH2 0x3262 JUMP JUMPDEST SWAP1 POP SWAP2 SWAP1 POP JUMP JUMPDEST PUSH1 0x0 PUSH1 0x20 DUP3 ADD SWAP1 POP DUP2 DUP2 SUB PUSH1 0x0 DUP4 ADD MSTORE PUSH2 0x385C DUP2 PUSH2 0x3285 JUMP JUMPDEST SWAP1 POP SWAP2 SWAP1 POP JUMP JUMPDEST PUSH1 0x0 PUSH1 0x20 DUP3 ADD SWAP1 POP DUP2 DUP2 SUB PUSH1 0x0 DUP4 ADD MSTORE PUSH2 0x387C DUP2 PUSH2 0x32A8 JUMP JUMPDEST SWAP1 POP SWAP2 SWAP1 POP JUMP JUMPDEST PUSH1 0x0 PUSH1 0x20 DUP3 ADD SWAP1 POP DUP2 DUP2 SUB PUSH1 0x0 DUP4 ADD MSTORE PUSH2 0x389C DUP2 PUSH2 0x32CB JUMP JUMPDEST SWAP1 POP SWAP2 SWAP1 POP JUMP JUMPDEST PUSH1 0x0 PUSH1 0x20 DUP3 ADD SWAP1 POP DUP2 DUP2 SUB PUSH1 0x0 DUP4 ADD MSTORE PUSH2 0x38BC DUP2 PUSH2 0x32EE JUMP JUMPDEST SWAP1 POP SWAP2 SWAP1 POP JUMP JUMPDEST PUSH1 0x0 PUSH1 0x20 DUP3 ADD SWAP1 POP DUP2 DUP2 SUB PUSH1 0x0 DUP4 ADD MSTORE PUSH2 0x38DC DUP2 PUSH2 0x3311 JUMP JUMPDEST SWAP1 POP SWAP2 SWAP1 POP JUMP JUMPDEST PUSH1 0x0 PUSH1 0x20 DUP3 ADD SWAP1 POP DUP2 DUP2 SUB PUSH1 0x0 DUP4 ADD MSTORE PUSH2 0x38FC DUP2 PUSH2 0x3334 JUMP JUMPDEST SWAP1 POP SWAP2 SWAP1 POP JUMP JUMPDEST PUSH1 0x0 PUSH1 0x20 DUP3 ADD SWAP1 POP DUP2 DUP2 SUB PUSH1 0x0 DUP4 ADD MSTORE PUSH2 0x391C DUP2 PUSH2 0x3357 JUMP JUMPDEST SWAP1 POP SWAP2 SWAP1 POP JUMP JUMPDEST PUSH1 0x0 PUSH1 0x20 DUP3 ADD SWAP1 POP DUP2 DUP2 SUB PUSH1 0x0 DUP4 ADD MSTORE PUSH2 0x393C DUP2 PUSH2 0x337A JUMP JUMPDEST SWAP1 POP SWAP2 SWAP1 POP JUMP JUMPDEST PUSH1 0x0 PUSH1 0x20 DUP3 ADD SWAP1 POP DUP2 DUP2 SUB PUSH1 0x0 DUP4 ADD MSTORE PUSH2 0x395C DUP2 PUSH2 0x339D JUMP JUMPDEST SWAP1 POP SWAP2 SWAP1 POP JUMP JUMPDEST PUSH1 0x0 PUSH1 0x20 DUP3 ADD SWAP1 POP DUP2 DUP2 SUB PUSH1 0x0 DUP4 ADD MSTORE PUSH2 0x397C DUP2 PUSH2 0x33C0 JUMP JUMPDEST SWAP1 POP SWAP2 SWAP1 POP JUMP JUMPDEST PUSH1 0x0 PUSH1 0x20 DUP3 ADD SWAP1 POP DUP2 DUP2 SUB PUSH1 0x0 DUP4 ADD MSTORE PUSH2 0x399C DUP2 PUSH2 0x33E3 JUMP JUMPDEST SWAP1 POP SWAP2 SWAP1 POP JUMP JUMPDEST PUSH1 0x0 PUSH1 0x20 DUP3 ADD SWAP1 POP DUP2 DUP2 SUB PUSH1 0x0 DUP4 ADD MSTORE PUSH2 0x39BC DUP2 PUSH2 0x3406 JUMP JUMPDEST SWAP1 POP SWAP2 SWAP1 POP JUMP JUMPDEST PUSH1 0x0 PUSH1 0x20 DUP3 ADD SWAP1 POP DUP2 DUP2 SUB PUSH1 0x0 DUP4 ADD MSTORE PUSH2 0x39DC DUP2 PUSH2 0x3429 JUMP JUMPDEST SWAP1 POP SWAP2 SWAP1 POP JUMP JUMPDEST PUSH1 0x0 PUSH1 0x20 DUP3 ADD SWAP1 POP DUP2 DUP2 SUB PUSH1 0x0 DUP4 ADD MSTORE PUSH2 0x39FC DUP2 PUSH2 0x344C JUMP JUMPDEST SWAP1 POP SWAP2 SWAP1 POP JUMP JUMPDEST PUSH1 0x0 PUSH1 0x20 DUP3 ADD SWAP1 POP DUP2 DUP2 SUB PUSH1 0x0 DUP4 ADD MSTORE PUSH2 0x3A1C DUP2 PUSH2 0x346F JUMP JUMPDEST SWAP1 POP SWAP2 SWAP1 POP JUMP JUMPDEST PUSH1 0x0 PUSH1 0x20 DUP3 ADD SWAP1 POP PUSH2 0x3A38 PUSH1 0x0 DUP4 ADD DUP5 PUSH2 0x34A1 JUMP JUMPDEST SWAP3 SWAP2 POP POP JUMP JUMPDEST PUSH1 0x0 PUSH1 0x40 DUP3 ADD SWAP1 POP PUSH2 0x3A53 PUSH1 0x0 DUP4 ADD DUP6 PUSH2 0x34A1 JUMP JUMPDEST PUSH2 0x3A60 PUSH1 0x20 DUP4 ADD DUP5 PUSH2 0x34A1 JUMP JUMPDEST SWAP4 SWAP3 POP POP POP JUMP JUMPDEST PUSH1 0x0 PUSH2 0x3A71 PUSH2 0x3A82 JUMP JUMPDEST SWAP1 POP PUSH2 0x3A7D DUP3 DUP3 PUSH2 0x3D18 JUMP JUMPDEST SWAP2 SWAP1 POP JUMP JUMPDEST PUSH1 0x0 PUSH1 0x40 MLOAD SWAP1 POP SWAP1 JUMP JUMPDEST PUSH1 0x0 PUSH8 0xFFFFFFFFFFFFFFFF DUP3 GT ISZERO PUSH2 0x3AA7 JUMPI PUSH2 0x3AA6 PUSH2 0x3EC2 JUMP JUMPDEST JUMPDEST PUSH1 0x20 DUP3 MUL SWAP1 POP PUSH1 0x20 DUP2 ADD SWAP1 POP SWAP2 SWAP1 POP JUMP JUMPDEST PUSH1 0x0 PUSH8 0xFFFFFFFFFFFFFFFF DUP3 GT ISZERO PUSH2 0x3AD3 JUMPI PUSH2 0x3AD2 PUSH2 0x3EC2 JUMP JUMPDEST JUMPDEST PUSH1 0x20 DUP3 MUL SWAP1 POP PUSH1 0x20 DUP2 ADD SWAP1 POP SWAP2 SWAP1 POP JUMP JUMPDEST PUSH1 0x0 PUSH8 0xFFFFFFFFFFFFFFFF DUP3 GT ISZERO PUSH2 0x3AFF JUMPI PUSH2 0x3AFE PUSH2 0x3EC2 JUMP JUMPDEST JUMPDEST PUSH2 0x3B08 DUP3 PUSH2 0x3F2C JUMP JUMPDEST SWAP1 POP PUSH1 0x20 DUP2 ADD SWAP1 POP SWAP2 SWAP1 POP JUMP JUMPDEST PUSH1 0x0 DUP2 SWAP1 POP PUSH1 0x20 DUP3 ADD SWAP1 POP SWAP2 SWAP1 POP JUMP JUMPDEST PUSH1 0x0 DUP2 MLOAD SWAP1 POP SWAP2 SWAP1 POP JUMP JUMPDEST PUSH1 0x0 DUP2 MLOAD SWAP1 POP SWAP2 SWAP1 POP JUMP JUMPDEST PUSH1 0x0 DUP2 MLOAD SWAP1 POP SWAP2 SWAP1 POP JUMP JUMPDEST PUSH1 0x0 PUSH1 0x20 DUP3 ADD SWAP1 POP SWAP2 SWAP1 POP JUMP JUMPDEST PUSH1 0x0 DUP3 DUP3 MSTORE PUSH1 0x20 DUP3 ADD SWAP1 POP SWAP3 SWAP2 POP POP JUMP JUMPDEST PUSH1 0x0 DUP3 DUP3 MSTORE PUSH1 0x20 DUP3 ADD SWAP1 POP SWAP3 SWAP2 POP POP JUMP JUMPDEST PUSH1 0x0 DUP3 DUP3 MSTORE PUSH1 0x20 DUP3 ADD SWAP1 POP SWAP3 SWAP2 POP POP JUMP JUMPDEST PUSH1 0x0 PUSH2 0x3B91 DUP3 PUSH2 0x3C76 JUMP JUMPDEST SWAP2 POP PUSH2 0x3B9C DUP4 PUSH2 0x3C76 JUMP JUMPDEST SWAP3 POP DUP3 PUSH32 0xFFFFFFFFFFFFFFFFFFFFFFFFFFFFFFFFFFFFFFFFFFFFFFFFFFFFFFFFFFFFFFFF SUB DUP3 GT ISZERO PUSH2 0x3BD1 JUMPI PUSH2 0x3BD0 PUSH2 0x3DD7 JUMP JUMPDEST JUMPDEST DUP3 DUP3 ADD SWAP1 POP SWAP3 SWAP2 POP POP JUMP JUMPDEST PUSH1 0x0 PUSH2 0x3BE7 DUP3 PUSH2 0x3C56 JUMP JUMPDEST SWAP1 POP SWAP2 SWAP1 POP JUMP JUMPDEST PUSH1 0x0 DUP2 ISZERO ISZERO SWAP1 POP SWAP2 SWAP1 POP JUMP JUMPDEST PUSH1 0x0 DUP2 SWAP1 POP SWAP2 SWAP1 POP JUMP JUMPDEST PUSH1 0x0 PUSH32 0xFFFFFFFF00000000000000000000000000000000000000000000000000000000 DUP3 AND SWAP1 POP SWAP2 SWAP1 POP JUMP JUMPDEST PUSH1 0x0 DUP2 SWAP1 POP PUSH2 0x3C3E DUP3 PUSH2 0x44D9 JUMP JUMPDEST SWAP2 SWAP1 POP JUMP JUMPDEST PUSH1 0x0 DUP2 SWAP1 POP PUSH2 0x3C51 DUP3 PUSH2 0x44ED JUMP JUMPDEST SWAP2 SWAP1 POP JUMP JUMPDEST PUSH1 0x0 PUSH20 0xFFFFFFFFFFFFFFFFFFFFFFFFFFFFFFFFFFFFFFFF DUP3 AND SWAP1 POP SWAP2 SWAP1 POP JUMP JUMPDEST PUSH1 0x0 DUP2 SWAP1 POP SWAP2 SWAP1 POP JUMP JUMPDEST PUSH1 0x0 PUSH2 0x3C8B DUP3 PUSH2 0x3C30 JUMP JUMPDEST SWAP1 POP SWAP2 SWAP1 POP JUMP JUMPDEST PUSH1 0x0 PUSH2 0x3C9D DUP3 PUSH2 0x3C43 JUMP JUMPDEST SWAP1 POP SWAP2 SWAP1 POP JUMP JUMPDEST DUP3 DUP2 DUP4 CALLDATACOPY PUSH1 0x0 DUP4 DUP4 ADD MSTORE POP POP POP JUMP JUMPDEST PUSH1 0x0 JUMPDEST DUP4 DUP2 LT ISZERO PUSH2 0x3CD1 JUMPI DUP1 DUP3 ADD MLOAD DUP2 DUP5 ADD MSTORE PUSH1 0x20 DUP2 ADD SWAP1 POP PUSH2 0x3CB6 JUMP JUMPDEST DUP4 DUP2 GT ISZERO PUSH2 0x3CE0 JUMPI PUSH1 0x0 DUP5 DUP5 ADD MSTORE JUMPDEST POP POP POP POP JUMP JUMPDEST PUSH1 0x0 PUSH1 0x2 DUP3 DIV SWAP1 POP PUSH1 0x1 DUP3 AND DUP1 PUSH2 0x3CFE JUMPI PUSH1 0x7F DUP3 AND SWAP2 POP JUMPDEST PUSH1 0x20 DUP3 LT DUP2 EQ ISZERO PUSH2 0x3D12 JUMPI PUSH2 0x3D11 PUSH2 0x3E64 JUMP JUMPDEST JUMPDEST POP SWAP2 SWAP1 POP JUMP JUMPDEST PUSH2 0x3D21 DUP3 PUSH2 0x3F2C JUMP JUMPDEST DUP2 ADD DUP2 DUP2 LT PUSH8 0xFFFFFFFFFFFFFFFF DUP3 GT OR ISZERO PUSH2 0x3D40 JUMPI PUSH2 0x3D3F PUSH2 0x3EC2 JUMP JUMPDEST JUMPDEST DUP1 PUSH1 0x40 MSTORE POP POP POP JUMP JUMPDEST PUSH1 0x0 PUSH2 0x3D54 DUP3 PUSH2 0x3C76 JUMP JUMPDEST SWAP2 POP PUSH32 0xFFFFFFFFFFFFFFFFFFFFFFFFFFFFFFFFFFFFFFFFFFFFFFFFFFFFFFFFFFFFFFFF DUP3 EQ ISZERO PUSH2 0x3D87 JUMPI PUSH2 0x3D86 PUSH2 0x3DD7 JUMP JUMPDEST JUMPDEST PUSH1 0x1 DUP3 ADD SWAP1 POP SWAP2 SWAP1 POP JUMP JUMPDEST PUSH1 0x0 DUP2 SWAP1 POP SWAP2 SWAP1 POP JUMP JUMPDEST PUSH1 0x0 DUP2 SWAP1 POP SWAP2 SWAP1 POP JUMP JUMPDEST PUSH1 0x0 PUSH2 0x3DB1 DUP3 PUSH2 0x3C76 JUMP JUMPDEST SWAP2 POP PUSH2 0x3DBC DUP4 PUSH2 0x3C76 JUMP JUMPDEST SWAP3 POP DUP3 PUSH2 0x3DCC JUMPI PUSH2 0x3DCB PUSH2 0x3E06 JUMP JUMPDEST JUMPDEST DUP3 DUP3 MOD SWAP1 POP SWAP3 SWAP2 POP POP JUMP JUMPDEST PUSH32 0x4E487B7100000000000000000000000000000000000000000000000000000000 PUSH1 0x0 MSTORE PUSH1 0x11 PUSH1 0x4 MSTORE PUSH1 0x24 PUSH1 0x0 REVERT JUMPDEST PUSH32 0x4E487B7100000000000000000000000000000000000000000000000000000000 PUSH1 0x0 MSTORE PUSH1 0x12 PUSH1 0x4 MSTORE PUSH1 0x24 PUSH1 0x0 REVERT JUMPDEST PUSH32 0x4E487B7100000000000000000000000000000000000000000000000000000000 PUSH1 0x0 MSTORE PUSH1 0x21 PUSH1 0x4 MSTORE PUSH1 0x24 PUSH1 0x0 REVERT JUMPDEST PUSH32 0x4E487B7100000000000000000000000000000000000000000000000000000000 PUSH1 0x0 MSTORE PUSH1 0x22 PUSH1 0x4 MSTORE PUSH1 0x24 PUSH1 0x0 REVERT JUMPDEST PUSH32 0x4E487B7100000000000000000000000000000000000000000000000000000000 PUSH1 0x0 MSTORE PUSH1 0x32 PUSH1 0x4 MSTORE PUSH1 0x24 PUSH1 0x0 REVERT JUMPDEST PUSH32 0x4E487B7100000000000000000000000000000000000000000000000000000000 PUSH1 0x0 MSTORE PUSH1 0x41 PUSH1 0x4 MSTORE PUSH1 0x24 PUSH1 0x0 REVERT JUMPDEST PUSH1 0x0 PUSH1 0x3 RETURNDATASIZE GT ISZERO PUSH2 0x3F10 JUMPI PUSH1 0x4 PUSH1 0x0 DUP1 RETURNDATACOPY PUSH2 0x3F0D PUSH1 0x0 MLOAD PUSH2 0x3F3D JUMP JUMPDEST SWAP1 POP JUMPDEST SWAP1 JUMP JUMPDEST PUSH1 0x0 DUP1 REVERT JUMPDEST PUSH1 0x0 DUP1 REVERT JUMPDEST PUSH1 0x0 DUP1 REVERT JUMPDEST PUSH1 0x0 DUP1 REVERT JUMPDEST PUSH1 0x0 DUP1 REVERT JUMPDEST PUSH1 0x0 PUSH1 0x1F NOT PUSH1 0x1F DUP4 ADD AND SWAP1 POP SWAP2 SWAP1 POP JUMP JUMPDEST PUSH1 0x0 DUP2 PUSH1 0xE0 SHR SWAP1 POP SWAP2 SWAP1 POP JUMP JUMPDEST PUSH32 0x455243313135353A207472616E7366657220746F206E6F6E2045524331313535 PUSH1 0x0 DUP3 ADD MSTORE PUSH32 0x526563656976657220696D706C656D656E746572000000000000000000000000 PUSH1 0x20 DUP3 ADD MSTORE POP JUMP JUMPDEST PUSH32 0x455243313135353A204552433131353552656365697665722072656A65637465 PUSH1 0x0 DUP3 ADD MSTORE PUSH32 0x6420746F6B656E73000000000000000000000000000000000000000000000000 PUSH1 0x20 DUP3 ADD MSTORE POP JUMP JUMPDEST PUSH32 0x455243313135353A2062616C616E636520717565727920666F7220746865207A PUSH1 0x0 DUP3 ADD MSTORE PUSH32 0x65726F2061646472657373000000000000000000000000000000000000000000 PUSH1 0x20 DUP3 ADD MSTORE POP JUMP JUMPDEST PUSH32 0x4F776E61626C653A206E6577206F776E657220697320746865207A65726F2061 PUSH1 0x0 DUP3 ADD MSTORE PUSH32 0x6464726573730000000000000000000000000000000000000000000000000000 PUSH1 0x20 DUP3 ADD MSTORE POP JUMP JUMPDEST PUSH32 0x455243313135353A2063616C6C6572206973206E6F74206F776E6572206E6F72 PUSH1 0x0 DUP3 ADD MSTORE PUSH32 0x20617070726F7665640000000000000000000000000000000000000000000000 PUSH1 0x20 DUP3 ADD MSTORE POP JUMP JUMPDEST PUSH32 0x455243313135353A207472616E7366657220746F20746865207A65726F206164 PUSH1 0x0 DUP3 ADD MSTORE PUSH32 0x6472657373000000000000000000000000000000000000000000000000000000 PUSH1 0x20 DUP3 ADD MSTORE POP JUMP JUMPDEST PUSH32 0x455243313135353A207472616E736665722063616C6C6572206973206E6F7420 PUSH1 0x0 DUP3 ADD MSTORE PUSH32 0x6F776E6572206E6F7220617070726F7665640000000000000000000000000000 PUSH1 0x20 DUP3 ADD MSTORE POP JUMP JUMPDEST PUSH32 0x4164647265737320616C7265616479206861732061207469636B657400000000 PUSH1 0x0 DUP3 ADD MSTORE POP JUMP JUMPDEST PUSH32 0x455243313135353A20696E73756666696369656E742062616C616E636520666F PUSH1 0x0 DUP3 ADD MSTORE PUSH32 0x72207472616E7366657200000000000000000000000000000000000000000000 PUSH1 0x20 DUP3 ADD MSTORE POP JUMP JUMPDEST PUSH32 0x4F776E61626C653A2063616C6C6572206973206E6F7420746865206F776E6572 PUSH1 0x0 DUP3 ADD MSTORE POP JUMP JUMPDEST PUSH32 0x4F6E6C7920565246436F6F7264696E61746F722063616E2066756C66696C6C00 PUSH1 0x0 DUP3 ADD MSTORE POP JUMP JUMPDEST PUSH32 0x5469636B65742069732063757272656E746C79206D696E746564000000000000 PUSH1 0x0 DUP3 ADD MSTORE POP JUMP JUMPDEST PUSH32 0x4164647265737320646F6573206E6F74206F776E2076616C6964207469636B65 PUSH1 0x0 DUP3 ADD MSTORE PUSH32 0x7400000000000000000000000000000000000000000000000000000000000000 PUSH1 0x20 DUP3 ADD MSTORE POP JUMP JUMPDEST PUSH32 0x46756E647320617265206E6F742073756666696369656E740000000000000000 PUSH1 0x0 DUP3 ADD MSTORE POP JUMP JUMPDEST PUSH32 0x455243313135353A2073657474696E6720617070726F76616C20737461747573 PUSH1 0x0 DUP3 ADD MSTORE PUSH32 0x20666F722073656C660000000000000000000000000000000000000000000000 PUSH1 0x20 DUP3 ADD MSTORE POP JUMP JUMPDEST PUSH32 0x455243313135353A206163636F756E747320616E6420696473206C656E677468 PUSH1 0x0 DUP3 ADD MSTORE PUSH32 0x206D69736D617463680000000000000000000000000000000000000000000000 PUSH1 0x20 DUP3 ADD MSTORE POP JUMP JUMPDEST PUSH32 0x455243313135353A2069647320616E6420616D6F756E7473206C656E67746820 PUSH1 0x0 DUP3 ADD MSTORE PUSH32 0x6D69736D61746368000000000000000000000000000000000000000000000000 PUSH1 0x20 DUP3 ADD MSTORE POP JUMP JUMPDEST PUSH32 0x455243313135353A206D696E7420746F20746865207A65726F20616464726573 PUSH1 0x0 DUP3 ADD MSTORE PUSH32 0x7300000000000000000000000000000000000000000000000000000000000000 PUSH1 0x20 DUP3 ADD MSTORE POP JUMP JUMPDEST PUSH32 0x53656E646572206E6F742077686974656C697374656400000000000000000000 PUSH1 0x0 DUP3 ADD MSTORE POP JUMP JUMPDEST PUSH1 0x0 PUSH1 0x44 RETURNDATASIZE LT ISZERO PUSH2 0x4453 JUMPI PUSH2 0x44D6 JUMP JUMPDEST PUSH2 0x445B PUSH2 0x3A82 JUMP JUMPDEST PUSH1 0x4 RETURNDATASIZE SUB PUSH1 0x4 DUP3 RETURNDATACOPY DUP1 MLOAD RETURNDATASIZE PUSH1 0x24 DUP3 ADD GT PUSH8 0xFFFFFFFFFFFFFFFF DUP3 GT OR ISZERO PUSH2 0x4483 JUMPI POP POP PUSH2 0x44D6 JUMP JUMPDEST DUP1 DUP3 ADD DUP1 MLOAD PUSH8 0xFFFFFFFFFFFFFFFF DUP2 GT ISZERO PUSH2 0x44A1 JUMPI POP POP POP POP PUSH2 0x44D6 JUMP JUMPDEST DUP1 PUSH1 0x20 DUP4 ADD ADD PUSH1 0x4 RETURNDATASIZE SUB DUP6 ADD DUP2 GT ISZERO PUSH2 0x44BE JUMPI POP POP POP POP POP PUSH2 0x44D6 JUMP JUMPDEST PUSH2 0x44CD DUP3 PUSH1 0x20 ADD DUP6 ADD DUP7 PUSH2 0x3D18 JUMP JUMPDEST DUP3 SWAP6 POP POP POP POP POP POP JUMPDEST SWAP1 JUMP JUMPDEST PUSH1 0x2 DUP2 LT PUSH2 0x44EA JUMPI PUSH2 0x44E9 PUSH2 0x3E35 JUMP JUMPDEST JUMPDEST POP JUMP JUMPDEST PUSH1 0x4 DUP2 LT PUSH2 0x44FE JUMPI PUSH2 0x44FD PUSH2 0x3E35 JUMP JUMPDEST JUMPDEST POP JUMP JUMPDEST PUSH2 0x450A DUP2 PUSH2 0x3BDC JUMP JUMPDEST DUP2 EQ PUSH2 0x4515 JUMPI PUSH1 0x0 DUP1 REVERT JUMPDEST POP JUMP JUMPDEST PUSH2 0x4521 DUP2 PUSH2 0x3BEE JUMP JUMPDEST DUP2 EQ PUSH2 0x452C JUMPI PUSH1 0x0 DUP1 REVERT JUMPDEST POP JUMP JUMPDEST PUSH2 0x4538 DUP2 PUSH2 0x3BFA JUMP JUMPDEST DUP2 EQ PUSH2 0x4543 JUMPI PUSH1 0x0 DUP1 REVERT JUMPDEST POP JUMP JUMPDEST PUSH2 0x454F DUP2 PUSH2 0x3C04 JUMP JUMPDEST DUP2 EQ PUSH2 0x455A JUMPI PUSH1 0x0 DUP1 REVERT JUMPDEST POP JUMP JUMPDEST PUSH2 0x4566 DUP2 PUSH2 0x3C76 JUMP JUMPDEST DUP2 EQ PUSH2 0x4571 JUMPI PUSH1 0x0 DUP1 REVERT JUMPDEST POP JUMP INVALID LOG2 PUSH5 0x6970667358 0x22 SLT KECCAK256 PUSH29 0x47D6DA0EFCDAB833DA4CD468F2B64612FF5E27A93C1CEDD3814900A5EC SELFDESTRUCT 0xE0 PUSH5 0x736F6C6343 STOP ADDMOD SMOD STOP CALLER PUSH9 0x747470733A2F2F6761 PUSH21 0x657761792E70696E6174612E636C6F75642F697066 PUSH20 0x2F516D544E333271424B59716E7976617471666E SSTORE CODESIZE PUSH19 0x6136635955474E7870597A6953646443617445 PUSH14 0x6F704C522F6D657461646174612F PUSH2 0x7069 0x2F PUSH10 0x74656D2F7B69647D2E6A PUSH20 0x6F6E000000000000000000000000000000000000 "
		},
		"gasEstimates": {
			"creation": {
				"codeDepositCost": "3566800",
				"executionCost": "infinite",
				"totalCost": "infinite"
			},
			"external": {
				"addToWhitelist(address)": "27096",
				"balanceOf(address,uint256)": "infinite",
				"balanceOfBatch(address[],uint256[])": "infinite",
				"drawWinner(uint256)": "5370",
				"drawingState()": "2632",
				"enableWhitelistMode()": "26716",
				"enter()": "infinite",
				"entrantCount()": "2474",
				"getContractBalance()": "472",
				"getWETHBalance()": "infinite",
				"isApprovedForAll(address,address)": "infinite",
				"lotteryPot()": "2518",
				"lotteryState()": "2671",
				"owner()": "2611",
				"rawFulfillRandomness(bytes32,uint256)": "infinite",
				"removeFromWhitelist(address)": "27094",
				"renounceOwnership()": "30397",
				"safeBatchTransferFrom(address,address,uint256[],uint256[],bytes)": "infinite",
				"safeTransferFrom(address,address,uint256,uint256,bytes)": "infinite",
				"setApprovalForAll(address,bool)": "infinite",
				"supportsInterface(bytes4)": "841",
				"transferOwnership(address)": "30855",
				"uri(uint256)": "infinite"
			},
			"internal": {
				"drawBracket(uint256)": "300",
				"fulfillRandomness(bytes32,uint256)": "infinite",
				"generateTicket(uint256,bytes32)": "infinite",
				"mintEntrantNFT()": "infinite",
				"mintTicket(uint256,bytes32)": "infinite"
			}
		},
		"methodIdentifiers": {
			"addToWhitelist(address)": "e43252d7",
			"balanceOf(address,uint256)": "00fdd58e",
			"balanceOfBatch(address[],uint256[])": "4e1273f4",
			"drawWinner(uint256)": "60b2a56a",
			"drawingState()": "a4af2f0e",
			"enableWhitelistMode()": "60496348",
			"enter()": "e97dcb62",
			"entrantCount()": "89f3beb6",
			"getContractBalance()": "6f9fb98a",
			"getWETHBalance()": "00cbb73b",
			"isApprovedForAll(address,address)": "e985e9c5",
			"lotteryPot()": "630a46c3",
			"lotteryState()": "6939864b",
			"owner()": "8da5cb5b",
			"rawFulfillRandomness(bytes32,uint256)": "94985ddd",
			"removeFromWhitelist(address)": "8ab1d681",
			"renounceOwnership()": "715018a6",
			"safeBatchTransferFrom(address,address,uint256[],uint256[],bytes)": "2eb2c2d6",
			"safeTransferFrom(address,address,uint256,uint256,bytes)": "f242432a",
			"setApprovalForAll(address,bool)": "a22cb465",
			"supportsInterface(bytes4)": "01ffc9a7",
			"transferOwnership(address)": "f2fde38b",
			"uri(uint256)": "0e89341c"
		}
	},
	"abi": [
		{
			"inputs": [],
			"stateMutability": "nonpayable",
			"type": "constructor"
		},
		{
			"anonymous": false,
			"inputs": [
				{
					"indexed": true,
					"internalType": "address",
					"name": "account",
					"type": "address"
				},
				{
					"indexed": true,
					"internalType": "address",
					"name": "operator",
					"type": "address"
				},
				{
					"indexed": false,
					"internalType": "bool",
					"name": "approved",
					"type": "bool"
				}
			],
			"name": "ApprovalForAll",
			"type": "event"
		},
		{
			"anonymous": false,
			"inputs": [
				{
					"indexed": false,
					"internalType": "address",
					"name": "",
					"type": "address"
				},
				{
					"indexed": false,
					"internalType": "uint256",
					"name": "",
					"type": "uint256"
				}
			],
			"name": "MintTicket",
			"type": "event"
		},
		{
			"anonymous": false,
			"inputs": [
				{
					"indexed": true,
					"internalType": "address",
					"name": "previousOwner",
					"type": "address"
				},
				{
					"indexed": true,
					"internalType": "address",
					"name": "newOwner",
					"type": "address"
				}
			],
			"name": "OwnershipTransferred",
			"type": "event"
		},
		{
			"anonymous": false,
			"inputs": [
				{
					"indexed": false,
					"internalType": "bytes32",
					"name": "",
					"type": "bytes32"
				}
			],
			"name": "RequestedRandomness",
			"type": "event"
		},
		{
			"anonymous": false,
			"inputs": [
				{
					"indexed": true,
					"internalType": "address",
					"name": "operator",
					"type": "address"
				},
				{
					"indexed": true,
					"internalType": "address",
					"name": "from",
					"type": "address"
				},
				{
					"indexed": true,
					"internalType": "address",
					"name": "to",
					"type": "address"
				},
				{
					"indexed": false,
					"internalType": "uint256[]",
					"name": "ids",
					"type": "uint256[]"
				},
				{
					"indexed": false,
					"internalType": "uint256[]",
					"name": "values",
					"type": "uint256[]"
				}
			],
			"name": "TransferBatch",
			"type": "event"
		},
		{
			"anonymous": false,
			"inputs": [
				{
					"indexed": true,
					"internalType": "address",
					"name": "operator",
					"type": "address"
				},
				{
					"indexed": true,
					"internalType": "address",
					"name": "from",
					"type": "address"
				},
				{
					"indexed": true,
					"internalType": "address",
					"name": "to",
					"type": "address"
				},
				{
					"indexed": false,
					"internalType": "uint256",
					"name": "id",
					"type": "uint256"
				},
				{
					"indexed": false,
					"internalType": "uint256",
					"name": "value",
					"type": "uint256"
				}
			],
			"name": "TransferSingle",
			"type": "event"
		},
		{
			"anonymous": false,
			"inputs": [
				{
					"indexed": false,
					"internalType": "string",
					"name": "value",
					"type": "string"
				},
				{
					"indexed": true,
					"internalType": "uint256",
					"name": "id",
					"type": "uint256"
				}
			],
			"name": "URI",
			"type": "event"
		},
		{
			"inputs": [
				{
					"internalType": "address",
					"name": "addressToWhiteList",
					"type": "address"
				}
			],
			"name": "addToWhitelist",
			"outputs": [],
			"stateMutability": "nonpayable",
			"type": "function"
		},
		{
			"inputs": [
				{
					"internalType": "address",
					"name": "account",
					"type": "address"
				},
				{
					"internalType": "uint256",
					"name": "id",
					"type": "uint256"
				}
			],
			"name": "balanceOf",
			"outputs": [
				{
					"internalType": "uint256",
					"name": "",
					"type": "uint256"
				}
			],
			"stateMutability": "view",
			"type": "function"
		},
		{
			"inputs": [
				{
					"internalType": "address[]",
					"name": "accounts",
					"type": "address[]"
				},
				{
					"internalType": "uint256[]",
					"name": "ids",
					"type": "uint256[]"
				}
			],
			"name": "balanceOfBatch",
			"outputs": [
				{
					"internalType": "uint256[]",
					"name": "",
					"type": "uint256[]"
				}
			],
			"stateMutability": "view",
			"type": "function"
		},
		{
			"inputs": [
				{
					"internalType": "uint256",
					"name": "rarity",
					"type": "uint256"
				}
			],
			"name": "drawWinner",
			"outputs": [],
			"stateMutability": "payable",
			"type": "function"
		},
		{
			"inputs": [],
			"name": "drawingState",
			"outputs": [
				{
					"internalType": "enum DrawingState",
					"name": "",
					"type": "uint8"
				}
			],
			"stateMutability": "view",
			"type": "function"
		},
		{
			"inputs": [],
			"name": "enableWhitelistMode",
			"outputs": [],
			"stateMutability": "nonpayable",
			"type": "function"
		},
		{
			"inputs": [],
			"name": "enter",
			"outputs": [],
			"stateMutability": "payable",
			"type": "function"
		},
		{
			"inputs": [],
			"name": "entrantCount",
			"outputs": [
				{
					"internalType": "uint256",
					"name": "",
					"type": "uint256"
				}
			],
			"stateMutability": "view",
			"type": "function"
		},
		{
			"inputs": [],
			"name": "getContractBalance",
			"outputs": [
				{
					"internalType": "uint256",
					"name": "",
					"type": "uint256"
				}
			],
			"stateMutability": "view",
			"type": "function"
		},
		{
			"inputs": [],
			"name": "getWETHBalance",
			"outputs": [
				{
					"internalType": "uint256",
					"name": "",
					"type": "uint256"
				}
			],
			"stateMutability": "view",
			"type": "function"
		},
		{
			"inputs": [
				{
					"internalType": "address",
					"name": "account",
					"type": "address"
				},
				{
					"internalType": "address",
					"name": "operator",
					"type": "address"
				}
			],
			"name": "isApprovedForAll",
			"outputs": [
				{
					"internalType": "bool",
					"name": "",
					"type": "bool"
				}
			],
			"stateMutability": "view",
			"type": "function"
		},
		{
			"inputs": [],
			"name": "lotteryPot",
			"outputs": [
				{
					"internalType": "uint256",
					"name": "",
					"type": "uint256"
				}
			],
			"stateMutability": "view",
			"type": "function"
		},
		{
			"inputs": [],
			"name": "lotteryState",
			"outputs": [
				{
					"internalType": "enum LotteryState",
					"name": "",
					"type": "uint8"
				}
			],
			"stateMutability": "view",
			"type": "function"
		},
		{
			"inputs": [],
			"name": "owner",
			"outputs": [
				{
					"internalType": "address",
					"name": "",
					"type": "address"
				}
			],
			"stateMutability": "view",
			"type": "function"
		},
		{
			"inputs": [
				{
					"internalType": "bytes32",
					"name": "requestId",
					"type": "bytes32"
				},
				{
					"internalType": "uint256",
					"name": "randomness",
					"type": "uint256"
				}
			],
			"name": "rawFulfillRandomness",
			"outputs": [],
			"stateMutability": "nonpayable",
			"type": "function"
		},
		{
			"inputs": [
				{
					"internalType": "address",
					"name": "addressToRemove",
					"type": "address"
				}
			],
			"name": "removeFromWhitelist",
			"outputs": [],
			"stateMutability": "nonpayable",
			"type": "function"
		},
		{
			"inputs": [],
			"name": "renounceOwnership",
			"outputs": [],
			"stateMutability": "nonpayable",
			"type": "function"
		},
		{
			"inputs": [
				{
					"internalType": "address",
					"name": "from",
					"type": "address"
				},
				{
					"internalType": "address",
					"name": "to",
					"type": "address"
				},
				{
					"internalType": "uint256[]",
					"name": "ids",
					"type": "uint256[]"
				},
				{
					"internalType": "uint256[]",
					"name": "amounts",
					"type": "uint256[]"
				},
				{
					"internalType": "bytes",
					"name": "data",
					"type": "bytes"
				}
			],
			"name": "safeBatchTransferFrom",
			"outputs": [],
			"stateMutability": "nonpayable",
			"type": "function"
		},
		{
			"inputs": [
				{
					"internalType": "address",
					"name": "from",
					"type": "address"
				},
				{
					"internalType": "address",
					"name": "to",
					"type": "address"
				},
				{
					"internalType": "uint256",
					"name": "id",
					"type": "uint256"
				},
				{
					"internalType": "uint256",
					"name": "amount",
					"type": "uint256"
				},
				{
					"internalType": "bytes",
					"name": "data",
					"type": "bytes"
				}
			],
			"name": "safeTransferFrom",
			"outputs": [],
			"stateMutability": "nonpayable",
			"type": "function"
		},
		{
			"inputs": [
				{
					"internalType": "address",
					"name": "operator",
					"type": "address"
				},
				{
					"internalType": "bool",
					"name": "approved",
					"type": "bool"
				}
			],
			"name": "setApprovalForAll",
			"outputs": [],
			"stateMutability": "nonpayable",
			"type": "function"
		},
		{
			"inputs": [
				{
					"internalType": "bytes4",
					"name": "interfaceId",
					"type": "bytes4"
				}
			],
			"name": "supportsInterface",
			"outputs": [
				{
					"internalType": "bool",
					"name": "",
					"type": "bool"
				}
			],
			"stateMutability": "view",
			"type": "function"
		},
		{
			"inputs": [
				{
					"internalType": "address",
					"name": "newOwner",
					"type": "address"
				}
			],
			"name": "transferOwnership",
			"outputs": [],
			"stateMutability": "nonpayable",
			"type": "function"
		},
		{
			"inputs": [
				{
					"internalType": "uint256",
					"name": "",
					"type": "uint256"
				}
			],
			"name": "uri",
			"outputs": [
				{
					"internalType": "string",
					"name": "",
					"type": "string"
				}
			],
			"stateMutability": "view",
			"type": "function"
		}
	]
}